{
	"HealthcareDataManagement.sol": {
		"HealthcareDataManagement": {
			"abi": [
				{
					"inputs": [
						{
							"internalType": "address",
							"name": "admin",
							"type": "address"
						}
					],
					"stateMutability": "nonpayable",
					"type": "constructor"
				},
				{
					"inputs": [],
					"name": "AccessControlBadConfirmation",
					"type": "error"
				},
				{
					"inputs": [
						{
							"internalType": "address",
							"name": "account",
							"type": "address"
						},
						{
							"internalType": "bytes32",
							"name": "neededRole",
							"type": "bytes32"
						}
					],
					"name": "AccessControlUnauthorizedAccount",
					"type": "error"
				},
				{
					"inputs": [
						{
							"internalType": "address",
							"name": "owner",
							"type": "address"
						}
					],
					"name": "OwnableInvalidOwner",
					"type": "error"
				},
				{
					"inputs": [
						{
							"internalType": "address",
							"name": "account",
							"type": "address"
						}
					],
					"name": "OwnableUnauthorizedAccount",
					"type": "error"
				},
				{
					"anonymous": false,
					"inputs": [
						{
							"indexed": false,
							"internalType": "uint256",
							"name": "id",
							"type": "uint256"
						},
						{
							"indexed": false,
							"internalType": "address",
							"name": "to",
							"type": "address"
						}
					],
					"name": "AccessGranted",
					"type": "event"
				},
				{
					"anonymous": false,
					"inputs": [
						{
							"indexed": false,
							"internalType": "uint256",
							"name": "id",
							"type": "uint256"
						},
						{
							"indexed": false,
							"internalType": "address",
							"name": "from",
							"type": "address"
						}
					],
					"name": "AccessRevoked",
					"type": "event"
				},
				{
					"anonymous": false,
					"inputs": [
						{
							"indexed": true,
							"internalType": "address",
							"name": "previousOwner",
							"type": "address"
						},
						{
							"indexed": true,
							"internalType": "address",
							"name": "newOwner",
							"type": "address"
						}
					],
					"name": "OwnershipTransferred",
					"type": "event"
				},
				{
					"anonymous": false,
					"inputs": [
						{
							"indexed": false,
							"internalType": "uint256",
							"name": "id",
							"type": "uint256"
						},
						{
							"indexed": false,
							"internalType": "address",
							"name": "by",
							"type": "address"
						}
					],
					"name": "RecordAccessed",
					"type": "event"
				},
				{
					"anonymous": false,
					"inputs": [
						{
							"indexed": false,
							"internalType": "uint256",
							"name": "id",
							"type": "uint256"
						},
						{
							"indexed": false,
							"internalType": "address",
							"name": "owner",
							"type": "address"
						}
					],
					"name": "RecordCreated",
					"type": "event"
				},
				{
					"anonymous": false,
					"inputs": [
						{
							"indexed": true,
							"internalType": "bytes32",
							"name": "role",
							"type": "bytes32"
						},
						{
							"indexed": true,
							"internalType": "bytes32",
							"name": "previousAdminRole",
							"type": "bytes32"
						},
						{
							"indexed": true,
							"internalType": "bytes32",
							"name": "newAdminRole",
							"type": "bytes32"
						}
					],
					"name": "RoleAdminChanged",
					"type": "event"
				},
				{
					"anonymous": false,
					"inputs": [
						{
							"indexed": true,
							"internalType": "bytes32",
							"name": "role",
							"type": "bytes32"
						},
						{
							"indexed": true,
							"internalType": "address",
							"name": "account",
							"type": "address"
						},
						{
							"indexed": true,
							"internalType": "address",
							"name": "sender",
							"type": "address"
						}
					],
					"name": "RoleGranted",
					"type": "event"
				},
				{
					"anonymous": false,
					"inputs": [
						{
							"indexed": true,
							"internalType": "bytes32",
							"name": "role",
							"type": "bytes32"
						},
						{
							"indexed": true,
							"internalType": "address",
							"name": "account",
							"type": "address"
						},
						{
							"indexed": true,
							"internalType": "address",
							"name": "sender",
							"type": "address"
						}
					],
					"name": "RoleRevoked",
					"type": "event"
				},
				{
					"inputs": [],
					"name": "DEFAULT_ADMIN_ROLE",
					"outputs": [
						{
							"internalType": "bytes32",
							"name": "",
							"type": "bytes32"
						}
					],
					"stateMutability": "view",
					"type": "function"
				},
				{
					"inputs": [],
					"name": "HEALTHCARE_PROVIDER_ROLE",
					"outputs": [
						{
							"internalType": "bytes32",
							"name": "",
							"type": "bytes32"
						}
					],
					"stateMutability": "view",
					"type": "function"
				},
				{
					"inputs": [
						{
							"internalType": "address",
							"name": "provider",
							"type": "address"
						}
					],
					"name": "addHealthcareProvider",
					"outputs": [],
					"stateMutability": "nonpayable",
					"type": "function"
				},
				{
					"inputs": [
						{
							"internalType": "string",
							"name": "dataHash",
							"type": "string"
						}
					],
					"name": "createRecord",
					"outputs": [],
					"stateMutability": "nonpayable",
					"type": "function"
				},
				{
					"inputs": [],
					"name": "getAccessLogs",
					"outputs": [
						{
							"components": [
								{
									"internalType": "uint256",
									"name": "recordId",
									"type": "uint256"
								},
								{
									"internalType": "address",
									"name": "accessedBy",
									"type": "address"
								},
								{
									"internalType": "uint256",
									"name": "timestamp",
									"type": "uint256"
								}
							],
							"internalType": "struct HealthcareDataManagement.AccessLog[]",
							"name": "",
							"type": "tuple[]"
						}
					],
					"stateMutability": "view",
					"type": "function"
				},
				{
					"inputs": [
						{
							"internalType": "uint256",
							"name": "recordId",
							"type": "uint256"
						}
					],
					"name": "getRecord",
					"outputs": [
						{
							"internalType": "string",
							"name": "",
							"type": "string"
						}
					],
					"stateMutability": "nonpayable",
					"type": "function"
				},
				{
					"inputs": [
						{
							"internalType": "address",
							"name": "owner",
							"type": "address"
						}
					],
					"name": "getRecordsByOwner",
					"outputs": [
						{
							"internalType": "uint256[]",
							"name": "",
							"type": "uint256[]"
						}
					],
					"stateMutability": "view",
					"type": "function"
				},
				{
					"inputs": [
						{
							"internalType": "bytes32",
							"name": "role",
							"type": "bytes32"
						}
					],
					"name": "getRoleAdmin",
					"outputs": [
						{
							"internalType": "bytes32",
							"name": "",
							"type": "bytes32"
						}
					],
					"stateMutability": "view",
					"type": "function"
				},
				{
					"inputs": [
						{
							"internalType": "uint256",
							"name": "recordId",
							"type": "uint256"
						},
						{
							"internalType": "address",
							"name": "to",
							"type": "address"
						}
					],
					"name": "grantAccess",
					"outputs": [],
					"stateMutability": "nonpayable",
					"type": "function"
				},
				{
					"inputs": [
						{
							"internalType": "bytes32",
							"name": "role",
							"type": "bytes32"
						},
						{
							"internalType": "address",
							"name": "account",
							"type": "address"
						}
					],
					"name": "grantRole",
					"outputs": [],
					"stateMutability": "nonpayable",
					"type": "function"
				},
				{
					"inputs": [
						{
							"internalType": "bytes32",
							"name": "role",
							"type": "bytes32"
						},
						{
							"internalType": "address",
							"name": "account",
							"type": "address"
						}
					],
					"name": "hasRole",
					"outputs": [
						{
							"internalType": "bool",
							"name": "",
							"type": "bool"
						}
					],
					"stateMutability": "view",
					"type": "function"
				},
				{
					"inputs": [],
					"name": "owner",
					"outputs": [
						{
							"internalType": "address",
							"name": "",
							"type": "address"
						}
					],
					"stateMutability": "view",
					"type": "function"
				},
				{
					"inputs": [
						{
							"internalType": "address",
							"name": "provider",
							"type": "address"
						}
					],
					"name": "removeHealthcareProvider",
					"outputs": [],
					"stateMutability": "nonpayable",
					"type": "function"
				},
				{
					"inputs": [],
					"name": "renounceOwnership",
					"outputs": [],
					"stateMutability": "nonpayable",
					"type": "function"
				},
				{
					"inputs": [
						{
							"internalType": "bytes32",
							"name": "role",
							"type": "bytes32"
						},
						{
							"internalType": "address",
							"name": "callerConfirmation",
							"type": "address"
						}
					],
					"name": "renounceRole",
					"outputs": [],
					"stateMutability": "nonpayable",
					"type": "function"
				},
				{
					"inputs": [
						{
							"internalType": "uint256",
							"name": "recordId",
							"type": "uint256"
						},
						{
							"internalType": "address",
							"name": "from",
							"type": "address"
						}
					],
					"name": "revokeAccess",
					"outputs": [],
					"stateMutability": "nonpayable",
					"type": "function"
				},
				{
					"inputs": [
						{
							"internalType": "bytes32",
							"name": "role",
							"type": "bytes32"
						},
						{
							"internalType": "address",
							"name": "account",
							"type": "address"
						}
					],
					"name": "revokeRole",
					"outputs": [],
					"stateMutability": "nonpayable",
					"type": "function"
				},
				{
					"inputs": [
						{
							"internalType": "bytes4",
							"name": "interfaceId",
							"type": "bytes4"
						}
					],
					"name": "supportsInterface",
					"outputs": [
						{
							"internalType": "bool",
							"name": "",
							"type": "bool"
						}
					],
					"stateMutability": "view",
					"type": "function"
				},
				{
					"inputs": [
						{
							"internalType": "address",
							"name": "newOwner",
							"type": "address"
						}
					],
					"name": "transferOwnership",
					"outputs": [],
					"stateMutability": "nonpayable",
					"type": "function"
				}
			],
			"devdoc": {
				"errors": {
					"AccessControlBadConfirmation()": [
						{
							"details": "The caller of a function is not the expected one. NOTE: Don't confuse with {AccessControlUnauthorizedAccount}."
						}
					],
					"AccessControlUnauthorizedAccount(address,bytes32)": [
						{
							"details": "The `account` is missing a role."
						}
					],
					"OwnableInvalidOwner(address)": [
						{
							"details": "The owner is not a valid owner account. (eg. `address(0)`)"
						}
					],
					"OwnableUnauthorizedAccount(address)": [
						{
							"details": "The caller account is not authorized to perform an operation."
						}
					]
				},
				"events": {
					"RoleAdminChanged(bytes32,bytes32,bytes32)": {
						"details": "Emitted when `newAdminRole` is set as ``role``'s admin role, replacing `previousAdminRole` `DEFAULT_ADMIN_ROLE` is the starting admin for all roles, despite {RoleAdminChanged} not being emitted signaling this."
					},
					"RoleGranted(bytes32,address,address)": {
						"details": "Emitted when `account` is granted `role`. `sender` is the account that originated the contract call, an admin role bearer except when using {AccessControl-_setupRole}."
					},
					"RoleRevoked(bytes32,address,address)": {
						"details": "Emitted when `account` is revoked `role`. `sender` is the account that originated the contract call:   - if using `revokeRole`, it is the admin role bearer   - if using `renounceRole`, it is the role bearer (i.e. `account`)"
					}
				},
				"kind": "dev",
				"methods": {
					"getRoleAdmin(bytes32)": {
						"details": "Returns the admin role that controls `role`. See {grantRole} and {revokeRole}. To change a role's admin, use {_setRoleAdmin}."
					},
					"grantRole(bytes32,address)": {
						"details": "Grants `role` to `account`. If `account` had not been already granted `role`, emits a {RoleGranted} event. Requirements: - the caller must have ``role``'s admin role. May emit a {RoleGranted} event."
					},
					"hasRole(bytes32,address)": {
						"details": "Returns `true` if `account` has been granted `role`."
					},
					"owner()": {
						"details": "Returns the address of the current owner."
					},
					"renounceOwnership()": {
						"details": "Leaves the contract without owner. It will not be possible to call `onlyOwner` functions. Can only be called by the current owner. NOTE: Renouncing ownership will leave the contract without an owner, thereby disabling any functionality that is only available to the owner."
					},
					"renounceRole(bytes32,address)": {
						"details": "Revokes `role` from the calling account. Roles are often managed via {grantRole} and {revokeRole}: this function's purpose is to provide a mechanism for accounts to lose their privileges if they are compromised (such as when a trusted device is misplaced). If the calling account had been revoked `role`, emits a {RoleRevoked} event. Requirements: - the caller must be `callerConfirmation`. May emit a {RoleRevoked} event."
					},
					"revokeRole(bytes32,address)": {
						"details": "Revokes `role` from `account`. If `account` had been granted `role`, emits a {RoleRevoked} event. Requirements: - the caller must have ``role``'s admin role. May emit a {RoleRevoked} event."
					},
					"supportsInterface(bytes4)": {
						"details": "See {IERC165-supportsInterface}."
					},
					"transferOwnership(address)": {
						"details": "Transfers ownership of the contract to a new account (`newOwner`). Can only be called by the current owner."
					}
				},
				"version": 1
			},
			"evm": {
				"assembly": "    /* \"HealthcareDataManagement.sol\":176:3644  contract HealthcareDataManagement is AccessControl, Ownable {... */\n  mstore(0x40, 0x80)\n    /* \"HealthcareDataManagement.sol\":1041:1127  constructor(address admin) Ownable(admin) {... */\n  callvalue\n  dup1\n  iszero\n  tag_1\n  jumpi\n  0x00\n  dup1\n  revert\ntag_1:\n  pop\n  mload(0x40)\n  sub(codesize, bytecodeSize)\n  dup1\n  bytecodeSize\n  dup4\n  codecopy\n  dup2\n  dup2\n  add\n  0x40\n  mstore\n  dup2\n  add\n  swap1\n  tag_2\n  swap2\n  swap1\n  tag_3\n  jump\t// in\ntag_2:\n    /* \"HealthcareDataManagement.sol\":1076:1081  admin */\n  dup1\n    /* \"@openzeppelin/contracts/access/Ownable.sol\":1297:1298  0 */\n  0x00\n    /* \"@openzeppelin/contracts/access/Ownable.sol\":1273:1299  initialOwner == address(0) */\n  0xffffffffffffffffffffffffffffffffffffffff\n  and\n    /* \"@openzeppelin/contracts/access/Ownable.sol\":1273:1285  initialOwner */\n  dup2\n    /* \"@openzeppelin/contracts/access/Ownable.sol\":1273:1299  initialOwner == address(0) */\n  0xffffffffffffffffffffffffffffffffffffffff\n  and\n  sub\n    /* \"@openzeppelin/contracts/access/Ownable.sol\":1269:1364  if (initialOwner == address(0)) {... */\n  tag_7\n  jumpi\n    /* \"@openzeppelin/contracts/access/Ownable.sol\":1350:1351  0 */\n  0x00\n    /* \"@openzeppelin/contracts/access/Ownable.sol\":1322:1353  OwnableInvalidOwner(address(0)) */\n  mload(0x40)\n  0x1e4fbdf700000000000000000000000000000000000000000000000000000000\n  dup2\n  mstore\n  0x04\n  add\n  tag_8\n  swap2\n  swap1\n  tag_9\n  jump\t// in\ntag_8:\n  mload(0x40)\n  dup1\n  swap2\n  sub\n  swap1\n  revert\n    /* \"@openzeppelin/contracts/access/Ownable.sol\":1269:1364  if (initialOwner == address(0)) {... */\ntag_7:\n    /* \"@openzeppelin/contracts/access/Ownable.sol\":1373:1405  _transferOwnership(initialOwner) */\n  tag_10\n    /* \"@openzeppelin/contracts/access/Ownable.sol\":1392:1404  initialOwner */\n  dup2\n    /* \"@openzeppelin/contracts/access/Ownable.sol\":1373:1391  _transferOwnership */\n  shl(0x20, tag_11)\n    /* \"@openzeppelin/contracts/access/Ownable.sol\":1373:1405  _transferOwnership(initialOwner) */\n  0x20\n  shr\n  jump\t// in\ntag_10:\n    /* \"@openzeppelin/contracts/access/Ownable.sol\":1225:1412  constructor(address initialOwner) {... */\n  pop\n    /* \"HealthcareDataManagement.sol\":1094:1119  _setupDefaultRoles(admin) */\n  tag_13\n    /* \"HealthcareDataManagement.sol\":1113:1118  admin */\n  dup2\n    /* \"HealthcareDataManagement.sol\":1094:1112  _setupDefaultRoles */\n  shl(0x20, tag_14)\n    /* \"HealthcareDataManagement.sol\":1094:1119  _setupDefaultRoles(admin) */\n  0x20\n  shr\n  jump\t// in\ntag_13:\n    /* \"HealthcareDataManagement.sol\":1041:1127  constructor(address admin) Ownable(admin) {... */\n  pop\n    /* \"HealthcareDataManagement.sol\":176:3644  contract HealthcareDataManagement is AccessControl, Ownable {... */\n  jump(tag_15)\n    /* \"@openzeppelin/contracts/access/Ownable.sol\":2912:3099  function _transferOwnership(address newOwner) internal virtual {... */\ntag_11:\n    /* \"@openzeppelin/contracts/access/Ownable.sol\":2985:3001  address oldOwner */\n  0x00\n    /* \"@openzeppelin/contracts/access/Ownable.sol\":3004:3010  _owner */\n  0x01\n  0x00\n  swap1\n  sload\n  swap1\n  0x0100\n  exp\n  swap1\n  div\n  0xffffffffffffffffffffffffffffffffffffffff\n  and\n    /* \"@openzeppelin/contracts/access/Ownable.sol\":2985:3010  address oldOwner = _owner */\n  swap1\n  pop\n    /* \"@openzeppelin/contracts/access/Ownable.sol\":3029:3037  newOwner */\n  dup2\n    /* \"@openzeppelin/contracts/access/Ownable.sol\":3020:3026  _owner */\n  0x01\n  0x00\n    /* \"@openzeppelin/contracts/access/Ownable.sol\":3020:3037  _owner = newOwner */\n  0x0100\n  exp\n  dup2\n  sload\n  dup2\n  0xffffffffffffffffffffffffffffffffffffffff\n  mul\n  not\n  and\n  swap1\n  dup4\n  0xffffffffffffffffffffffffffffffffffffffff\n  and\n  mul\n  or\n  swap1\n  sstore\n  pop\n    /* \"@openzeppelin/contracts/access/Ownable.sol\":3083:3091  newOwner */\n  dup2\n    /* \"@openzeppelin/contracts/access/Ownable.sol\":3052:3092  OwnershipTransferred(oldOwner, newOwner) */\n  0xffffffffffffffffffffffffffffffffffffffff\n  and\n    /* \"@openzeppelin/contracts/access/Ownable.sol\":3073:3081  oldOwner */\n  dup2\n    /* \"@openzeppelin/contracts/access/Ownable.sol\":3052:3092  OwnershipTransferred(oldOwner, newOwner) */\n  0xffffffffffffffffffffffffffffffffffffffff\n  and\n  0x8be0079c531659141344cd1fd0a4f28419497f9722a3daafe3b4186f6b6457e0\n  mload(0x40)\n  mload(0x40)\n  dup1\n  swap2\n  sub\n  swap1\n  log3\n    /* \"@openzeppelin/contracts/access/Ownable.sol\":2975:3099  {... */\n  pop\n    /* \"@openzeppelin/contracts/access/Ownable.sol\":2912:3099  function _transferOwnership(address newOwner) internal virtual {... */\n  pop\n  jump\t// out\n    /* \"HealthcareDataManagement.sol\":1135:1297  function _setupDefaultRoles(address admin) internal {... */\ntag_14:\n    /* \"HealthcareDataManagement.sol\":1198:1235  _setupRole(DEFAULT_ADMIN_ROLE, admin) */\n  tag_18\n    /* \"@openzeppelin/contracts/access/AccessControl.sol\":2232:2236  0x00 */\n  0x00\n    /* \"HealthcareDataManagement.sol\":1209:1227  DEFAULT_ADMIN_ROLE */\n  dup1\n  shl\n    /* \"HealthcareDataManagement.sol\":1229:1234  admin */\n  dup3\n    /* \"HealthcareDataManagement.sol\":1198:1208  _setupRole */\n  shl(0x20, tag_19)\n    /* \"HealthcareDataManagement.sol\":1198:1235  _setupRole(DEFAULT_ADMIN_ROLE, admin) */\n  0x20\n  shr\n  jump\t// in\ntag_18:\n    /* \"HealthcareDataManagement.sol\":1246:1289  _setupRole(HEALTHCARE_PROVIDER_ROLE, admin) */\n  tag_20\n    /* \"HealthcareDataManagement.sol\":294:331  keccak256(\"HEALTHCARE_PROVIDER_ROLE\") */\n  0x8825c62207077c41710fe5144a6467477a643e911c9ab3785826111f7c94ed8b\n    /* \"HealthcareDataManagement.sol\":1283:1288  admin */\n  dup3\n    /* \"HealthcareDataManagement.sol\":1246:1256  _setupRole */\n  shl(0x20, tag_19)\n    /* \"HealthcareDataManagement.sol\":1246:1289  _setupRole(HEALTHCARE_PROVIDER_ROLE, admin) */\n  0x20\n  shr\n  jump\t// in\ntag_20:\n    /* \"HealthcareDataManagement.sol\":1135:1297  function _setupDefaultRoles(address admin) internal {... */\n  pop\n  jump\t// out\n    /* \"HealthcareDataManagement.sol\":1305:1408  function _setupRole(bytes32 role, address account) internal {... */\ntag_19:\n    /* \"HealthcareDataManagement.sol\":1376:1400  grantRole(role, account) */\n  tag_22\n    /* \"HealthcareDataManagement.sol\":1386:1390  role */\n  dup3\n    /* \"HealthcareDataManagement.sol\":1392:1399  account */\n  dup3\n    /* \"HealthcareDataManagement.sol\":1376:1385  grantRole */\n  shl(0x20, tag_23)\n    /* \"HealthcareDataManagement.sol\":1376:1400  grantRole(role, account) */\n  0x20\n  shr\n  jump\t// in\ntag_22:\n    /* \"HealthcareDataManagement.sol\":1305:1408  function _setupRole(bytes32 role, address account) internal {... */\n  pop\n  pop\n  jump\t// out\n    /* \"@openzeppelin/contracts/access/AccessControl.sol\":4226:4362  function grantRole(bytes32 role, address account) public virtual onlyRole(getRoleAdmin(role)) {... */\ntag_23:\n    /* \"@openzeppelin/contracts/access/AccessControl.sol\":4300:4318  getRoleAdmin(role) */\n  tag_24\n    /* \"@openzeppelin/contracts/access/AccessControl.sol\":4313:4317  role */\n  dup3\n    /* \"@openzeppelin/contracts/access/AccessControl.sol\":4300:4312  getRoleAdmin */\n  shl(0x20, tag_25)\n    /* \"@openzeppelin/contracts/access/AccessControl.sol\":4300:4318  getRoleAdmin(role) */\n  0x20\n  shr\n  jump\t// in\ntag_24:\n    /* \"@openzeppelin/contracts/access/AccessControl.sol\":2464:2480  _checkRole(role) */\n  tag_27\n    /* \"@openzeppelin/contracts/access/AccessControl.sol\":2475:2479  role */\n  dup2\n    /* \"@openzeppelin/contracts/access/AccessControl.sol\":2464:2474  _checkRole */\n  shl(0x20, tag_28)\n    /* \"@openzeppelin/contracts/access/AccessControl.sol\":2464:2480  _checkRole(role) */\n  0x20\n  shr\n  jump\t// in\ntag_27:\n    /* \"@openzeppelin/contracts/access/AccessControl.sol\":4330:4355  _grantRole(role, account) */\n  tag_30\n    /* \"@openzeppelin/contracts/access/AccessControl.sol\":4341:4345  role */\n  dup4\n    /* \"@openzeppelin/contracts/access/AccessControl.sol\":4347:4354  account */\n  dup4\n    /* \"@openzeppelin/contracts/access/AccessControl.sol\":4330:4340  _grantRole */\n  shl(0x20, tag_31)\n    /* \"@openzeppelin/contracts/access/AccessControl.sol\":4330:4355  _grantRole(role, account) */\n  0x20\n  shr\n  jump\t// in\ntag_30:\n  pop\n    /* \"@openzeppelin/contracts/access/AccessControl.sol\":4226:4362  function grantRole(bytes32 role, address account) public virtual onlyRole(getRoleAdmin(role)) {... */\n  pop\n  pop\n  pop\n  jump\t// out\n    /* \"@openzeppelin/contracts/access/AccessControl.sol\":3810:3930  function getRoleAdmin(bytes32 role) public view virtual returns (bytes32) {... */\ntag_25:\n    /* \"@openzeppelin/contracts/access/AccessControl.sol\":3875:3882  bytes32 */\n  0x00\n    /* \"@openzeppelin/contracts/access/AccessControl.sol\":3901:3907  _roles */\n  dup1\n    /* \"@openzeppelin/contracts/access/AccessControl.sol\":3901:3913  _roles[role] */\n  0x00\n    /* \"@openzeppelin/contracts/access/AccessControl.sol\":3908:3912  role */\n  dup4\n    /* \"@openzeppelin/contracts/access/AccessControl.sol\":3901:3913  _roles[role] */\n  dup2\n  mstore\n  0x20\n  add\n  swap1\n  dup2\n  mstore\n  0x20\n  add\n  0x00\n  keccak256\n    /* \"@openzeppelin/contracts/access/AccessControl.sol\":3901:3923  _roles[role].adminRole */\n  0x01\n  add\n  sload\n    /* \"@openzeppelin/contracts/access/AccessControl.sol\":3894:3923  return _roles[role].adminRole */\n  swap1\n  pop\n    /* \"@openzeppelin/contracts/access/AccessControl.sol\":3810:3930  function getRoleAdmin(bytes32 role) public view virtual returns (bytes32) {... */\n  swap2\n  swap1\n  pop\n  jump\t// out\n    /* \"@openzeppelin/contracts/access/AccessControl.sol\":3199:3302  function _checkRole(bytes32 role) internal view virtual {... */\ntag_28:\n    /* \"@openzeppelin/contracts/access/AccessControl.sol\":3265:3295  _checkRole(role, _msgSender()) */\n  tag_34\n    /* \"@openzeppelin/contracts/access/AccessControl.sol\":3276:3280  role */\n  dup2\n    /* \"@openzeppelin/contracts/access/AccessControl.sol\":3282:3294  _msgSender() */\n  tag_35\n    /* \"@openzeppelin/contracts/access/AccessControl.sol\":3282:3292  _msgSender */\n  shl(0x20, tag_36)\n    /* \"@openzeppelin/contracts/access/AccessControl.sol\":3282:3294  _msgSender() */\n  0x20\n  shr\n  jump\t// in\ntag_35:\n    /* \"@openzeppelin/contracts/access/AccessControl.sol\":3265:3275  _checkRole */\n  shl(0x20, tag_37)\n    /* \"@openzeppelin/contracts/access/AccessControl.sol\":3265:3295  _checkRole(role, _msgSender()) */\n  0x20\n  shr\n  jump\t// in\ntag_34:\n    /* \"@openzeppelin/contracts/access/AccessControl.sol\":3199:3302  function _checkRole(bytes32 role) internal view virtual {... */\n  pop\n  jump\t// out\n    /* \"@openzeppelin/contracts/access/AccessControl.sol\":6179:6495  function _grantRole(bytes32 role, address account) internal virtual returns (bool) {... */\ntag_31:\n    /* \"@openzeppelin/contracts/access/AccessControl.sol\":6256:6260  bool */\n  0x00\n    /* \"@openzeppelin/contracts/access/AccessControl.sol\":6277:6299  hasRole(role, account) */\n  tag_39\n    /* \"@openzeppelin/contracts/access/AccessControl.sol\":6285:6289  role */\n  dup4\n    /* \"@openzeppelin/contracts/access/AccessControl.sol\":6291:6298  account */\n  dup4\n    /* \"@openzeppelin/contracts/access/AccessControl.sol\":6277:6284  hasRole */\n  shl(0x20, tag_40)\n    /* \"@openzeppelin/contracts/access/AccessControl.sol\":6277:6299  hasRole(role, account) */\n  0x20\n  shr\n  jump\t// in\ntag_39:\n    /* \"@openzeppelin/contracts/access/AccessControl.sol\":6272:6489  if (!hasRole(role, account)) {... */\n  tag_41\n  jumpi\n    /* \"@openzeppelin/contracts/access/AccessControl.sol\":6347:6351  true */\n  0x01\n    /* \"@openzeppelin/contracts/access/AccessControl.sol\":6315:6321  _roles */\n  0x00\n    /* \"@openzeppelin/contracts/access/AccessControl.sol\":6315:6327  _roles[role] */\n  dup1\n    /* \"@openzeppelin/contracts/access/AccessControl.sol\":6322:6326  role */\n  dup6\n    /* \"@openzeppelin/contracts/access/AccessControl.sol\":6315:6327  _roles[role] */\n  dup2\n  mstore\n  0x20\n  add\n  swap1\n  dup2\n  mstore\n  0x20\n  add\n  0x00\n  keccak256\n    /* \"@openzeppelin/contracts/access/AccessControl.sol\":6315:6335  _roles[role].hasRole */\n  0x00\n  add\n    /* \"@openzeppelin/contracts/access/AccessControl.sol\":6315:6344  _roles[role].hasRole[account] */\n  0x00\n    /* \"@openzeppelin/contracts/access/AccessControl.sol\":6336:6343  account */\n  dup5\n    /* \"@openzeppelin/contracts/access/AccessControl.sol\":6315:6344  _roles[role].hasRole[account] */\n  0xffffffffffffffffffffffffffffffffffffffff\n  and\n  0xffffffffffffffffffffffffffffffffffffffff\n  and\n  dup2\n  mstore\n  0x20\n  add\n  swap1\n  dup2\n  mstore\n  0x20\n  add\n  0x00\n  keccak256\n  0x00\n    /* \"@openzeppelin/contracts/access/AccessControl.sol\":6315:6351  _roles[role].hasRole[account] = true */\n  0x0100\n  exp\n  dup2\n  sload\n  dup2\n  0xff\n  mul\n  not\n  and\n  swap1\n  dup4\n  iszero\n  iszero\n  mul\n  or\n  swap1\n  sstore\n  pop\n    /* \"@openzeppelin/contracts/access/AccessControl.sol\":6397:6409  _msgSender() */\n  tag_42\n    /* \"@openzeppelin/contracts/access/AccessControl.sol\":6397:6407  _msgSender */\n  shl(0x20, tag_36)\n    /* \"@openzeppelin/contracts/access/AccessControl.sol\":6397:6409  _msgSender() */\n  0x20\n  shr\n  jump\t// in\ntag_42:\n    /* \"@openzeppelin/contracts/access/AccessControl.sol\":6370:6410  RoleGranted(role, account, _msgSender()) */\n  0xffffffffffffffffffffffffffffffffffffffff\n  and\n    /* \"@openzeppelin/contracts/access/AccessControl.sol\":6388:6395  account */\n  dup3\n    /* \"@openzeppelin/contracts/access/AccessControl.sol\":6370:6410  RoleGranted(role, account, _msgSender()) */\n  0xffffffffffffffffffffffffffffffffffffffff\n  and\n    /* \"@openzeppelin/contracts/access/AccessControl.sol\":6382:6386  role */\n  dup5\n    /* \"@openzeppelin/contracts/access/AccessControl.sol\":6370:6410  RoleGranted(role, account, _msgSender()) */\n  0x2f8788117e7eff1d82e926ec794901d17c78024a50270940304540a733656f0d\n  mload(0x40)\n  mload(0x40)\n  dup1\n  swap2\n  sub\n  swap1\n  log4\n    /* \"@openzeppelin/contracts/access/AccessControl.sol\":6431:6435  true */\n  0x01\n    /* \"@openzeppelin/contracts/access/AccessControl.sol\":6424:6435  return true */\n  swap1\n  pop\n  jump(tag_38)\n    /* \"@openzeppelin/contracts/access/AccessControl.sol\":6272:6489  if (!hasRole(role, account)) {... */\ntag_41:\n    /* \"@openzeppelin/contracts/access/AccessControl.sol\":6473:6478  false */\n  0x00\n    /* \"@openzeppelin/contracts/access/AccessControl.sol\":6466:6478  return false */\n  swap1\n  pop\n    /* \"@openzeppelin/contracts/access/AccessControl.sol\":6179:6495  function _grantRole(bytes32 role, address account) internal virtual returns (bool) {... */\ntag_38:\n  swap3\n  swap2\n  pop\n  pop\n  jump\t// out\n    /* \"@openzeppelin/contracts/utils/Context.sol\":656:752  function _msgSender() internal view virtual returns (address) {... */\ntag_36:\n    /* \"@openzeppelin/contracts/utils/Context.sol\":709:716  address */\n  0x00\n    /* \"@openzeppelin/contracts/utils/Context.sol\":735:745  msg.sender */\n  caller\n    /* \"@openzeppelin/contracts/utils/Context.sol\":728:745  return msg.sender */\n  swap1\n  pop\n    /* \"@openzeppelin/contracts/utils/Context.sol\":656:752  function _msgSender() internal view virtual returns (address) {... */\n  swap1\n  jump\t// out\n    /* \"@openzeppelin/contracts/access/AccessControl.sol\":3432:3629  function _checkRole(bytes32 role, address account) internal view virtual {... */\ntag_37:\n    /* \"@openzeppelin/contracts/access/AccessControl.sol\":3520:3542  hasRole(role, account) */\n  tag_46\n    /* \"@openzeppelin/contracts/access/AccessControl.sol\":3528:3532  role */\n  dup3\n    /* \"@openzeppelin/contracts/access/AccessControl.sol\":3534:3541  account */\n  dup3\n    /* \"@openzeppelin/contracts/access/AccessControl.sol\":3520:3527  hasRole */\n  shl(0x20, tag_40)\n    /* \"@openzeppelin/contracts/access/AccessControl.sol\":3520:3542  hasRole(role, account) */\n  0x20\n  shr\n  jump\t// in\ntag_46:\n    /* \"@openzeppelin/contracts/access/AccessControl.sol\":3515:3623  if (!hasRole(role, account)) {... */\n  tag_47\n  jumpi\n    /* \"@openzeppelin/contracts/access/AccessControl.sol\":3598:3605  account */\n  dup1\n    /* \"@openzeppelin/contracts/access/AccessControl.sol\":3607:3611  role */\n  dup3\n    /* \"@openzeppelin/contracts/access/AccessControl.sol\":3565:3612  AccessControlUnauthorizedAccount(account, role) */\n  mload(0x40)\n  0xe2517d3f00000000000000000000000000000000000000000000000000000000\n  dup2\n  mstore\n  0x04\n  add\n  tag_48\n  swap3\n  swap2\n  swap1\n  tag_49\n  jump\t// in\ntag_48:\n  mload(0x40)\n  dup1\n  swap2\n  sub\n  swap1\n  revert\n    /* \"@openzeppelin/contracts/access/AccessControl.sol\":3515:3623  if (!hasRole(role, account)) {... */\ntag_47:\n    /* \"@openzeppelin/contracts/access/AccessControl.sol\":3432:3629  function _checkRole(bytes32 role, address account) internal view virtual {... */\n  pop\n  pop\n  jump\t// out\n    /* \"@openzeppelin/contracts/access/AccessControl.sol\":2854:2990  function hasRole(bytes32 role, address account) public view virtual returns (bool) {... */\ntag_40:\n    /* \"@openzeppelin/contracts/access/AccessControl.sol\":2931:2935  bool */\n  0x00\n    /* \"@openzeppelin/contracts/access/AccessControl.sol\":2954:2960  _roles */\n  dup1\n    /* \"@openzeppelin/contracts/access/AccessControl.sol\":2954:2966  _roles[role] */\n  0x00\n    /* \"@openzeppelin/contracts/access/AccessControl.sol\":2961:2965  role */\n  dup5\n    /* \"@openzeppelin/contracts/access/AccessControl.sol\":2954:2966  _roles[role] */\n  dup2\n  mstore\n  0x20\n  add\n  swap1\n  dup2\n  mstore\n  0x20\n  add\n  0x00\n  keccak256\n    /* \"@openzeppelin/contracts/access/AccessControl.sol\":2954:2974  _roles[role].hasRole */\n  0x00\n  add\n    /* \"@openzeppelin/contracts/access/AccessControl.sol\":2954:2983  _roles[role].hasRole[account] */\n  0x00\n    /* \"@openzeppelin/contracts/access/AccessControl.sol\":2975:2982  account */\n  dup4\n    /* \"@openzeppelin/contracts/access/AccessControl.sol\":2954:2983  _roles[role].hasRole[account] */\n  0xffffffffffffffffffffffffffffffffffffffff\n  and\n  0xffffffffffffffffffffffffffffffffffffffff\n  and\n  dup2\n  mstore\n  0x20\n  add\n  swap1\n  dup2\n  mstore\n  0x20\n  add\n  0x00\n  keccak256\n  0x00\n  swap1\n  sload\n  swap1\n  0x0100\n  exp\n  swap1\n  div\n  0xff\n  and\n    /* \"@openzeppelin/contracts/access/AccessControl.sol\":2947:2983  return _roles[role].hasRole[account] */\n  swap1\n  pop\n    /* \"@openzeppelin/contracts/access/AccessControl.sol\":2854:2990  function hasRole(bytes32 role, address account) public view virtual returns (bool) {... */\n  swap3\n  swap2\n  pop\n  pop\n  jump\t// out\n    /* \"#utility.yul\":88:205   */\ntag_52:\n    /* \"#utility.yul\":197:198   */\n  0x00\n    /* \"#utility.yul\":194:195   */\n  dup1\n    /* \"#utility.yul\":187:199   */\n  revert\n    /* \"#utility.yul\":334:460   */\ntag_54:\n    /* \"#utility.yul\":371:378   */\n  0x00\n    /* \"#utility.yul\":411:453   */\n  0xffffffffffffffffffffffffffffffffffffffff\n    /* \"#utility.yul\":404:409   */\n  dup3\n    /* \"#utility.yul\":400:454   */\n  and\n    /* \"#utility.yul\":389:454   */\n  swap1\n  pop\n    /* \"#utility.yul\":334:460   */\n  swap2\n  swap1\n  pop\n  jump\t// out\n    /* \"#utility.yul\":466:562   */\ntag_55:\n    /* \"#utility.yul\":503:510   */\n  0x00\n    /* \"#utility.yul\":532:556   */\n  tag_67\n    /* \"#utility.yul\":550:555   */\n  dup3\n    /* \"#utility.yul\":532:556   */\n  tag_54\n  jump\t// in\ntag_67:\n    /* \"#utility.yul\":521:556   */\n  swap1\n  pop\n    /* \"#utility.yul\":466:562   */\n  swap2\n  swap1\n  pop\n  jump\t// out\n    /* \"#utility.yul\":568:690   */\ntag_56:\n    /* \"#utility.yul\":641:665   */\n  tag_69\n    /* \"#utility.yul\":659:664   */\n  dup2\n    /* \"#utility.yul\":641:665   */\n  tag_55\n  jump\t// in\ntag_69:\n    /* \"#utility.yul\":634:639   */\n  dup2\n    /* \"#utility.yul\":631:666   */\n  eq\n    /* \"#utility.yul\":621:684   */\n  tag_70\n  jumpi\n    /* \"#utility.yul\":680:681   */\n  0x00\n    /* \"#utility.yul\":677:678   */\n  dup1\n    /* \"#utility.yul\":670:682   */\n  revert\n    /* \"#utility.yul\":621:684   */\ntag_70:\n    /* \"#utility.yul\":568:690   */\n  pop\n  jump\t// out\n    /* \"#utility.yul\":696:839   */\ntag_57:\n    /* \"#utility.yul\":753:758   */\n  0x00\n    /* \"#utility.yul\":784:790   */\n  dup2\n    /* \"#utility.yul\":778:791   */\n  mload\n    /* \"#utility.yul\":769:791   */\n  swap1\n  pop\n    /* \"#utility.yul\":800:833   */\n  tag_72\n    /* \"#utility.yul\":827:832   */\n  dup2\n    /* \"#utility.yul\":800:833   */\n  tag_56\n  jump\t// in\ntag_72:\n    /* \"#utility.yul\":696:839   */\n  swap3\n  swap2\n  pop\n  pop\n  jump\t// out\n    /* \"#utility.yul\":845:1196   */\ntag_3:\n    /* \"#utility.yul\":915:921   */\n  0x00\n    /* \"#utility.yul\":964:966   */\n  0x20\n    /* \"#utility.yul\":952:961   */\n  dup3\n    /* \"#utility.yul\":943:950   */\n  dup5\n    /* \"#utility.yul\":939:962   */\n  sub\n    /* \"#utility.yul\":935:967   */\n  slt\n    /* \"#utility.yul\":932:1051   */\n  iszero\n  tag_74\n  jumpi\n    /* \"#utility.yul\":970:1049   */\n  tag_75\n  tag_52\n  jump\t// in\ntag_75:\n    /* \"#utility.yul\":932:1051   */\ntag_74:\n    /* \"#utility.yul\":1090:1091   */\n  0x00\n    /* \"#utility.yul\":1115:1179   */\n  tag_76\n    /* \"#utility.yul\":1171:1178   */\n  dup5\n    /* \"#utility.yul\":1162:1168   */\n  dup3\n    /* \"#utility.yul\":1151:1160   */\n  dup6\n    /* \"#utility.yul\":1147:1169   */\n  add\n    /* \"#utility.yul\":1115:1179   */\n  tag_57\n  jump\t// in\ntag_76:\n    /* \"#utility.yul\":1105:1179   */\n  swap2\n  pop\n    /* \"#utility.yul\":1061:1189   */\n  pop\n    /* \"#utility.yul\":845:1196   */\n  swap3\n  swap2\n  pop\n  pop\n  jump\t// out\n    /* \"#utility.yul\":1202:1320   */\ntag_58:\n    /* \"#utility.yul\":1289:1313   */\n  tag_78\n    /* \"#utility.yul\":1307:1312   */\n  dup2\n    /* \"#utility.yul\":1289:1313   */\n  tag_55\n  jump\t// in\ntag_78:\n    /* \"#utility.yul\":1284:1287   */\n  dup3\n    /* \"#utility.yul\":1277:1314   */\n  mstore\n    /* \"#utility.yul\":1202:1320   */\n  pop\n  pop\n  jump\t// out\n    /* \"#utility.yul\":1326:1548   */\ntag_9:\n    /* \"#utility.yul\":1419:1423   */\n  0x00\n    /* \"#utility.yul\":1457:1459   */\n  0x20\n    /* \"#utility.yul\":1446:1455   */\n  dup3\n    /* \"#utility.yul\":1442:1460   */\n  add\n    /* \"#utility.yul\":1434:1460   */\n  swap1\n  pop\n    /* \"#utility.yul\":1470:1541   */\n  tag_80\n    /* \"#utility.yul\":1538:1539   */\n  0x00\n    /* \"#utility.yul\":1527:1536   */\n  dup4\n    /* \"#utility.yul\":1523:1540   */\n  add\n    /* \"#utility.yul\":1514:1520   */\n  dup5\n    /* \"#utility.yul\":1470:1541   */\n  tag_58\n  jump\t// in\ntag_80:\n    /* \"#utility.yul\":1326:1548   */\n  swap3\n  swap2\n  pop\n  pop\n  jump\t// out\n    /* \"#utility.yul\":1554:1631   */\ntag_59:\n    /* \"#utility.yul\":1591:1598   */\n  0x00\n    /* \"#utility.yul\":1620:1625   */\n  dup2\n    /* \"#utility.yul\":1609:1625   */\n  swap1\n  pop\n    /* \"#utility.yul\":1554:1631   */\n  swap2\n  swap1\n  pop\n  jump\t// out\n    /* \"#utility.yul\":1637:1755   */\ntag_60:\n    /* \"#utility.yul\":1724:1748   */\n  tag_83\n    /* \"#utility.yul\":1742:1747   */\n  dup2\n    /* \"#utility.yul\":1724:1748   */\n  tag_59\n  jump\t// in\ntag_83:\n    /* \"#utility.yul\":1719:1722   */\n  dup3\n    /* \"#utility.yul\":1712:1749   */\n  mstore\n    /* \"#utility.yul\":1637:1755   */\n  pop\n  pop\n  jump\t// out\n    /* \"#utility.yul\":1761:2093   */\ntag_49:\n    /* \"#utility.yul\":1882:1886   */\n  0x00\n    /* \"#utility.yul\":1920:1922   */\n  0x40\n    /* \"#utility.yul\":1909:1918   */\n  dup3\n    /* \"#utility.yul\":1905:1923   */\n  add\n    /* \"#utility.yul\":1897:1923   */\n  swap1\n  pop\n    /* \"#utility.yul\":1933:2004   */\n  tag_85\n    /* \"#utility.yul\":2001:2002   */\n  0x00\n    /* \"#utility.yul\":1990:1999   */\n  dup4\n    /* \"#utility.yul\":1986:2003   */\n  add\n    /* \"#utility.yul\":1977:1983   */\n  dup6\n    /* \"#utility.yul\":1933:2004   */\n  tag_58\n  jump\t// in\ntag_85:\n    /* \"#utility.yul\":2014:2086   */\n  tag_86\n    /* \"#utility.yul\":2082:2084   */\n  0x20\n    /* \"#utility.yul\":2071:2080   */\n  dup4\n    /* \"#utility.yul\":2067:2085   */\n  add\n    /* \"#utility.yul\":2058:2064   */\n  dup5\n    /* \"#utility.yul\":2014:2086   */\n  tag_60\n  jump\t// in\ntag_86:\n    /* \"#utility.yul\":1761:2093   */\n  swap4\n  swap3\n  pop\n  pop\n  pop\n  jump\t// out\n    /* \"HealthcareDataManagement.sol\":176:3644  contract HealthcareDataManagement is AccessControl, Ownable {... */\ntag_15:\n  dataSize(sub_0)\n  dup1\n  dataOffset(sub_0)\n  0x00\n  codecopy\n  0x00\n  return\nstop\n\nsub_0: assembly {\n        /* \"HealthcareDataManagement.sol\":176:3644  contract HealthcareDataManagement is AccessControl, Ownable {... */\n      mstore(0x40, 0x80)\n      callvalue\n      dup1\n      iszero\n      tag_1\n      jumpi\n      0x00\n      dup1\n      revert\n    tag_1:\n      pop\n      jumpi(tag_2, lt(calldatasize, 0x04))\n      shr(0xe0, calldataload(0x00))\n      dup1\n      0x65dd152c\n      gt\n      tag_22\n      jumpi\n      dup1\n      0xd547741f\n      gt\n      tag_23\n      jumpi\n      dup1\n      0xd547741f\n      eq\n      tag_17\n      jumpi\n      dup1\n      0xd9a5ec1b\n      eq\n      tag_18\n      jumpi\n      dup1\n      0xdb70504b\n      eq\n      tag_19\n      jumpi\n      dup1\n      0xdb979bf8\n      eq\n      tag_20\n      jumpi\n      dup1\n      0xf2fde38b\n      eq\n      tag_21\n      jumpi\n      jump(tag_2)\n    tag_23:\n      dup1\n      0x65dd152c\n      eq\n      tag_12\n      jumpi\n      dup1\n      0x715018a6\n      eq\n      tag_13\n      jumpi\n      dup1\n      0x8da5cb5b\n      eq\n      tag_14\n      jumpi\n      dup1\n      0x91d14854\n      eq\n      tag_15\n      jumpi\n      dup1\n      0xa217fddf\n      eq\n      tag_16\n      jumpi\n      jump(tag_2)\n    tag_22:\n      dup1\n      0x248a9ca3\n      gt\n      tag_24\n      jumpi\n      dup1\n      0x248a9ca3\n      eq\n      tag_7\n      jumpi\n      dup1\n      0x2f2ff15d\n      eq\n      tag_8\n      jumpi\n      dup1\n      0x36568abe\n      eq\n      tag_9\n      jumpi\n      dup1\n      0x45bf10e9\n      eq\n      tag_10\n      jumpi\n      dup1\n      0x552d7105\n      eq\n      tag_11\n      jumpi\n      jump(tag_2)\n    tag_24:\n      dup1\n      0x01ffc9a7\n      eq\n      tag_3\n      jumpi\n      dup1\n      0x03e9e609\n      eq\n      tag_4\n      jumpi\n      dup1\n      0x0402e735\n      eq\n      tag_5\n      jumpi\n      dup1\n      0x0e59b28c\n      eq\n      tag_6\n      jumpi\n    tag_2:\n      0x00\n      dup1\n      revert\n        /* \"@openzeppelin/contracts/access/AccessControl.sol\":2565:2767  function supportsInterface(bytes4 interfaceId) public view virtual override returns (bool) {... */\n    tag_3:\n      tag_25\n      0x04\n      dup1\n      calldatasize\n      sub\n      dup2\n      add\n      swap1\n      tag_26\n      swap2\n      swap1\n      tag_27\n      jump\t// in\n    tag_26:\n      tag_28\n      jump\t// in\n    tag_25:\n      mload(0x40)\n      tag_29\n      swap2\n      swap1\n      tag_30\n      jump\t// in\n    tag_29:\n      mload(0x40)\n      dup1\n      swap2\n      sub\n      swap1\n      return\n        /* \"HealthcareDataManagement.sol\":2599:3117  function getRecord(uint256 recordId) public onlyOwnerOrProvider returns (string memory) {... */\n    tag_4:\n      tag_31\n      0x04\n      dup1\n      calldatasize\n      sub\n      dup2\n      add\n      swap1\n      tag_32\n      swap2\n      swap1\n      tag_33\n      jump\t// in\n    tag_32:\n      tag_34\n      jump\t// in\n    tag_31:\n      mload(0x40)\n      tag_35\n      swap2\n      swap1\n      tag_36\n      jump\t// in\n    tag_35:\n      mload(0x40)\n      dup1\n      swap2\n      sub\n      swap1\n      return\n        /* \"HealthcareDataManagement.sol\":243:331  bytes32 public constant HEALTHCARE_PROVIDER_ROLE = keccak256(\"HEALTHCARE_PROVIDER_ROLE\") */\n    tag_5:\n      tag_37\n      tag_38\n      jump\t// in\n    tag_37:\n      mload(0x40)\n      tag_39\n      swap2\n      swap1\n      tag_40\n      jump\t// in\n    tag_39:\n      mload(0x40)\n      dup1\n      swap2\n      sub\n      swap1\n      return\n        /* \"HealthcareDataManagement.sol\":3263:3397  function removeHealthcareProvider(address provider) public onlyOwner {... */\n    tag_6:\n      tag_41\n      0x04\n      dup1\n      calldatasize\n      sub\n      dup2\n      add\n      swap1\n      tag_42\n      swap2\n      swap1\n      tag_43\n      jump\t// in\n    tag_42:\n      tag_44\n      jump\t// in\n    tag_41:\n      stop\n        /* \"@openzeppelin/contracts/access/AccessControl.sol\":3810:3930  function getRoleAdmin(bytes32 role) public view virtual returns (bytes32) {... */\n    tag_7:\n      tag_45\n      0x04\n      dup1\n      calldatasize\n      sub\n      dup2\n      add\n      swap1\n      tag_46\n      swap2\n      swap1\n      tag_47\n      jump\t// in\n    tag_46:\n      tag_48\n      jump\t// in\n    tag_45:\n      mload(0x40)\n      tag_49\n      swap2\n      swap1\n      tag_40\n      jump\t// in\n    tag_49:\n      mload(0x40)\n      dup1\n      swap2\n      sub\n      swap1\n      return\n        /* \"@openzeppelin/contracts/access/AccessControl.sol\":4226:4362  function grantRole(bytes32 role, address account) public virtual onlyRole(getRoleAdmin(role)) {... */\n    tag_8:\n      tag_50\n      0x04\n      dup1\n      calldatasize\n      sub\n      dup2\n      add\n      swap1\n      tag_51\n      swap2\n      swap1\n      tag_52\n      jump\t// in\n    tag_51:\n      tag_53\n      jump\t// in\n    tag_50:\n      stop\n        /* \"@openzeppelin/contracts/access/AccessControl.sol\":5328:5573  function renounceRole(bytes32 role, address callerConfirmation) public virtual {... */\n    tag_9:\n      tag_54\n      0x04\n      dup1\n      calldatasize\n      sub\n      dup2\n      add\n      swap1\n      tag_55\n      swap2\n      swap1\n      tag_52\n      jump\t// in\n    tag_55:\n      tag_56\n      jump\t// in\n    tag_54:\n      stop\n        /* \"HealthcareDataManagement.sol\":3125:3255  function addHealthcareProvider(address provider) public onlyOwner {... */\n    tag_10:\n      tag_57\n      0x04\n      dup1\n      calldatasize\n      sub\n      dup2\n      add\n      swap1\n      tag_58\n      swap2\n      swap1\n      tag_43\n      jump\t// in\n    tag_58:\n      tag_59\n      jump\t// in\n    tag_57:\n      stop\n        /* \"HealthcareDataManagement.sol\":3515:3641  function getRecordsByOwner(address owner) public view returns (uint256[] memory) {... */\n    tag_11:\n      tag_60\n      0x04\n      dup1\n      calldatasize\n      sub\n      dup2\n      add\n      swap1\n      tag_61\n      swap2\n      swap1\n      tag_43\n      jump\t// in\n    tag_61:\n      tag_62\n      jump\t// in\n    tag_60:\n      mload(0x40)\n      tag_63\n      swap2\n      swap1\n      tag_64\n      jump\t// in\n    tag_63:\n      mload(0x40)\n      dup1\n      swap2\n      sub\n      swap1\n      return\n        /* \"HealthcareDataManagement.sol\":1952:2263  function grantAccess(uint256 recordId, address to) public {... */\n    tag_12:\n      tag_65\n      0x04\n      dup1\n      calldatasize\n      sub\n      dup2\n      add\n      swap1\n      tag_66\n      swap2\n      swap1\n      tag_67\n      jump\t// in\n    tag_66:\n      tag_68\n      jump\t// in\n    tag_65:\n      stop\n        /* \"@openzeppelin/contracts/access/Ownable.sol\":2293:2394  function renounceOwnership() public virtual onlyOwner {... */\n    tag_13:\n      tag_69\n      tag_70\n      jump\t// in\n    tag_69:\n      stop\n        /* \"@openzeppelin/contracts/access/Ownable.sol\":1638:1723  function owner() public view virtual returns (address) {... */\n    tag_14:\n      tag_71\n      tag_72\n      jump\t// in\n    tag_71:\n      mload(0x40)\n      tag_73\n      swap2\n      swap1\n      tag_74\n      jump\t// in\n    tag_73:\n      mload(0x40)\n      dup1\n      swap2\n      sub\n      swap1\n      return\n        /* \"@openzeppelin/contracts/access/AccessControl.sol\":2854:2990  function hasRole(bytes32 role, address account) public view virtual returns (bool) {... */\n    tag_15:\n      tag_75\n      0x04\n      dup1\n      calldatasize\n      sub\n      dup2\n      add\n      swap1\n      tag_76\n      swap2\n      swap1\n      tag_52\n      jump\t// in\n    tag_76:\n      tag_77\n      jump\t// in\n    tag_75:\n      mload(0x40)\n      tag_78\n      swap2\n      swap1\n      tag_30\n      jump\t// in\n    tag_78:\n      mload(0x40)\n      dup1\n      swap2\n      sub\n      swap1\n      return\n        /* \"@openzeppelin/contracts/access/AccessControl.sol\":2187:2236  bytes32 public constant DEFAULT_ADMIN_ROLE = 0x00 */\n    tag_16:\n      tag_79\n      tag_80\n      jump\t// in\n    tag_79:\n      mload(0x40)\n      tag_81\n      swap2\n      swap1\n      tag_40\n      jump\t// in\n    tag_81:\n      mload(0x40)\n      dup1\n      swap2\n      sub\n      swap1\n      return\n        /* \"@openzeppelin/contracts/access/AccessControl.sol\":4642:4780  function revokeRole(bytes32 role, address account) public virtual onlyRole(getRoleAdmin(role)) {... */\n    tag_17:\n      tag_82\n      0x04\n      dup1\n      calldatasize\n      sub\n      dup2\n      add\n      swap1\n      tag_83\n      swap2\n      swap1\n      tag_52\n      jump\t// in\n    tag_83:\n      tag_84\n      jump\t// in\n    tag_82:\n      stop\n        /* \"HealthcareDataManagement.sol\":2271:2591  function revokeAccess(uint256 recordId, address from) public {... */\n    tag_18:\n      tag_85\n      0x04\n      dup1\n      calldatasize\n      sub\n      dup2\n      add\n      swap1\n      tag_86\n      swap2\n      swap1\n      tag_67\n      jump\t// in\n    tag_86:\n      tag_87\n      jump\t// in\n    tag_85:\n      stop\n        /* \"HealthcareDataManagement.sol\":1663:1944  function createRecord(string memory dataHash) public {... */\n    tag_19:\n      tag_88\n      0x04\n      dup1\n      calldatasize\n      sub\n      dup2\n      add\n      swap1\n      tag_89\n      swap2\n      swap1\n      tag_90\n      jump\t// in\n    tag_89:\n      tag_91\n      jump\t// in\n    tag_88:\n      stop\n        /* \"HealthcareDataManagement.sol\":3405:3507  function getAccessLogs() public view returns (AccessLog[] memory) {... */\n    tag_20:\n      tag_92\n      tag_93\n      jump\t// in\n    tag_92:\n      mload(0x40)\n      tag_94\n      swap2\n      swap1\n      tag_95\n      jump\t// in\n    tag_94:\n      mload(0x40)\n      dup1\n      swap2\n      sub\n      swap1\n      return\n        /* \"@openzeppelin/contracts/access/Ownable.sol\":2543:2758  function transferOwnership(address newOwner) public virtual onlyOwner {... */\n    tag_21:\n      tag_96\n      0x04\n      dup1\n      calldatasize\n      sub\n      dup2\n      add\n      swap1\n      tag_97\n      swap2\n      swap1\n      tag_43\n      jump\t// in\n    tag_97:\n      tag_98\n      jump\t// in\n    tag_96:\n      stop\n        /* \"@openzeppelin/contracts/access/AccessControl.sol\":2565:2767  function supportsInterface(bytes4 interfaceId) public view virtual override returns (bool) {... */\n    tag_28:\n        /* \"@openzeppelin/contracts/access/AccessControl.sol\":2650:2654  bool */\n      0x00\n        /* \"@openzeppelin/contracts/access/AccessControl.sol\":2688:2720  type(IAccessControl).interfaceId */\n      0x7965db0b00000000000000000000000000000000000000000000000000000000\n        /* \"@openzeppelin/contracts/access/AccessControl.sol\":2673:2720  interfaceId == type(IAccessControl).interfaceId */\n      not(0xffffffffffffffffffffffffffffffffffffffffffffffffffffffff)\n      and\n        /* \"@openzeppelin/contracts/access/AccessControl.sol\":2673:2684  interfaceId */\n      dup3\n        /* \"@openzeppelin/contracts/access/AccessControl.sol\":2673:2720  interfaceId == type(IAccessControl).interfaceId */\n      not(0xffffffffffffffffffffffffffffffffffffffffffffffffffffffff)\n      and\n      eq\n        /* \"@openzeppelin/contracts/access/AccessControl.sol\":2673:2760  interfaceId == type(IAccessControl).interfaceId || super.supportsInterface(interfaceId) */\n      dup1\n      tag_100\n      jumpi\n      pop\n        /* \"@openzeppelin/contracts/access/AccessControl.sol\":2724:2760  super.supportsInterface(interfaceId) */\n      tag_101\n        /* \"@openzeppelin/contracts/access/AccessControl.sol\":2748:2759  interfaceId */\n      dup3\n        /* \"@openzeppelin/contracts/access/AccessControl.sol\":2724:2747  super.supportsInterface */\n      tag_102\n        /* \"@openzeppelin/contracts/access/AccessControl.sol\":2724:2760  super.supportsInterface(interfaceId) */\n      jump\t// in\n    tag_101:\n        /* \"@openzeppelin/contracts/access/AccessControl.sol\":2673:2760  interfaceId == type(IAccessControl).interfaceId || super.supportsInterface(interfaceId) */\n    tag_100:\n        /* \"@openzeppelin/contracts/access/AccessControl.sol\":2666:2760  return interfaceId == type(IAccessControl).interfaceId || super.supportsInterface(interfaceId) */\n      swap1\n      pop\n        /* \"@openzeppelin/contracts/access/AccessControl.sol\":2565:2767  function supportsInterface(bytes4 interfaceId) public view virtual override returns (bool) {... */\n      swap2\n      swap1\n      pop\n      jump\t// out\n        /* \"HealthcareDataManagement.sol\":2599:3117  function getRecord(uint256 recordId) public onlyOwnerOrProvider returns (string memory) {... */\n    tag_34:\n        /* \"HealthcareDataManagement.sol\":2672:2685  string memory */\n      0x60\n        /* \"HealthcareDataManagement.sol\":1480:1525  hasRole(HEALTHCARE_PROVIDER_ROLE, msg.sender) */\n      tag_104\n        /* \"HealthcareDataManagement.sol\":294:331  keccak256(\"HEALTHCARE_PROVIDER_ROLE\") */\n      0x8825c62207077c41710fe5144a6467477a643e911c9ab3785826111f7c94ed8b\n        /* \"HealthcareDataManagement.sol\":1514:1524  msg.sender */\n      caller\n        /* \"HealthcareDataManagement.sol\":1480:1487  hasRole */\n      tag_77\n        /* \"HealthcareDataManagement.sol\":1480:1525  hasRole(HEALTHCARE_PROVIDER_ROLE, msg.sender) */\n      jump\t// in\n    tag_104:\n        /* \"HealthcareDataManagement.sol\":1480:1550  hasRole(HEALTHCARE_PROVIDER_ROLE, msg.sender) || owner() == msg.sender */\n      dup1\n      tag_105\n      jumpi\n      pop\n        /* \"HealthcareDataManagement.sol\":1540:1550  msg.sender */\n      caller\n        /* \"HealthcareDataManagement.sol\":1529:1550  owner() == msg.sender */\n      0xffffffffffffffffffffffffffffffffffffffff\n      and\n        /* \"HealthcareDataManagement.sol\":1529:1536  owner() */\n      tag_106\n        /* \"HealthcareDataManagement.sol\":1529:1534  owner */\n      tag_72\n        /* \"HealthcareDataManagement.sol\":1529:1536  owner() */\n      jump\t// in\n    tag_106:\n        /* \"HealthcareDataManagement.sol\":1529:1550  owner() == msg.sender */\n      0xffffffffffffffffffffffffffffffffffffffff\n      and\n      eq\n        /* \"HealthcareDataManagement.sol\":1480:1550  hasRole(HEALTHCARE_PROVIDER_ROLE, msg.sender) || owner() == msg.sender */\n    tag_105:\n        /* \"HealthcareDataManagement.sol\":1458:1635  require(... */\n      tag_107\n      jumpi\n      mload(0x40)\n      0x08c379a000000000000000000000000000000000000000000000000000000000\n      dup2\n      mstore\n      0x04\n      add\n      tag_108\n      swap1\n      tag_109\n      jump\t// in\n    tag_108:\n      mload(0x40)\n      dup1\n      swap2\n      sub\n      swap1\n      revert\n    tag_107:\n        /* \"HealthcareDataManagement.sol\":2706:2713  records */\n      0x02\n        /* \"HealthcareDataManagement.sol\":2706:2723  records[recordId] */\n      0x00\n        /* \"HealthcareDataManagement.sol\":2714:2722  recordId */\n      dup4\n        /* \"HealthcareDataManagement.sol\":2706:2723  records[recordId] */\n      dup2\n      mstore\n      0x20\n      add\n      swap1\n      dup2\n      mstore\n      0x20\n      add\n      0x00\n      keccak256\n        /* \"HealthcareDataManagement.sol\":2706:2730  records[recordId].exists */\n      0x02\n      add\n      0x14\n      swap1\n      sload\n      swap1\n      0x0100\n      exp\n      swap1\n      div\n      0xff\n      and\n        /* \"HealthcareDataManagement.sol\":2698:2756  require(records[recordId].exists, \"Record does not exist\") */\n      tag_111\n      jumpi\n      mload(0x40)\n      0x08c379a000000000000000000000000000000000000000000000000000000000\n      dup2\n      mstore\n      0x04\n      add\n      tag_112\n      swap1\n      tag_113\n      jump\t// in\n    tag_112:\n      mload(0x40)\n      dup1\n      swap2\n      sub\n      swap1\n      revert\n    tag_111:\n        /* \"HealthcareDataManagement.sol\":2789:2802  accessControl */\n      0x04\n        /* \"HealthcareDataManagement.sol\":2789:2814  accessControl[msg.sender] */\n      0x00\n        /* \"HealthcareDataManagement.sol\":2803:2813  msg.sender */\n      caller\n        /* \"HealthcareDataManagement.sol\":2789:2814  accessControl[msg.sender] */\n      0xffffffffffffffffffffffffffffffffffffffff\n      and\n      0xffffffffffffffffffffffffffffffffffffffff\n      and\n      dup2\n      mstore\n      0x20\n      add\n      swap1\n      dup2\n      mstore\n      0x20\n      add\n      0x00\n      keccak256\n        /* \"HealthcareDataManagement.sol\":2789:2824  accessControl[msg.sender][recordId] */\n      0x00\n        /* \"HealthcareDataManagement.sol\":2815:2823  recordId */\n      dup4\n        /* \"HealthcareDataManagement.sol\":2789:2824  accessControl[msg.sender][recordId] */\n      dup2\n      mstore\n      0x20\n      add\n      swap1\n      dup2\n      mstore\n      0x20\n      add\n      0x00\n      keccak256\n      0x00\n      swap1\n      sload\n      swap1\n      0x0100\n      exp\n      swap1\n      div\n      0xff\n      and\n        /* \"HealthcareDataManagement.sol\":2789:2865  accessControl[msg.sender][recordId] || records[recordId].owner == msg.sender */\n      dup1\n      tag_114\n      jumpi\n      pop\n        /* \"HealthcareDataManagement.sol\":2855:2865  msg.sender */\n      caller\n        /* \"HealthcareDataManagement.sol\":2828:2865  records[recordId].owner == msg.sender */\n      0xffffffffffffffffffffffffffffffffffffffff\n      and\n        /* \"HealthcareDataManagement.sol\":2828:2835  records */\n      0x02\n        /* \"HealthcareDataManagement.sol\":2828:2845  records[recordId] */\n      0x00\n        /* \"HealthcareDataManagement.sol\":2836:2844  recordId */\n      dup5\n        /* \"HealthcareDataManagement.sol\":2828:2845  records[recordId] */\n      dup2\n      mstore\n      0x20\n      add\n      swap1\n      dup2\n      mstore\n      0x20\n      add\n      0x00\n      keccak256\n        /* \"HealthcareDataManagement.sol\":2828:2851  records[recordId].owner */\n      0x02\n      add\n      0x00\n      swap1\n      sload\n      swap1\n      0x0100\n      exp\n      swap1\n      div\n      0xffffffffffffffffffffffffffffffffffffffff\n      and\n        /* \"HealthcareDataManagement.sol\":2828:2865  records[recordId].owner == msg.sender */\n      0xffffffffffffffffffffffffffffffffffffffff\n      and\n      eq\n        /* \"HealthcareDataManagement.sol\":2789:2865  accessControl[msg.sender][recordId] || records[recordId].owner == msg.sender */\n    tag_114:\n        /* \"HealthcareDataManagement.sol\":2767:2906  require(... */\n      tag_115\n      jumpi\n      mload(0x40)\n      0x08c379a000000000000000000000000000000000000000000000000000000000\n      dup2\n      mstore\n      0x04\n      add\n      tag_116\n      swap1\n      tag_117\n      jump\t// in\n    tag_116:\n      mload(0x40)\n      dup1\n      swap2\n      sub\n      swap1\n      revert\n    tag_115:\n        /* \"HealthcareDataManagement.sol\":2946:2956  accessLogs */\n      0x05\n        /* \"HealthcareDataManagement.sol\":2962:3010  AccessLog(recordId, msg.sender, block.timestamp) */\n      mload(0x40)\n      dup1\n      0x60\n      add\n      0x40\n      mstore\n      dup1\n        /* \"HealthcareDataManagement.sol\":2972:2980  recordId */\n      dup5\n        /* \"HealthcareDataManagement.sol\":2962:3010  AccessLog(recordId, msg.sender, block.timestamp) */\n      dup2\n      mstore\n      0x20\n      add\n        /* \"HealthcareDataManagement.sol\":2982:2992  msg.sender */\n      caller\n        /* \"HealthcareDataManagement.sol\":2962:3010  AccessLog(recordId, msg.sender, block.timestamp) */\n      0xffffffffffffffffffffffffffffffffffffffff\n      and\n      dup2\n      mstore\n      0x20\n      add\n        /* \"HealthcareDataManagement.sol\":2994:3009  block.timestamp */\n      timestamp\n        /* \"HealthcareDataManagement.sol\":2962:3010  AccessLog(recordId, msg.sender, block.timestamp) */\n      dup2\n      mstore\n      pop\n        /* \"HealthcareDataManagement.sol\":2946:3011  accessLogs.push(AccessLog(recordId, msg.sender, block.timestamp)) */\n      swap1\n      dup1\n      0x01\n      dup2\n      sload\n      add\n      dup1\n      dup3\n      sstore\n      dup1\n      swap2\n      pop\n      pop\n      0x01\n      swap1\n      sub\n      swap1\n      0x00\n      mstore\n      keccak256(0x00, 0x20)\n      swap1\n      0x03\n      mul\n      add\n      0x00\n      swap1\n      swap2\n      swap1\n      swap2\n      swap1\n      swap2\n      pop\n      0x00\n      dup3\n      add\n      mload\n      dup2\n      0x00\n      add\n      sstore\n      0x20\n      dup3\n      add\n      mload\n      dup2\n      0x01\n      add\n      exp(0x0100, 0x00)\n      dup2\n      sload\n      dup2\n      0xffffffffffffffffffffffffffffffffffffffff\n      mul\n      not\n      and\n      swap1\n      dup4\n      0xffffffffffffffffffffffffffffffffffffffff\n      and\n      mul\n      or\n      swap1\n      sstore\n      pop\n      0x40\n      dup3\n      add\n      mload\n      dup2\n      0x02\n      add\n      sstore\n      pop\n      pop\n        /* \"HealthcareDataManagement.sol\":3027:3063  RecordAccessed(recordId, msg.sender) */\n      0x980d15b088d1127894ac6300da68467873935cb71f64d1ff99f85614bf474c6c\n        /* \"HealthcareDataManagement.sol\":3042:3050  recordId */\n      dup3\n        /* \"HealthcareDataManagement.sol\":3052:3062  msg.sender */\n      caller\n        /* \"HealthcareDataManagement.sol\":3027:3063  RecordAccessed(recordId, msg.sender) */\n      mload(0x40)\n      tag_119\n      swap3\n      swap2\n      swap1\n      tag_120\n      jump\t// in\n    tag_119:\n      mload(0x40)\n      dup1\n      swap2\n      sub\n      swap1\n      log1\n        /* \"HealthcareDataManagement.sol\":3083:3090  records */\n      0x02\n        /* \"HealthcareDataManagement.sol\":3083:3100  records[recordId] */\n      0x00\n        /* \"HealthcareDataManagement.sol\":3091:3099  recordId */\n      dup4\n        /* \"HealthcareDataManagement.sol\":3083:3100  records[recordId] */\n      dup2\n      mstore\n      0x20\n      add\n      swap1\n      dup2\n      mstore\n      0x20\n      add\n      0x00\n      keccak256\n        /* \"HealthcareDataManagement.sol\":3083:3109  records[recordId].dataHash */\n      0x01\n      add\n        /* \"HealthcareDataManagement.sol\":3076:3109  return records[recordId].dataHash */\n      dup1\n      sload\n      tag_121\n      swap1\n      tag_122\n      jump\t// in\n    tag_121:\n      dup1\n      0x1f\n      add\n      0x20\n      dup1\n      swap2\n      div\n      mul\n      0x20\n      add\n      mload(0x40)\n      swap1\n      dup2\n      add\n      0x40\n      mstore\n      dup1\n      swap3\n      swap2\n      swap1\n      dup2\n      dup2\n      mstore\n      0x20\n      add\n      dup3\n      dup1\n      sload\n      tag_123\n      swap1\n      tag_122\n      jump\t// in\n    tag_123:\n      dup1\n      iszero\n      tag_124\n      jumpi\n      dup1\n      0x1f\n      lt\n      tag_125\n      jumpi\n      0x0100\n      dup1\n      dup4\n      sload\n      div\n      mul\n      dup4\n      mstore\n      swap2\n      0x20\n      add\n      swap2\n      jump(tag_124)\n    tag_125:\n      dup3\n      add\n      swap2\n      swap1\n      0x00\n      mstore\n      keccak256(0x00, 0x20)\n      swap1\n    tag_126:\n      dup2\n      sload\n      dup2\n      mstore\n      swap1\n      0x01\n      add\n      swap1\n      0x20\n      add\n      dup1\n      dup4\n      gt\n      tag_126\n      jumpi\n      dup3\n      swap1\n      sub\n      0x1f\n      and\n      dup3\n      add\n      swap2\n    tag_124:\n      pop\n      pop\n      pop\n      pop\n      pop\n      swap1\n      pop\n        /* \"HealthcareDataManagement.sol\":2599:3117  function getRecord(uint256 recordId) public onlyOwnerOrProvider returns (string memory) {... */\n      swap2\n      swap1\n      pop\n      jump\t// out\n        /* \"HealthcareDataManagement.sol\":243:331  bytes32 public constant HEALTHCARE_PROVIDER_ROLE = keccak256(\"HEALTHCARE_PROVIDER_ROLE\") */\n    tag_38:\n        /* \"HealthcareDataManagement.sol\":294:331  keccak256(\"HEALTHCARE_PROVIDER_ROLE\") */\n      0x8825c62207077c41710fe5144a6467477a643e911c9ab3785826111f7c94ed8b\n        /* \"HealthcareDataManagement.sol\":243:331  bytes32 public constant HEALTHCARE_PROVIDER_ROLE = keccak256(\"HEALTHCARE_PROVIDER_ROLE\") */\n      dup2\n      jump\t// out\n        /* \"HealthcareDataManagement.sol\":3263:3397  function removeHealthcareProvider(address provider) public onlyOwner {... */\n    tag_44:\n        /* \"@openzeppelin/contracts/access/Ownable.sol\":1531:1544  _checkOwner() */\n      tag_128\n        /* \"@openzeppelin/contracts/access/Ownable.sol\":1531:1542  _checkOwner */\n      tag_129\n        /* \"@openzeppelin/contracts/access/Ownable.sol\":1531:1544  _checkOwner() */\n      jump\t// in\n    tag_128:\n        /* \"HealthcareDataManagement.sol\":3343:3389  revokeRole(HEALTHCARE_PROVIDER_ROLE, provider) */\n      tag_131\n        /* \"HealthcareDataManagement.sol\":294:331  keccak256(\"HEALTHCARE_PROVIDER_ROLE\") */\n      0x8825c62207077c41710fe5144a6467477a643e911c9ab3785826111f7c94ed8b\n        /* \"HealthcareDataManagement.sol\":3380:3388  provider */\n      dup3\n        /* \"HealthcareDataManagement.sol\":3343:3353  revokeRole */\n      tag_84\n        /* \"HealthcareDataManagement.sol\":3343:3389  revokeRole(HEALTHCARE_PROVIDER_ROLE, provider) */\n      jump\t// in\n    tag_131:\n        /* \"HealthcareDataManagement.sol\":3263:3397  function removeHealthcareProvider(address provider) public onlyOwner {... */\n      pop\n      jump\t// out\n        /* \"@openzeppelin/contracts/access/AccessControl.sol\":3810:3930  function getRoleAdmin(bytes32 role) public view virtual returns (bytes32) {... */\n    tag_48:\n        /* \"@openzeppelin/contracts/access/AccessControl.sol\":3875:3882  bytes32 */\n      0x00\n        /* \"@openzeppelin/contracts/access/AccessControl.sol\":3901:3907  _roles */\n      dup1\n        /* \"@openzeppelin/contracts/access/AccessControl.sol\":3901:3913  _roles[role] */\n      0x00\n        /* \"@openzeppelin/contracts/access/AccessControl.sol\":3908:3912  role */\n      dup4\n        /* \"@openzeppelin/contracts/access/AccessControl.sol\":3901:3913  _roles[role] */\n      dup2\n      mstore\n      0x20\n      add\n      swap1\n      dup2\n      mstore\n      0x20\n      add\n      0x00\n      keccak256\n        /* \"@openzeppelin/contracts/access/AccessControl.sol\":3901:3923  _roles[role].adminRole */\n      0x01\n      add\n      sload\n        /* \"@openzeppelin/contracts/access/AccessControl.sol\":3894:3923  return _roles[role].adminRole */\n      swap1\n      pop\n        /* \"@openzeppelin/contracts/access/AccessControl.sol\":3810:3930  function getRoleAdmin(bytes32 role) public view virtual returns (bytes32) {... */\n      swap2\n      swap1\n      pop\n      jump\t// out\n        /* \"@openzeppelin/contracts/access/AccessControl.sol\":4226:4362  function grantRole(bytes32 role, address account) public virtual onlyRole(getRoleAdmin(role)) {... */\n    tag_53:\n        /* \"@openzeppelin/contracts/access/AccessControl.sol\":4300:4318  getRoleAdmin(role) */\n      tag_133\n        /* \"@openzeppelin/contracts/access/AccessControl.sol\":4313:4317  role */\n      dup3\n        /* \"@openzeppelin/contracts/access/AccessControl.sol\":4300:4312  getRoleAdmin */\n      tag_48\n        /* \"@openzeppelin/contracts/access/AccessControl.sol\":4300:4318  getRoleAdmin(role) */\n      jump\t// in\n    tag_133:\n        /* \"@openzeppelin/contracts/access/AccessControl.sol\":2464:2480  _checkRole(role) */\n      tag_135\n        /* \"@openzeppelin/contracts/access/AccessControl.sol\":2475:2479  role */\n      dup2\n        /* \"@openzeppelin/contracts/access/AccessControl.sol\":2464:2474  _checkRole */\n      tag_136\n        /* \"@openzeppelin/contracts/access/AccessControl.sol\":2464:2480  _checkRole(role) */\n      jump\t// in\n    tag_135:\n        /* \"@openzeppelin/contracts/access/AccessControl.sol\":4330:4355  _grantRole(role, account) */\n      tag_138\n        /* \"@openzeppelin/contracts/access/AccessControl.sol\":4341:4345  role */\n      dup4\n        /* \"@openzeppelin/contracts/access/AccessControl.sol\":4347:4354  account */\n      dup4\n        /* \"@openzeppelin/contracts/access/AccessControl.sol\":4330:4340  _grantRole */\n      tag_139\n        /* \"@openzeppelin/contracts/access/AccessControl.sol\":4330:4355  _grantRole(role, account) */\n      jump\t// in\n    tag_138:\n      pop\n        /* \"@openzeppelin/contracts/access/AccessControl.sol\":4226:4362  function grantRole(bytes32 role, address account) public virtual onlyRole(getRoleAdmin(role)) {... */\n      pop\n      pop\n      pop\n      jump\t// out\n        /* \"@openzeppelin/contracts/access/AccessControl.sol\":5328:5573  function renounceRole(bytes32 role, address callerConfirmation) public virtual {... */\n    tag_56:\n        /* \"@openzeppelin/contracts/access/AccessControl.sol\":5443:5455  _msgSender() */\n      tag_141\n        /* \"@openzeppelin/contracts/access/AccessControl.sol\":5443:5453  _msgSender */\n      tag_142\n        /* \"@openzeppelin/contracts/access/AccessControl.sol\":5443:5455  _msgSender() */\n      jump\t// in\n    tag_141:\n        /* \"@openzeppelin/contracts/access/AccessControl.sol\":5421:5455  callerConfirmation != _msgSender() */\n      0xffffffffffffffffffffffffffffffffffffffff\n      and\n        /* \"@openzeppelin/contracts/access/AccessControl.sol\":5421:5439  callerConfirmation */\n      dup2\n        /* \"@openzeppelin/contracts/access/AccessControl.sol\":5421:5455  callerConfirmation != _msgSender() */\n      0xffffffffffffffffffffffffffffffffffffffff\n      and\n      eq\n        /* \"@openzeppelin/contracts/access/AccessControl.sol\":5417:5519  if (callerConfirmation != _msgSender()) {... */\n      tag_143\n      jumpi\n        /* \"@openzeppelin/contracts/access/AccessControl.sol\":5478:5508  AccessControlBadConfirmation() */\n      mload(0x40)\n      0x6697b23200000000000000000000000000000000000000000000000000000000\n      dup2\n      mstore\n      0x04\n      add\n      mload(0x40)\n      dup1\n      swap2\n      sub\n      swap1\n      revert\n        /* \"@openzeppelin/contracts/access/AccessControl.sol\":5417:5519  if (callerConfirmation != _msgSender()) {... */\n    tag_143:\n        /* \"@openzeppelin/contracts/access/AccessControl.sol\":5529:5566  _revokeRole(role, callerConfirmation) */\n      tag_144\n        /* \"@openzeppelin/contracts/access/AccessControl.sol\":5541:5545  role */\n      dup3\n        /* \"@openzeppelin/contracts/access/AccessControl.sol\":5547:5565  callerConfirmation */\n      dup3\n        /* \"@openzeppelin/contracts/access/AccessControl.sol\":5529:5540  _revokeRole */\n      tag_145\n        /* \"@openzeppelin/contracts/access/AccessControl.sol\":5529:5566  _revokeRole(role, callerConfirmation) */\n      jump\t// in\n    tag_144:\n      pop\n        /* \"@openzeppelin/contracts/access/AccessControl.sol\":5328:5573  function renounceRole(bytes32 role, address callerConfirmation) public virtual {... */\n      pop\n      pop\n      jump\t// out\n        /* \"HealthcareDataManagement.sol\":3125:3255  function addHealthcareProvider(address provider) public onlyOwner {... */\n    tag_59:\n        /* \"@openzeppelin/contracts/access/Ownable.sol\":1531:1544  _checkOwner() */\n      tag_147\n        /* \"@openzeppelin/contracts/access/Ownable.sol\":1531:1542  _checkOwner */\n      tag_129\n        /* \"@openzeppelin/contracts/access/Ownable.sol\":1531:1544  _checkOwner() */\n      jump\t// in\n    tag_147:\n        /* \"HealthcareDataManagement.sol\":3202:3247  grantRole(HEALTHCARE_PROVIDER_ROLE, provider) */\n      tag_149\n        /* \"HealthcareDataManagement.sol\":294:331  keccak256(\"HEALTHCARE_PROVIDER_ROLE\") */\n      0x8825c62207077c41710fe5144a6467477a643e911c9ab3785826111f7c94ed8b\n        /* \"HealthcareDataManagement.sol\":3238:3246  provider */\n      dup3\n        /* \"HealthcareDataManagement.sol\":3202:3211  grantRole */\n      tag_53\n        /* \"HealthcareDataManagement.sol\":3202:3247  grantRole(HEALTHCARE_PROVIDER_ROLE, provider) */\n      jump\t// in\n    tag_149:\n        /* \"HealthcareDataManagement.sol\":3125:3255  function addHealthcareProvider(address provider) public onlyOwner {... */\n      pop\n      jump\t// out\n        /* \"HealthcareDataManagement.sol\":3515:3641  function getRecordsByOwner(address owner) public view returns (uint256[] memory) {... */\n    tag_62:\n        /* \"HealthcareDataManagement.sol\":3578:3594  uint256[] memory */\n      0x60\n        /* \"HealthcareDataManagement.sol\":3614:3626  ownerRecords */\n      0x03\n        /* \"HealthcareDataManagement.sol\":3614:3633  ownerRecords[owner] */\n      0x00\n        /* \"HealthcareDataManagement.sol\":3627:3632  owner */\n      dup4\n        /* \"HealthcareDataManagement.sol\":3614:3633  ownerRecords[owner] */\n      0xffffffffffffffffffffffffffffffffffffffff\n      and\n      0xffffffffffffffffffffffffffffffffffffffff\n      and\n      dup2\n      mstore\n      0x20\n      add\n      swap1\n      dup2\n      mstore\n      0x20\n      add\n      0x00\n      keccak256\n        /* \"HealthcareDataManagement.sol\":3607:3633  return ownerRecords[owner] */\n      dup1\n      sload\n      dup1\n      0x20\n      mul\n      0x20\n      add\n      mload(0x40)\n      swap1\n      dup2\n      add\n      0x40\n      mstore\n      dup1\n      swap3\n      swap2\n      swap1\n      dup2\n      dup2\n      mstore\n      0x20\n      add\n      dup3\n      dup1\n      sload\n      dup1\n      iszero\n      tag_151\n      jumpi\n      0x20\n      mul\n      dup3\n      add\n      swap2\n      swap1\n      0x00\n      mstore\n      keccak256(0x00, 0x20)\n      swap1\n    tag_152:\n      dup2\n      sload\n      dup2\n      mstore\n      0x20\n      add\n      swap1\n      0x01\n      add\n      swap1\n      dup1\n      dup4\n      gt\n      tag_152\n      jumpi\n    tag_151:\n      pop\n      pop\n      pop\n      pop\n      pop\n      swap1\n      pop\n        /* \"HealthcareDataManagement.sol\":3515:3641  function getRecordsByOwner(address owner) public view returns (uint256[] memory) {... */\n      swap2\n      swap1\n      pop\n      jump\t// out\n        /* \"HealthcareDataManagement.sol\":1952:2263  function grantAccess(uint256 recordId, address to) public {... */\n    tag_68:\n        /* \"HealthcareDataManagement.sol\":2029:2036  records */\n      0x02\n        /* \"HealthcareDataManagement.sol\":2029:2046  records[recordId] */\n      0x00\n        /* \"HealthcareDataManagement.sol\":2037:2045  recordId */\n      dup4\n        /* \"HealthcareDataManagement.sol\":2029:2046  records[recordId] */\n      dup2\n      mstore\n      0x20\n      add\n      swap1\n      dup2\n      mstore\n      0x20\n      add\n      0x00\n      keccak256\n        /* \"HealthcareDataManagement.sol\":2029:2053  records[recordId].exists */\n      0x02\n      add\n      0x14\n      swap1\n      sload\n      swap1\n      0x0100\n      exp\n      swap1\n      div\n      0xff\n      and\n        /* \"HealthcareDataManagement.sol\":2021:2079  require(records[recordId].exists, \"Record does not exist\") */\n      tag_154\n      jumpi\n      mload(0x40)\n      0x08c379a000000000000000000000000000000000000000000000000000000000\n      dup2\n      mstore\n      0x04\n      add\n      tag_155\n      swap1\n      tag_113\n      jump\t// in\n    tag_155:\n      mload(0x40)\n      dup1\n      swap2\n      sub\n      swap1\n      revert\n    tag_154:\n        /* \"HealthcareDataManagement.sol\":2125:2135  msg.sender */\n      caller\n        /* \"HealthcareDataManagement.sol\":2098:2135  records[recordId].owner == msg.sender */\n      0xffffffffffffffffffffffffffffffffffffffff\n      and\n        /* \"HealthcareDataManagement.sol\":2098:2105  records */\n      0x02\n        /* \"HealthcareDataManagement.sol\":2098:2115  records[recordId] */\n      0x00\n        /* \"HealthcareDataManagement.sol\":2106:2114  recordId */\n      dup5\n        /* \"HealthcareDataManagement.sol\":2098:2115  records[recordId] */\n      dup2\n      mstore\n      0x20\n      add\n      swap1\n      dup2\n      mstore\n      0x20\n      add\n      0x00\n      keccak256\n        /* \"HealthcareDataManagement.sol\":2098:2121  records[recordId].owner */\n      0x02\n      add\n      0x00\n      swap1\n      sload\n      swap1\n      0x0100\n      exp\n      swap1\n      div\n      0xffffffffffffffffffffffffffffffffffffffff\n      and\n        /* \"HealthcareDataManagement.sol\":2098:2135  records[recordId].owner == msg.sender */\n      0xffffffffffffffffffffffffffffffffffffffff\n      and\n      eq\n        /* \"HealthcareDataManagement.sol\":2090:2167  require(records[recordId].owner == msg.sender, \"Only owner can grant access\") */\n      tag_156\n      jumpi\n      mload(0x40)\n      0x08c379a000000000000000000000000000000000000000000000000000000000\n      dup2\n      mstore\n      0x04\n      add\n      tag_157\n      swap1\n      tag_158\n      jump\t// in\n    tag_157:\n      mload(0x40)\n      dup1\n      swap2\n      sub\n      swap1\n      revert\n    tag_156:\n        /* \"HealthcareDataManagement.sol\":2208:2212  true */\n      0x01\n        /* \"HealthcareDataManagement.sol\":2178:2191  accessControl */\n      0x04\n        /* \"HealthcareDataManagement.sol\":2178:2195  accessControl[to] */\n      0x00\n        /* \"HealthcareDataManagement.sol\":2192:2194  to */\n      dup4\n        /* \"HealthcareDataManagement.sol\":2178:2195  accessControl[to] */\n      0xffffffffffffffffffffffffffffffffffffffff\n      and\n      0xffffffffffffffffffffffffffffffffffffffff\n      and\n      dup2\n      mstore\n      0x20\n      add\n      swap1\n      dup2\n      mstore\n      0x20\n      add\n      0x00\n      keccak256\n        /* \"HealthcareDataManagement.sol\":2178:2205  accessControl[to][recordId] */\n      0x00\n        /* \"HealthcareDataManagement.sol\":2196:2204  recordId */\n      dup5\n        /* \"HealthcareDataManagement.sol\":2178:2205  accessControl[to][recordId] */\n      dup2\n      mstore\n      0x20\n      add\n      swap1\n      dup2\n      mstore\n      0x20\n      add\n      0x00\n      keccak256\n      0x00\n        /* \"HealthcareDataManagement.sol\":2178:2212  accessControl[to][recordId] = true */\n      0x0100\n      exp\n      dup2\n      sload\n      dup2\n      0xff\n      mul\n      not\n      and\n      swap1\n      dup4\n      iszero\n      iszero\n      mul\n      or\n      swap1\n      sstore\n      pop\n        /* \"HealthcareDataManagement.sol\":2228:2255  AccessGranted(recordId, to) */\n      0x3c3a9147a1fc73dd51a32f4d10c43d457e8cb826eb6f35cac6349eb965ba82b4\n        /* \"HealthcareDataManagement.sol\":2242:2250  recordId */\n      dup3\n        /* \"HealthcareDataManagement.sol\":2252:2254  to */\n      dup3\n        /* \"HealthcareDataManagement.sol\":2228:2255  AccessGranted(recordId, to) */\n      mload(0x40)\n      tag_159\n      swap3\n      swap2\n      swap1\n      tag_120\n      jump\t// in\n    tag_159:\n      mload(0x40)\n      dup1\n      swap2\n      sub\n      swap1\n      log1\n        /* \"HealthcareDataManagement.sol\":1952:2263  function grantAccess(uint256 recordId, address to) public {... */\n      pop\n      pop\n      jump\t// out\n        /* \"@openzeppelin/contracts/access/Ownable.sol\":2293:2394  function renounceOwnership() public virtual onlyOwner {... */\n    tag_70:\n        /* \"@openzeppelin/contracts/access/Ownable.sol\":1531:1544  _checkOwner() */\n      tag_161\n        /* \"@openzeppelin/contracts/access/Ownable.sol\":1531:1542  _checkOwner */\n      tag_129\n        /* \"@openzeppelin/contracts/access/Ownable.sol\":1531:1544  _checkOwner() */\n      jump\t// in\n    tag_161:\n        /* \"@openzeppelin/contracts/access/Ownable.sol\":2357:2387  _transferOwnership(address(0)) */\n      tag_163\n        /* \"@openzeppelin/contracts/access/Ownable.sol\":2384:2385  0 */\n      0x00\n        /* \"@openzeppelin/contracts/access/Ownable.sol\":2357:2375  _transferOwnership */\n      tag_164\n        /* \"@openzeppelin/contracts/access/Ownable.sol\":2357:2387  _transferOwnership(address(0)) */\n      jump\t// in\n    tag_163:\n        /* \"@openzeppelin/contracts/access/Ownable.sol\":2293:2394  function renounceOwnership() public virtual onlyOwner {... */\n      jump\t// out\n        /* \"@openzeppelin/contracts/access/Ownable.sol\":1638:1723  function owner() public view virtual returns (address) {... */\n    tag_72:\n        /* \"@openzeppelin/contracts/access/Ownable.sol\":1684:1691  address */\n      0x00\n        /* \"@openzeppelin/contracts/access/Ownable.sol\":1710:1716  _owner */\n      0x01\n      0x00\n      swap1\n      sload\n      swap1\n      0x0100\n      exp\n      swap1\n      div\n      0xffffffffffffffffffffffffffffffffffffffff\n      and\n        /* \"@openzeppelin/contracts/access/Ownable.sol\":1703:1716  return _owner */\n      swap1\n      pop\n        /* \"@openzeppelin/contracts/access/Ownable.sol\":1638:1723  function owner() public view virtual returns (address) {... */\n      swap1\n      jump\t// out\n        /* \"@openzeppelin/contracts/access/AccessControl.sol\":2854:2990  function hasRole(bytes32 role, address account) public view virtual returns (bool) {... */\n    tag_77:\n        /* \"@openzeppelin/contracts/access/AccessControl.sol\":2931:2935  bool */\n      0x00\n        /* \"@openzeppelin/contracts/access/AccessControl.sol\":2954:2960  _roles */\n      dup1\n        /* \"@openzeppelin/contracts/access/AccessControl.sol\":2954:2966  _roles[role] */\n      0x00\n        /* \"@openzeppelin/contracts/access/AccessControl.sol\":2961:2965  role */\n      dup5\n        /* \"@openzeppelin/contracts/access/AccessControl.sol\":2954:2966  _roles[role] */\n      dup2\n      mstore\n      0x20\n      add\n      swap1\n      dup2\n      mstore\n      0x20\n      add\n      0x00\n      keccak256\n        /* \"@openzeppelin/contracts/access/AccessControl.sol\":2954:2974  _roles[role].hasRole */\n      0x00\n      add\n        /* \"@openzeppelin/contracts/access/AccessControl.sol\":2954:2983  _roles[role].hasRole[account] */\n      0x00\n        /* \"@openzeppelin/contracts/access/AccessControl.sol\":2975:2982  account */\n      dup4\n        /* \"@openzeppelin/contracts/access/AccessControl.sol\":2954:2983  _roles[role].hasRole[account] */\n      0xffffffffffffffffffffffffffffffffffffffff\n      and\n      0xffffffffffffffffffffffffffffffffffffffff\n      and\n      dup2\n      mstore\n      0x20\n      add\n      swap1\n      dup2\n      mstore\n      0x20\n      add\n      0x00\n      keccak256\n      0x00\n      swap1\n      sload\n      swap1\n      0x0100\n      exp\n      swap1\n      div\n      0xff\n      and\n        /* \"@openzeppelin/contracts/access/AccessControl.sol\":2947:2983  return _roles[role].hasRole[account] */\n      swap1\n      pop\n        /* \"@openzeppelin/contracts/access/AccessControl.sol\":2854:2990  function hasRole(bytes32 role, address account) public view virtual returns (bool) {... */\n      swap3\n      swap2\n      pop\n      pop\n      jump\t// out\n        /* \"@openzeppelin/contracts/access/AccessControl.sol\":2187:2236  bytes32 public constant DEFAULT_ADMIN_ROLE = 0x00 */\n    tag_80:\n        /* \"@openzeppelin/contracts/access/AccessControl.sol\":2232:2236  0x00 */\n      0x00\n        /* \"@openzeppelin/contracts/access/AccessControl.sol\":2187:2236  bytes32 public constant DEFAULT_ADMIN_ROLE = 0x00 */\n      dup1\n      shl\n      dup2\n      jump\t// out\n        /* \"@openzeppelin/contracts/access/AccessControl.sol\":4642:4780  function revokeRole(bytes32 role, address account) public virtual onlyRole(getRoleAdmin(role)) {... */\n    tag_84:\n        /* \"@openzeppelin/contracts/access/AccessControl.sol\":4717:4735  getRoleAdmin(role) */\n      tag_167\n        /* \"@openzeppelin/contracts/access/AccessControl.sol\":4730:4734  role */\n      dup3\n        /* \"@openzeppelin/contracts/access/AccessControl.sol\":4717:4729  getRoleAdmin */\n      tag_48\n        /* \"@openzeppelin/contracts/access/AccessControl.sol\":4717:4735  getRoleAdmin(role) */\n      jump\t// in\n    tag_167:\n        /* \"@openzeppelin/contracts/access/AccessControl.sol\":2464:2480  _checkRole(role) */\n      tag_169\n        /* \"@openzeppelin/contracts/access/AccessControl.sol\":2475:2479  role */\n      dup2\n        /* \"@openzeppelin/contracts/access/AccessControl.sol\":2464:2474  _checkRole */\n      tag_136\n        /* \"@openzeppelin/contracts/access/AccessControl.sol\":2464:2480  _checkRole(role) */\n      jump\t// in\n    tag_169:\n        /* \"@openzeppelin/contracts/access/AccessControl.sol\":4747:4773  _revokeRole(role, account) */\n      tag_171\n        /* \"@openzeppelin/contracts/access/AccessControl.sol\":4759:4763  role */\n      dup4\n        /* \"@openzeppelin/contracts/access/AccessControl.sol\":4765:4772  account */\n      dup4\n        /* \"@openzeppelin/contracts/access/AccessControl.sol\":4747:4758  _revokeRole */\n      tag_145\n        /* \"@openzeppelin/contracts/access/AccessControl.sol\":4747:4773  _revokeRole(role, account) */\n      jump\t// in\n    tag_171:\n      pop\n        /* \"@openzeppelin/contracts/access/AccessControl.sol\":4642:4780  function revokeRole(bytes32 role, address account) public virtual onlyRole(getRoleAdmin(role)) {... */\n      pop\n      pop\n      pop\n      jump\t// out\n        /* \"HealthcareDataManagement.sol\":2271:2591  function revokeAccess(uint256 recordId, address from) public {... */\n    tag_87:\n        /* \"HealthcareDataManagement.sol\":2351:2358  records */\n      0x02\n        /* \"HealthcareDataManagement.sol\":2351:2368  records[recordId] */\n      0x00\n        /* \"HealthcareDataManagement.sol\":2359:2367  recordId */\n      dup4\n        /* \"HealthcareDataManagement.sol\":2351:2368  records[recordId] */\n      dup2\n      mstore\n      0x20\n      add\n      swap1\n      dup2\n      mstore\n      0x20\n      add\n      0x00\n      keccak256\n        /* \"HealthcareDataManagement.sol\":2351:2375  records[recordId].exists */\n      0x02\n      add\n      0x14\n      swap1\n      sload\n      swap1\n      0x0100\n      exp\n      swap1\n      div\n      0xff\n      and\n        /* \"HealthcareDataManagement.sol\":2343:2401  require(records[recordId].exists, \"Record does not exist\") */\n      tag_173\n      jumpi\n      mload(0x40)\n      0x08c379a000000000000000000000000000000000000000000000000000000000\n      dup2\n      mstore\n      0x04\n      add\n      tag_174\n      swap1\n      tag_113\n      jump\t// in\n    tag_174:\n      mload(0x40)\n      dup1\n      swap2\n      sub\n      swap1\n      revert\n    tag_173:\n        /* \"HealthcareDataManagement.sol\":2447:2457  msg.sender */\n      caller\n        /* \"HealthcareDataManagement.sol\":2420:2457  records[recordId].owner == msg.sender */\n      0xffffffffffffffffffffffffffffffffffffffff\n      and\n        /* \"HealthcareDataManagement.sol\":2420:2427  records */\n      0x02\n        /* \"HealthcareDataManagement.sol\":2420:2437  records[recordId] */\n      0x00\n        /* \"HealthcareDataManagement.sol\":2428:2436  recordId */\n      dup5\n        /* \"HealthcareDataManagement.sol\":2420:2437  records[recordId] */\n      dup2\n      mstore\n      0x20\n      add\n      swap1\n      dup2\n      mstore\n      0x20\n      add\n      0x00\n      keccak256\n        /* \"HealthcareDataManagement.sol\":2420:2443  records[recordId].owner */\n      0x02\n      add\n      0x00\n      swap1\n      sload\n      swap1\n      0x0100\n      exp\n      swap1\n      div\n      0xffffffffffffffffffffffffffffffffffffffff\n      and\n        /* \"HealthcareDataManagement.sol\":2420:2457  records[recordId].owner == msg.sender */\n      0xffffffffffffffffffffffffffffffffffffffff\n      and\n      eq\n        /* \"HealthcareDataManagement.sol\":2412:2490  require(records[recordId].owner == msg.sender, \"Only owner can revoke access\") */\n      tag_175\n      jumpi\n      mload(0x40)\n      0x08c379a000000000000000000000000000000000000000000000000000000000\n      dup2\n      mstore\n      0x04\n      add\n      tag_176\n      swap1\n      tag_177\n      jump\t// in\n    tag_176:\n      mload(0x40)\n      dup1\n      swap2\n      sub\n      swap1\n      revert\n    tag_175:\n        /* \"HealthcareDataManagement.sol\":2533:2538  false */\n      0x00\n        /* \"HealthcareDataManagement.sol\":2501:2514  accessControl */\n      0x04\n        /* \"HealthcareDataManagement.sol\":2501:2520  accessControl[from] */\n      0x00\n        /* \"HealthcareDataManagement.sol\":2515:2519  from */\n      dup4\n        /* \"HealthcareDataManagement.sol\":2501:2520  accessControl[from] */\n      0xffffffffffffffffffffffffffffffffffffffff\n      and\n      0xffffffffffffffffffffffffffffffffffffffff\n      and\n      dup2\n      mstore\n      0x20\n      add\n      swap1\n      dup2\n      mstore\n      0x20\n      add\n      0x00\n      keccak256\n        /* \"HealthcareDataManagement.sol\":2501:2530  accessControl[from][recordId] */\n      0x00\n        /* \"HealthcareDataManagement.sol\":2521:2529  recordId */\n      dup5\n        /* \"HealthcareDataManagement.sol\":2501:2530  accessControl[from][recordId] */\n      dup2\n      mstore\n      0x20\n      add\n      swap1\n      dup2\n      mstore\n      0x20\n      add\n      0x00\n      keccak256\n      0x00\n        /* \"HealthcareDataManagement.sol\":2501:2538  accessControl[from][recordId] = false */\n      0x0100\n      exp\n      dup2\n      sload\n      dup2\n      0xff\n      mul\n      not\n      and\n      swap1\n      dup4\n      iszero\n      iszero\n      mul\n      or\n      swap1\n      sstore\n      pop\n        /* \"HealthcareDataManagement.sol\":2554:2583  AccessRevoked(recordId, from) */\n      0x125883b94692baebecad9f111ed97ffa626523bbbadc6b0ef85ee1b56b9e52d5\n        /* \"HealthcareDataManagement.sol\":2568:2576  recordId */\n      dup3\n        /* \"HealthcareDataManagement.sol\":2578:2582  from */\n      dup3\n        /* \"HealthcareDataManagement.sol\":2554:2583  AccessRevoked(recordId, from) */\n      mload(0x40)\n      tag_178\n      swap3\n      swap2\n      swap1\n      tag_120\n      jump\t// in\n    tag_178:\n      mload(0x40)\n      dup1\n      swap2\n      sub\n      swap1\n      log1\n        /* \"HealthcareDataManagement.sol\":2271:2591  function revokeAccess(uint256 recordId, address from) public {... */\n      pop\n      pop\n      jump\t// out\n        /* \"HealthcareDataManagement.sol\":1663:1944  function createRecord(string memory dataHash) public {... */\n    tag_91:\n        /* \"HealthcareDataManagement.sol\":1727:1743  uint256 recordId */\n      0x00\n        /* \"HealthcareDataManagement.sol\":1746:1758  nextRecordId */\n      0x06\n      0x00\n        /* \"HealthcareDataManagement.sol\":1746:1760  nextRecordId++ */\n      dup2\n      sload\n      dup1\n      swap3\n      swap2\n      swap1\n      tag_180\n      swap1\n      tag_181\n      jump\t// in\n    tag_180:\n      swap2\n      swap1\n      pop\n      sstore\n        /* \"HealthcareDataManagement.sol\":1727:1760  uint256 recordId = nextRecordId++ */\n      swap1\n      pop\n        /* \"HealthcareDataManagement.sol\":1791:1835  Record(recordId, dataHash, msg.sender, true) */\n      mload(0x40)\n      dup1\n      0x80\n      add\n      0x40\n      mstore\n      dup1\n        /* \"HealthcareDataManagement.sol\":1798:1806  recordId */\n      dup3\n        /* \"HealthcareDataManagement.sol\":1791:1835  Record(recordId, dataHash, msg.sender, true) */\n      dup2\n      mstore\n      0x20\n      add\n        /* \"HealthcareDataManagement.sol\":1808:1816  dataHash */\n      dup4\n        /* \"HealthcareDataManagement.sol\":1791:1835  Record(recordId, dataHash, msg.sender, true) */\n      dup2\n      mstore\n      0x20\n      add\n        /* \"HealthcareDataManagement.sol\":1818:1828  msg.sender */\n      caller\n        /* \"HealthcareDataManagement.sol\":1791:1835  Record(recordId, dataHash, msg.sender, true) */\n      0xffffffffffffffffffffffffffffffffffffffff\n      and\n      dup2\n      mstore\n      0x20\n      add\n        /* \"HealthcareDataManagement.sol\":1830:1834  true */\n      0x01\n        /* \"HealthcareDataManagement.sol\":1791:1835  Record(recordId, dataHash, msg.sender, true) */\n      iszero\n      iszero\n      dup2\n      mstore\n      pop\n        /* \"HealthcareDataManagement.sol\":1771:1778  records */\n      0x02\n        /* \"HealthcareDataManagement.sol\":1771:1788  records[recordId] */\n      0x00\n        /* \"HealthcareDataManagement.sol\":1779:1787  recordId */\n      dup4\n        /* \"HealthcareDataManagement.sol\":1771:1788  records[recordId] */\n      dup2\n      mstore\n      0x20\n      add\n      swap1\n      dup2\n      mstore\n      0x20\n      add\n      0x00\n      keccak256\n        /* \"HealthcareDataManagement.sol\":1771:1835  records[recordId] = Record(recordId, dataHash, msg.sender, true) */\n      0x00\n      dup3\n      add\n      mload\n      dup2\n      0x00\n      add\n      sstore\n      0x20\n      dup3\n      add\n      mload\n      dup2\n      0x01\n      add\n      swap1\n      dup2\n      tag_182\n      swap2\n      swap1\n      tag_183\n      jump\t// in\n    tag_182:\n      pop\n      0x40\n      dup3\n      add\n      mload\n      dup2\n      0x02\n      add\n      exp(0x0100, 0x00)\n      dup2\n      sload\n      dup2\n      0xffffffffffffffffffffffffffffffffffffffff\n      mul\n      not\n      and\n      swap1\n      dup4\n      0xffffffffffffffffffffffffffffffffffffffff\n      and\n      mul\n      or\n      swap1\n      sstore\n      pop\n      0x60\n      dup3\n      add\n      mload\n      dup2\n      0x02\n      add\n      exp(0x0100, 0x14)\n      dup2\n      sload\n      dup2\n      0xff\n      mul\n      not\n      and\n      swap1\n      dup4\n      iszero\n      iszero\n      mul\n      or\n      swap1\n      sstore\n      pop\n      swap1\n      pop\n      pop\n        /* \"HealthcareDataManagement.sol\":1846:1858  ownerRecords */\n      0x03\n        /* \"HealthcareDataManagement.sol\":1846:1870  ownerRecords[msg.sender] */\n      0x00\n        /* \"HealthcareDataManagement.sol\":1859:1869  msg.sender */\n      caller\n        /* \"HealthcareDataManagement.sol\":1846:1870  ownerRecords[msg.sender] */\n      0xffffffffffffffffffffffffffffffffffffffff\n      and\n      0xffffffffffffffffffffffffffffffffffffffff\n      and\n      dup2\n      mstore\n      0x20\n      add\n      swap1\n      dup2\n      mstore\n      0x20\n      add\n      0x00\n      keccak256\n        /* \"HealthcareDataManagement.sol\":1876:1884  recordId */\n      dup2\n        /* \"HealthcareDataManagement.sol\":1846:1885  ownerRecords[msg.sender].push(recordId) */\n      swap1\n      dup1\n      0x01\n      dup2\n      sload\n      add\n      dup1\n      dup3\n      sstore\n      dup1\n      swap2\n      pop\n      pop\n      0x01\n      swap1\n      sub\n      swap1\n      0x00\n      mstore\n      keccak256(0x00, 0x20)\n      add\n      0x00\n      swap1\n      swap2\n      swap1\n      swap2\n      swap1\n      swap2\n      pop\n      sstore\n        /* \"HealthcareDataManagement.sol\":1901:1936  RecordCreated(recordId, msg.sender) */\n      0x9a96995fdafdb50a11bfbcd015e3313b1a7de85a9a5c033e9ceccc3ee1b4c893\n        /* \"HealthcareDataManagement.sol\":1915:1923  recordId */\n      dup2\n        /* \"HealthcareDataManagement.sol\":1925:1935  msg.sender */\n      caller\n        /* \"HealthcareDataManagement.sol\":1901:1936  RecordCreated(recordId, msg.sender) */\n      mload(0x40)\n      tag_185\n      swap3\n      swap2\n      swap1\n      tag_120\n      jump\t// in\n    tag_185:\n      mload(0x40)\n      dup1\n      swap2\n      sub\n      swap1\n      log1\n        /* \"HealthcareDataManagement.sol\":1716:1944  {... */\n      pop\n        /* \"HealthcareDataManagement.sol\":1663:1944  function createRecord(string memory dataHash) public {... */\n      pop\n      jump\t// out\n        /* \"HealthcareDataManagement.sol\":3405:3507  function getAccessLogs() public view returns (AccessLog[] memory) {... */\n    tag_93:\n        /* \"HealthcareDataManagement.sol\":3451:3469  AccessLog[] memory */\n      0x60\n        /* \"HealthcareDataManagement.sol\":3489:3499  accessLogs */\n      0x05\n        /* \"HealthcareDataManagement.sol\":3482:3499  return accessLogs */\n      dup1\n      sload\n      dup1\n      0x20\n      mul\n      0x20\n      add\n      mload(0x40)\n      swap1\n      dup2\n      add\n      0x40\n      mstore\n      dup1\n      swap3\n      swap2\n      swap1\n      dup2\n      dup2\n      mstore\n      0x20\n      add\n      0x00\n      swap1\n    tag_187:\n      dup3\n      dup3\n      lt\n      iszero\n      tag_188\n      jumpi\n      dup4\n      dup3\n      swap1\n      0x00\n      mstore\n      keccak256(0x00, 0x20)\n      swap1\n      0x03\n      mul\n      add\n      mload(0x40)\n      dup1\n      0x60\n      add\n      0x40\n      mstore\n      swap1\n      dup2\n      0x00\n      dup3\n      add\n      sload\n      dup2\n      mstore\n      0x20\n      add\n      0x01\n      dup3\n      add\n      0x00\n      swap1\n      sload\n      swap1\n      0x0100\n      exp\n      swap1\n      div\n      0xffffffffffffffffffffffffffffffffffffffff\n      and\n      0xffffffffffffffffffffffffffffffffffffffff\n      and\n      0xffffffffffffffffffffffffffffffffffffffff\n      and\n      dup2\n      mstore\n      0x20\n      add\n      0x02\n      dup3\n      add\n      sload\n      dup2\n      mstore\n      pop\n      pop\n      dup2\n      mstore\n      0x20\n      add\n      swap1\n      0x01\n      add\n      swap1\n      jump(tag_187)\n    tag_188:\n      pop\n      pop\n      pop\n      pop\n      swap1\n      pop\n        /* \"HealthcareDataManagement.sol\":3405:3507  function getAccessLogs() public view returns (AccessLog[] memory) {... */\n      swap1\n      jump\t// out\n        /* \"@openzeppelin/contracts/access/Ownable.sol\":2543:2758  function transferOwnership(address newOwner) public virtual onlyOwner {... */\n    tag_98:\n        /* \"@openzeppelin/contracts/access/Ownable.sol\":1531:1544  _checkOwner() */\n      tag_191\n        /* \"@openzeppelin/contracts/access/Ownable.sol\":1531:1542  _checkOwner */\n      tag_129\n        /* \"@openzeppelin/contracts/access/Ownable.sol\":1531:1544  _checkOwner() */\n      jump\t// in\n    tag_191:\n        /* \"@openzeppelin/contracts/access/Ownable.sol\":2647:2648  0 */\n      0x00\n        /* \"@openzeppelin/contracts/access/Ownable.sol\":2627:2649  newOwner == address(0) */\n      0xffffffffffffffffffffffffffffffffffffffff\n      and\n        /* \"@openzeppelin/contracts/access/Ownable.sol\":2627:2635  newOwner */\n      dup2\n        /* \"@openzeppelin/contracts/access/Ownable.sol\":2627:2649  newOwner == address(0) */\n      0xffffffffffffffffffffffffffffffffffffffff\n      and\n      sub\n        /* \"@openzeppelin/contracts/access/Ownable.sol\":2623:2714  if (newOwner == address(0)) {... */\n      tag_193\n      jumpi\n        /* \"@openzeppelin/contracts/access/Ownable.sol\":2700:2701  0 */\n      0x00\n        /* \"@openzeppelin/contracts/access/Ownable.sol\":2672:2703  OwnableInvalidOwner(address(0)) */\n      mload(0x40)\n      0x1e4fbdf700000000000000000000000000000000000000000000000000000000\n      dup2\n      mstore\n      0x04\n      add\n      tag_194\n      swap2\n      swap1\n      tag_74\n      jump\t// in\n    tag_194:\n      mload(0x40)\n      dup1\n      swap2\n      sub\n      swap1\n      revert\n        /* \"@openzeppelin/contracts/access/Ownable.sol\":2623:2714  if (newOwner == address(0)) {... */\n    tag_193:\n        /* \"@openzeppelin/contracts/access/Ownable.sol\":2723:2751  _transferOwnership(newOwner) */\n      tag_195\n        /* \"@openzeppelin/contracts/access/Ownable.sol\":2742:2750  newOwner */\n      dup2\n        /* \"@openzeppelin/contracts/access/Ownable.sol\":2723:2741  _transferOwnership */\n      tag_164\n        /* \"@openzeppelin/contracts/access/Ownable.sol\":2723:2751  _transferOwnership(newOwner) */\n      jump\t// in\n    tag_195:\n        /* \"@openzeppelin/contracts/access/Ownable.sol\":2543:2758  function transferOwnership(address newOwner) public virtual onlyOwner {... */\n      pop\n      jump\t// out\n        /* \"@openzeppelin/contracts/utils/introspection/ERC165.sol\":762:908  function supportsInterface(bytes4 interfaceId) public view virtual returns (bool) {... */\n    tag_102:\n        /* \"@openzeppelin/contracts/utils/introspection/ERC165.sol\":838:842  bool */\n      0x00\n        /* \"@openzeppelin/contracts/utils/introspection/ERC165.sol\":876:901  type(IERC165).interfaceId */\n      0x01ffc9a700000000000000000000000000000000000000000000000000000000\n        /* \"@openzeppelin/contracts/utils/introspection/ERC165.sol\":861:901  interfaceId == type(IERC165).interfaceId */\n      not(0xffffffffffffffffffffffffffffffffffffffffffffffffffffffff)\n      and\n        /* \"@openzeppelin/contracts/utils/introspection/ERC165.sol\":861:872  interfaceId */\n      dup3\n        /* \"@openzeppelin/contracts/utils/introspection/ERC165.sol\":861:901  interfaceId == type(IERC165).interfaceId */\n      not(0xffffffffffffffffffffffffffffffffffffffffffffffffffffffff)\n      and\n      eq\n        /* \"@openzeppelin/contracts/utils/introspection/ERC165.sol\":854:901  return interfaceId == type(IERC165).interfaceId */\n      swap1\n      pop\n        /* \"@openzeppelin/contracts/utils/introspection/ERC165.sol\":762:908  function supportsInterface(bytes4 interfaceId) public view virtual returns (bool) {... */\n      swap2\n      swap1\n      pop\n      jump\t// out\n        /* \"@openzeppelin/contracts/access/Ownable.sol\":1796:1958  function _checkOwner() internal view virtual {... */\n    tag_129:\n        /* \"@openzeppelin/contracts/access/Ownable.sol\":1866:1878  _msgSender() */\n      tag_198\n        /* \"@openzeppelin/contracts/access/Ownable.sol\":1866:1876  _msgSender */\n      tag_142\n        /* \"@openzeppelin/contracts/access/Ownable.sol\":1866:1878  _msgSender() */\n      jump\t// in\n    tag_198:\n        /* \"@openzeppelin/contracts/access/Ownable.sol\":1855:1878  owner() != _msgSender() */\n      0xffffffffffffffffffffffffffffffffffffffff\n      and\n        /* \"@openzeppelin/contracts/access/Ownable.sol\":1855:1862  owner() */\n      tag_199\n        /* \"@openzeppelin/contracts/access/Ownable.sol\":1855:1860  owner */\n      tag_72\n        /* \"@openzeppelin/contracts/access/Ownable.sol\":1855:1862  owner() */\n      jump\t// in\n    tag_199:\n        /* \"@openzeppelin/contracts/access/Ownable.sol\":1855:1878  owner() != _msgSender() */\n      0xffffffffffffffffffffffffffffffffffffffff\n      and\n      eq\n        /* \"@openzeppelin/contracts/access/Ownable.sol\":1851:1952  if (owner() != _msgSender()) {... */\n      tag_200\n      jumpi\n        /* \"@openzeppelin/contracts/access/Ownable.sol\":1928:1940  _msgSender() */\n      tag_201\n        /* \"@openzeppelin/contracts/access/Ownable.sol\":1928:1938  _msgSender */\n      tag_142\n        /* \"@openzeppelin/contracts/access/Ownable.sol\":1928:1940  _msgSender() */\n      jump\t// in\n    tag_201:\n        /* \"@openzeppelin/contracts/access/Ownable.sol\":1901:1941  OwnableUnauthorizedAccount(_msgSender()) */\n      mload(0x40)\n      0x118cdaa700000000000000000000000000000000000000000000000000000000\n      dup2\n      mstore\n      0x04\n      add\n      tag_202\n      swap2\n      swap1\n      tag_74\n      jump\t// in\n    tag_202:\n      mload(0x40)\n      dup1\n      swap2\n      sub\n      swap1\n      revert\n        /* \"@openzeppelin/contracts/access/Ownable.sol\":1851:1952  if (owner() != _msgSender()) {... */\n    tag_200:\n        /* \"@openzeppelin/contracts/access/Ownable.sol\":1796:1958  function _checkOwner() internal view virtual {... */\n      jump\t// out\n        /* \"@openzeppelin/contracts/access/AccessControl.sol\":3199:3302  function _checkRole(bytes32 role) internal view virtual {... */\n    tag_136:\n        /* \"@openzeppelin/contracts/access/AccessControl.sol\":3265:3295  _checkRole(role, _msgSender()) */\n      tag_204\n        /* \"@openzeppelin/contracts/access/AccessControl.sol\":3276:3280  role */\n      dup2\n        /* \"@openzeppelin/contracts/access/AccessControl.sol\":3282:3294  _msgSender() */\n      tag_205\n        /* \"@openzeppelin/contracts/access/AccessControl.sol\":3282:3292  _msgSender */\n      tag_142\n        /* \"@openzeppelin/contracts/access/AccessControl.sol\":3282:3294  _msgSender() */\n      jump\t// in\n    tag_205:\n        /* \"@openzeppelin/contracts/access/AccessControl.sol\":3265:3275  _checkRole */\n      tag_206\n        /* \"@openzeppelin/contracts/access/AccessControl.sol\":3265:3295  _checkRole(role, _msgSender()) */\n      jump\t// in\n    tag_204:\n        /* \"@openzeppelin/contracts/access/AccessControl.sol\":3199:3302  function _checkRole(bytes32 role) internal view virtual {... */\n      pop\n      jump\t// out\n        /* \"@openzeppelin/contracts/access/AccessControl.sol\":6179:6495  function _grantRole(bytes32 role, address account) internal virtual returns (bool) {... */\n    tag_139:\n        /* \"@openzeppelin/contracts/access/AccessControl.sol\":6256:6260  bool */\n      0x00\n        /* \"@openzeppelin/contracts/access/AccessControl.sol\":6277:6299  hasRole(role, account) */\n      tag_208\n        /* \"@openzeppelin/contracts/access/AccessControl.sol\":6285:6289  role */\n      dup4\n        /* \"@openzeppelin/contracts/access/AccessControl.sol\":6291:6298  account */\n      dup4\n        /* \"@openzeppelin/contracts/access/AccessControl.sol\":6277:6284  hasRole */\n      tag_77\n        /* \"@openzeppelin/contracts/access/AccessControl.sol\":6277:6299  hasRole(role, account) */\n      jump\t// in\n    tag_208:\n        /* \"@openzeppelin/contracts/access/AccessControl.sol\":6272:6489  if (!hasRole(role, account)) {... */\n      tag_209\n      jumpi\n        /* \"@openzeppelin/contracts/access/AccessControl.sol\":6347:6351  true */\n      0x01\n        /* \"@openzeppelin/contracts/access/AccessControl.sol\":6315:6321  _roles */\n      0x00\n        /* \"@openzeppelin/contracts/access/AccessControl.sol\":6315:6327  _roles[role] */\n      dup1\n        /* \"@openzeppelin/contracts/access/AccessControl.sol\":6322:6326  role */\n      dup6\n        /* \"@openzeppelin/contracts/access/AccessControl.sol\":6315:6327  _roles[role] */\n      dup2\n      mstore\n      0x20\n      add\n      swap1\n      dup2\n      mstore\n      0x20\n      add\n      0x00\n      keccak256\n        /* \"@openzeppelin/contracts/access/AccessControl.sol\":6315:6335  _roles[role].hasRole */\n      0x00\n      add\n        /* \"@openzeppelin/contracts/access/AccessControl.sol\":6315:6344  _roles[role].hasRole[account] */\n      0x00\n        /* \"@openzeppelin/contracts/access/AccessControl.sol\":6336:6343  account */\n      dup5\n        /* \"@openzeppelin/contracts/access/AccessControl.sol\":6315:6344  _roles[role].hasRole[account] */\n      0xffffffffffffffffffffffffffffffffffffffff\n      and\n      0xffffffffffffffffffffffffffffffffffffffff\n      and\n      dup2\n      mstore\n      0x20\n      add\n      swap1\n      dup2\n      mstore\n      0x20\n      add\n      0x00\n      keccak256\n      0x00\n        /* \"@openzeppelin/contracts/access/AccessControl.sol\":6315:6351  _roles[role].hasRole[account] = true */\n      0x0100\n      exp\n      dup2\n      sload\n      dup2\n      0xff\n      mul\n      not\n      and\n      swap1\n      dup4\n      iszero\n      iszero\n      mul\n      or\n      swap1\n      sstore\n      pop\n        /* \"@openzeppelin/contracts/access/AccessControl.sol\":6397:6409  _msgSender() */\n      tag_210\n        /* \"@openzeppelin/contracts/access/AccessControl.sol\":6397:6407  _msgSender */\n      tag_142\n        /* \"@openzeppelin/contracts/access/AccessControl.sol\":6397:6409  _msgSender() */\n      jump\t// in\n    tag_210:\n        /* \"@openzeppelin/contracts/access/AccessControl.sol\":6370:6410  RoleGranted(role, account, _msgSender()) */\n      0xffffffffffffffffffffffffffffffffffffffff\n      and\n        /* \"@openzeppelin/contracts/access/AccessControl.sol\":6388:6395  account */\n      dup3\n        /* \"@openzeppelin/contracts/access/AccessControl.sol\":6370:6410  RoleGranted(role, account, _msgSender()) */\n      0xffffffffffffffffffffffffffffffffffffffff\n      and\n        /* \"@openzeppelin/contracts/access/AccessControl.sol\":6382:6386  role */\n      dup5\n        /* \"@openzeppelin/contracts/access/AccessControl.sol\":6370:6410  RoleGranted(role, account, _msgSender()) */\n      0x2f8788117e7eff1d82e926ec794901d17c78024a50270940304540a733656f0d\n      mload(0x40)\n      mload(0x40)\n      dup1\n      swap2\n      sub\n      swap1\n      log4\n        /* \"@openzeppelin/contracts/access/AccessControl.sol\":6431:6435  true */\n      0x01\n        /* \"@openzeppelin/contracts/access/AccessControl.sol\":6424:6435  return true */\n      swap1\n      pop\n      jump(tag_207)\n        /* \"@openzeppelin/contracts/access/AccessControl.sol\":6272:6489  if (!hasRole(role, account)) {... */\n    tag_209:\n        /* \"@openzeppelin/contracts/access/AccessControl.sol\":6473:6478  false */\n      0x00\n        /* \"@openzeppelin/contracts/access/AccessControl.sol\":6466:6478  return false */\n      swap1\n      pop\n        /* \"@openzeppelin/contracts/access/AccessControl.sol\":6179:6495  function _grantRole(bytes32 role, address account) internal virtual returns (bool) {... */\n    tag_207:\n      swap3\n      swap2\n      pop\n      pop\n      jump\t// out\n        /* \"@openzeppelin/contracts/utils/Context.sol\":656:752  function _msgSender() internal view virtual returns (address) {... */\n    tag_142:\n        /* \"@openzeppelin/contracts/utils/Context.sol\":709:716  address */\n      0x00\n        /* \"@openzeppelin/contracts/utils/Context.sol\":735:745  msg.sender */\n      caller\n        /* \"@openzeppelin/contracts/utils/Context.sol\":728:745  return msg.sender */\n      swap1\n      pop\n        /* \"@openzeppelin/contracts/utils/Context.sol\":656:752  function _msgSender() internal view virtual returns (address) {... */\n      swap1\n      jump\t// out\n        /* \"@openzeppelin/contracts/access/AccessControl.sol\":6730:7047  function _revokeRole(bytes32 role, address account) internal virtual returns (bool) {... */\n    tag_145:\n        /* \"@openzeppelin/contracts/access/AccessControl.sol\":6808:6812  bool */\n      0x00\n        /* \"@openzeppelin/contracts/access/AccessControl.sol\":6828:6850  hasRole(role, account) */\n      tag_214\n        /* \"@openzeppelin/contracts/access/AccessControl.sol\":6836:6840  role */\n      dup4\n        /* \"@openzeppelin/contracts/access/AccessControl.sol\":6842:6849  account */\n      dup4\n        /* \"@openzeppelin/contracts/access/AccessControl.sol\":6828:6835  hasRole */\n      tag_77\n        /* \"@openzeppelin/contracts/access/AccessControl.sol\":6828:6850  hasRole(role, account) */\n      jump\t// in\n    tag_214:\n        /* \"@openzeppelin/contracts/access/AccessControl.sol\":6824:7041  if (hasRole(role, account)) {... */\n      iszero\n      tag_215\n      jumpi\n        /* \"@openzeppelin/contracts/access/AccessControl.sol\":6898:6903  false */\n      0x00\n        /* \"@openzeppelin/contracts/access/AccessControl.sol\":6866:6872  _roles */\n      dup1\n        /* \"@openzeppelin/contracts/access/AccessControl.sol\":6866:6878  _roles[role] */\n      0x00\n        /* \"@openzeppelin/contracts/access/AccessControl.sol\":6873:6877  role */\n      dup6\n        /* \"@openzeppelin/contracts/access/AccessControl.sol\":6866:6878  _roles[role] */\n      dup2\n      mstore\n      0x20\n      add\n      swap1\n      dup2\n      mstore\n      0x20\n      add\n      0x00\n      keccak256\n        /* \"@openzeppelin/contracts/access/AccessControl.sol\":6866:6886  _roles[role].hasRole */\n      0x00\n      add\n        /* \"@openzeppelin/contracts/access/AccessControl.sol\":6866:6895  _roles[role].hasRole[account] */\n      0x00\n        /* \"@openzeppelin/contracts/access/AccessControl.sol\":6887:6894  account */\n      dup5\n        /* \"@openzeppelin/contracts/access/AccessControl.sol\":6866:6895  _roles[role].hasRole[account] */\n      0xffffffffffffffffffffffffffffffffffffffff\n      and\n      0xffffffffffffffffffffffffffffffffffffffff\n      and\n      dup2\n      mstore\n      0x20\n      add\n      swap1\n      dup2\n      mstore\n      0x20\n      add\n      0x00\n      keccak256\n      0x00\n        /* \"@openzeppelin/contracts/access/AccessControl.sol\":6866:6903  _roles[role].hasRole[account] = false */\n      0x0100\n      exp\n      dup2\n      sload\n      dup2\n      0xff\n      mul\n      not\n      and\n      swap1\n      dup4\n      iszero\n      iszero\n      mul\n      or\n      swap1\n      sstore\n      pop\n        /* \"@openzeppelin/contracts/access/AccessControl.sol\":6949:6961  _msgSender() */\n      tag_216\n        /* \"@openzeppelin/contracts/access/AccessControl.sol\":6949:6959  _msgSender */\n      tag_142\n        /* \"@openzeppelin/contracts/access/AccessControl.sol\":6949:6961  _msgSender() */\n      jump\t// in\n    tag_216:\n        /* \"@openzeppelin/contracts/access/AccessControl.sol\":6922:6962  RoleRevoked(role, account, _msgSender()) */\n      0xffffffffffffffffffffffffffffffffffffffff\n      and\n        /* \"@openzeppelin/contracts/access/AccessControl.sol\":6940:6947  account */\n      dup3\n        /* \"@openzeppelin/contracts/access/AccessControl.sol\":6922:6962  RoleRevoked(role, account, _msgSender()) */\n      0xffffffffffffffffffffffffffffffffffffffff\n      and\n        /* \"@openzeppelin/contracts/access/AccessControl.sol\":6934:6938  role */\n      dup5\n        /* \"@openzeppelin/contracts/access/AccessControl.sol\":6922:6962  RoleRevoked(role, account, _msgSender()) */\n      0xf6391f5c32d9c69d2a47ea670b442974b53935d1edc7fd64eb21e047a839171b\n      mload(0x40)\n      mload(0x40)\n      dup1\n      swap2\n      sub\n      swap1\n      log4\n        /* \"@openzeppelin/contracts/access/AccessControl.sol\":6983:6987  true */\n      0x01\n        /* \"@openzeppelin/contracts/access/AccessControl.sol\":6976:6987  return true */\n      swap1\n      pop\n      jump(tag_213)\n        /* \"@openzeppelin/contracts/access/AccessControl.sol\":6824:7041  if (hasRole(role, account)) {... */\n    tag_215:\n        /* \"@openzeppelin/contracts/access/AccessControl.sol\":7025:7030  false */\n      0x00\n        /* \"@openzeppelin/contracts/access/AccessControl.sol\":7018:7030  return false */\n      swap1\n      pop\n        /* \"@openzeppelin/contracts/access/AccessControl.sol\":6730:7047  function _revokeRole(bytes32 role, address account) internal virtual returns (bool) {... */\n    tag_213:\n      swap3\n      swap2\n      pop\n      pop\n      jump\t// out\n        /* \"@openzeppelin/contracts/access/Ownable.sol\":2912:3099  function _transferOwnership(address newOwner) internal virtual {... */\n    tag_164:\n        /* \"@openzeppelin/contracts/access/Ownable.sol\":2985:3001  address oldOwner */\n      0x00\n        /* \"@openzeppelin/contracts/access/Ownable.sol\":3004:3010  _owner */\n      0x01\n      0x00\n      swap1\n      sload\n      swap1\n      0x0100\n      exp\n      swap1\n      div\n      0xffffffffffffffffffffffffffffffffffffffff\n      and\n        /* \"@openzeppelin/contracts/access/Ownable.sol\":2985:3010  address oldOwner = _owner */\n      swap1\n      pop\n        /* \"@openzeppelin/contracts/access/Ownable.sol\":3029:3037  newOwner */\n      dup2\n        /* \"@openzeppelin/contracts/access/Ownable.sol\":3020:3026  _owner */\n      0x01\n      0x00\n        /* \"@openzeppelin/contracts/access/Ownable.sol\":3020:3037  _owner = newOwner */\n      0x0100\n      exp\n      dup2\n      sload\n      dup2\n      0xffffffffffffffffffffffffffffffffffffffff\n      mul\n      not\n      and\n      swap1\n      dup4\n      0xffffffffffffffffffffffffffffffffffffffff\n      and\n      mul\n      or\n      swap1\n      sstore\n      pop\n        /* \"@openzeppelin/contracts/access/Ownable.sol\":3083:3091  newOwner */\n      dup2\n        /* \"@openzeppelin/contracts/access/Ownable.sol\":3052:3092  OwnershipTransferred(oldOwner, newOwner) */\n      0xffffffffffffffffffffffffffffffffffffffff\n      and\n        /* \"@openzeppelin/contracts/access/Ownable.sol\":3073:3081  oldOwner */\n      dup2\n        /* \"@openzeppelin/contracts/access/Ownable.sol\":3052:3092  OwnershipTransferred(oldOwner, newOwner) */\n      0xffffffffffffffffffffffffffffffffffffffff\n      and\n      0x8be0079c531659141344cd1fd0a4f28419497f9722a3daafe3b4186f6b6457e0\n      mload(0x40)\n      mload(0x40)\n      dup1\n      swap2\n      sub\n      swap1\n      log3\n        /* \"@openzeppelin/contracts/access/Ownable.sol\":2975:3099  {... */\n      pop\n        /* \"@openzeppelin/contracts/access/Ownable.sol\":2912:3099  function _transferOwnership(address newOwner) internal virtual {... */\n      pop\n      jump\t// out\n        /* \"@openzeppelin/contracts/access/AccessControl.sol\":3432:3629  function _checkRole(bytes32 role, address account) internal view virtual {... */\n    tag_206:\n        /* \"@openzeppelin/contracts/access/AccessControl.sol\":3520:3542  hasRole(role, account) */\n      tag_220\n        /* \"@openzeppelin/contracts/access/AccessControl.sol\":3528:3532  role */\n      dup3\n        /* \"@openzeppelin/contracts/access/AccessControl.sol\":3534:3541  account */\n      dup3\n        /* \"@openzeppelin/contracts/access/AccessControl.sol\":3520:3527  hasRole */\n      tag_77\n        /* \"@openzeppelin/contracts/access/AccessControl.sol\":3520:3542  hasRole(role, account) */\n      jump\t// in\n    tag_220:\n        /* \"@openzeppelin/contracts/access/AccessControl.sol\":3515:3623  if (!hasRole(role, account)) {... */\n      tag_221\n      jumpi\n        /* \"@openzeppelin/contracts/access/AccessControl.sol\":3598:3605  account */\n      dup1\n        /* \"@openzeppelin/contracts/access/AccessControl.sol\":3607:3611  role */\n      dup3\n        /* \"@openzeppelin/contracts/access/AccessControl.sol\":3565:3612  AccessControlUnauthorizedAccount(account, role) */\n      mload(0x40)\n      0xe2517d3f00000000000000000000000000000000000000000000000000000000\n      dup2\n      mstore\n      0x04\n      add\n      tag_222\n      swap3\n      swap2\n      swap1\n      tag_223\n      jump\t// in\n    tag_222:\n      mload(0x40)\n      dup1\n      swap2\n      sub\n      swap1\n      revert\n        /* \"@openzeppelin/contracts/access/AccessControl.sol\":3515:3623  if (!hasRole(role, account)) {... */\n    tag_221:\n        /* \"@openzeppelin/contracts/access/AccessControl.sol\":3432:3629  function _checkRole(bytes32 role, address account) internal view virtual {... */\n      pop\n      pop\n      jump\t// out\n        /* \"#utility.yul\":7:82   */\n    tag_224:\n        /* \"#utility.yul\":40:46   */\n      0x00\n        /* \"#utility.yul\":73:75   */\n      0x40\n        /* \"#utility.yul\":67:76   */\n      mload\n        /* \"#utility.yul\":57:76   */\n      swap1\n      pop\n        /* \"#utility.yul\":7:82   */\n      swap1\n      jump\t// out\n        /* \"#utility.yul\":88:205   */\n    tag_225:\n        /* \"#utility.yul\":197:198   */\n      0x00\n        /* \"#utility.yul\":194:195   */\n      dup1\n        /* \"#utility.yul\":187:199   */\n      revert\n        /* \"#utility.yul\":211:328   */\n    tag_226:\n        /* \"#utility.yul\":320:321   */\n      0x00\n        /* \"#utility.yul\":317:318   */\n      dup1\n        /* \"#utility.yul\":310:322   */\n      revert\n        /* \"#utility.yul\":334:483   */\n    tag_227:\n        /* \"#utility.yul\":370:377   */\n      0x00\n        /* \"#utility.yul\":410:476   */\n      0xffffffff00000000000000000000000000000000000000000000000000000000\n        /* \"#utility.yul\":403:408   */\n      dup3\n        /* \"#utility.yul\":399:477   */\n      and\n        /* \"#utility.yul\":388:477   */\n      swap1\n      pop\n        /* \"#utility.yul\":334:483   */\n      swap2\n      swap1\n      pop\n      jump\t// out\n        /* \"#utility.yul\":489:609   */\n    tag_228:\n        /* \"#utility.yul\":561:584   */\n      tag_307\n        /* \"#utility.yul\":578:583   */\n      dup2\n        /* \"#utility.yul\":561:584   */\n      tag_227\n      jump\t// in\n    tag_307:\n        /* \"#utility.yul\":554:559   */\n      dup2\n        /* \"#utility.yul\":551:585   */\n      eq\n        /* \"#utility.yul\":541:603   */\n      tag_308\n      jumpi\n        /* \"#utility.yul\":599:600   */\n      0x00\n        /* \"#utility.yul\":596:597   */\n      dup1\n        /* \"#utility.yul\":589:601   */\n      revert\n        /* \"#utility.yul\":541:603   */\n    tag_308:\n        /* \"#utility.yul\":489:609   */\n      pop\n      jump\t// out\n        /* \"#utility.yul\":615:752   */\n    tag_229:\n        /* \"#utility.yul\":660:665   */\n      0x00\n        /* \"#utility.yul\":698:704   */\n      dup2\n        /* \"#utility.yul\":685:705   */\n      calldataload\n        /* \"#utility.yul\":676:705   */\n      swap1\n      pop\n        /* \"#utility.yul\":714:746   */\n      tag_310\n        /* \"#utility.yul\":740:745   */\n      dup2\n        /* \"#utility.yul\":714:746   */\n      tag_228\n      jump\t// in\n    tag_310:\n        /* \"#utility.yul\":615:752   */\n      swap3\n      swap2\n      pop\n      pop\n      jump\t// out\n        /* \"#utility.yul\":758:1085   */\n    tag_27:\n        /* \"#utility.yul\":816:822   */\n      0x00\n        /* \"#utility.yul\":865:867   */\n      0x20\n        /* \"#utility.yul\":853:862   */\n      dup3\n        /* \"#utility.yul\":844:851   */\n      dup5\n        /* \"#utility.yul\":840:863   */\n      sub\n        /* \"#utility.yul\":836:868   */\n      slt\n        /* \"#utility.yul\":833:952   */\n      iszero\n      tag_312\n      jumpi\n        /* \"#utility.yul\":871:950   */\n      tag_313\n      tag_225\n      jump\t// in\n    tag_313:\n        /* \"#utility.yul\":833:952   */\n    tag_312:\n        /* \"#utility.yul\":991:992   */\n      0x00\n        /* \"#utility.yul\":1016:1068   */\n      tag_314\n        /* \"#utility.yul\":1060:1067   */\n      dup5\n        /* \"#utility.yul\":1051:1057   */\n      dup3\n        /* \"#utility.yul\":1040:1049   */\n      dup6\n        /* \"#utility.yul\":1036:1058   */\n      add\n        /* \"#utility.yul\":1016:1068   */\n      tag_229\n      jump\t// in\n    tag_314:\n        /* \"#utility.yul\":1006:1068   */\n      swap2\n      pop\n        /* \"#utility.yul\":962:1078   */\n      pop\n        /* \"#utility.yul\":758:1085   */\n      swap3\n      swap2\n      pop\n      pop\n      jump\t// out\n        /* \"#utility.yul\":1091:1181   */\n    tag_230:\n        /* \"#utility.yul\":1125:1132   */\n      0x00\n        /* \"#utility.yul\":1168:1173   */\n      dup2\n        /* \"#utility.yul\":1161:1174   */\n      iszero\n        /* \"#utility.yul\":1154:1175   */\n      iszero\n        /* \"#utility.yul\":1143:1175   */\n      swap1\n      pop\n        /* \"#utility.yul\":1091:1181   */\n      swap2\n      swap1\n      pop\n      jump\t// out\n        /* \"#utility.yul\":1187:1296   */\n    tag_231:\n        /* \"#utility.yul\":1268:1289   */\n      tag_317\n        /* \"#utility.yul\":1283:1288   */\n      dup2\n        /* \"#utility.yul\":1268:1289   */\n      tag_230\n      jump\t// in\n    tag_317:\n        /* \"#utility.yul\":1263:1266   */\n      dup3\n        /* \"#utility.yul\":1256:1290   */\n      mstore\n        /* \"#utility.yul\":1187:1296   */\n      pop\n      pop\n      jump\t// out\n        /* \"#utility.yul\":1302:1512   */\n    tag_30:\n        /* \"#utility.yul\":1389:1393   */\n      0x00\n        /* \"#utility.yul\":1427:1429   */\n      0x20\n        /* \"#utility.yul\":1416:1425   */\n      dup3\n        /* \"#utility.yul\":1412:1430   */\n      add\n        /* \"#utility.yul\":1404:1430   */\n      swap1\n      pop\n        /* \"#utility.yul\":1440:1505   */\n      tag_319\n        /* \"#utility.yul\":1502:1503   */\n      0x00\n        /* \"#utility.yul\":1491:1500   */\n      dup4\n        /* \"#utility.yul\":1487:1504   */\n      add\n        /* \"#utility.yul\":1478:1484   */\n      dup5\n        /* \"#utility.yul\":1440:1505   */\n      tag_231\n      jump\t// in\n    tag_319:\n        /* \"#utility.yul\":1302:1512   */\n      swap3\n      swap2\n      pop\n      pop\n      jump\t// out\n        /* \"#utility.yul\":1518:1595   */\n    tag_232:\n        /* \"#utility.yul\":1555:1562   */\n      0x00\n        /* \"#utility.yul\":1584:1589   */\n      dup2\n        /* \"#utility.yul\":1573:1589   */\n      swap1\n      pop\n        /* \"#utility.yul\":1518:1595   */\n      swap2\n      swap1\n      pop\n      jump\t// out\n        /* \"#utility.yul\":1601:1723   */\n    tag_233:\n        /* \"#utility.yul\":1674:1698   */\n      tag_322\n        /* \"#utility.yul\":1692:1697   */\n      dup2\n        /* \"#utility.yul\":1674:1698   */\n      tag_232\n      jump\t// in\n    tag_322:\n        /* \"#utility.yul\":1667:1672   */\n      dup2\n        /* \"#utility.yul\":1664:1699   */\n      eq\n        /* \"#utility.yul\":1654:1717   */\n      tag_323\n      jumpi\n        /* \"#utility.yul\":1713:1714   */\n      0x00\n        /* \"#utility.yul\":1710:1711   */\n      dup1\n        /* \"#utility.yul\":1703:1715   */\n      revert\n        /* \"#utility.yul\":1654:1717   */\n    tag_323:\n        /* \"#utility.yul\":1601:1723   */\n      pop\n      jump\t// out\n        /* \"#utility.yul\":1729:1868   */\n    tag_234:\n        /* \"#utility.yul\":1775:1780   */\n      0x00\n        /* \"#utility.yul\":1813:1819   */\n      dup2\n        /* \"#utility.yul\":1800:1820   */\n      calldataload\n        /* \"#utility.yul\":1791:1820   */\n      swap1\n      pop\n        /* \"#utility.yul\":1829:1862   */\n      tag_325\n        /* \"#utility.yul\":1856:1861   */\n      dup2\n        /* \"#utility.yul\":1829:1862   */\n      tag_233\n      jump\t// in\n    tag_325:\n        /* \"#utility.yul\":1729:1868   */\n      swap3\n      swap2\n      pop\n      pop\n      jump\t// out\n        /* \"#utility.yul\":1874:2203   */\n    tag_33:\n        /* \"#utility.yul\":1933:1939   */\n      0x00\n        /* \"#utility.yul\":1982:1984   */\n      0x20\n        /* \"#utility.yul\":1970:1979   */\n      dup3\n        /* \"#utility.yul\":1961:1968   */\n      dup5\n        /* \"#utility.yul\":1957:1980   */\n      sub\n        /* \"#utility.yul\":1953:1985   */\n      slt\n        /* \"#utility.yul\":1950:2069   */\n      iszero\n      tag_327\n      jumpi\n        /* \"#utility.yul\":1988:2067   */\n      tag_328\n      tag_225\n      jump\t// in\n    tag_328:\n        /* \"#utility.yul\":1950:2069   */\n    tag_327:\n        /* \"#utility.yul\":2108:2109   */\n      0x00\n        /* \"#utility.yul\":2133:2186   */\n      tag_329\n        /* \"#utility.yul\":2178:2185   */\n      dup5\n        /* \"#utility.yul\":2169:2175   */\n      dup3\n        /* \"#utility.yul\":2158:2167   */\n      dup6\n        /* \"#utility.yul\":2154:2176   */\n      add\n        /* \"#utility.yul\":2133:2186   */\n      tag_234\n      jump\t// in\n    tag_329:\n        /* \"#utility.yul\":2123:2186   */\n      swap2\n      pop\n        /* \"#utility.yul\":2079:2196   */\n      pop\n        /* \"#utility.yul\":1874:2203   */\n      swap3\n      swap2\n      pop\n      pop\n      jump\t// out\n        /* \"#utility.yul\":2209:2308   */\n    tag_235:\n        /* \"#utility.yul\":2261:2267   */\n      0x00\n        /* \"#utility.yul\":2295:2300   */\n      dup2\n        /* \"#utility.yul\":2289:2301   */\n      mload\n        /* \"#utility.yul\":2279:2301   */\n      swap1\n      pop\n        /* \"#utility.yul\":2209:2308   */\n      swap2\n      swap1\n      pop\n      jump\t// out\n        /* \"#utility.yul\":2314:2483   */\n    tag_236:\n        /* \"#utility.yul\":2398:2409   */\n      0x00\n        /* \"#utility.yul\":2432:2438   */\n      dup3\n        /* \"#utility.yul\":2427:2430   */\n      dup3\n        /* \"#utility.yul\":2420:2439   */\n      mstore\n        /* \"#utility.yul\":2472:2476   */\n      0x20\n        /* \"#utility.yul\":2467:2470   */\n      dup3\n        /* \"#utility.yul\":2463:2477   */\n      add\n        /* \"#utility.yul\":2448:2477   */\n      swap1\n      pop\n        /* \"#utility.yul\":2314:2483   */\n      swap3\n      swap2\n      pop\n      pop\n      jump\t// out\n        /* \"#utility.yul\":2489:2735   */\n    tag_237:\n        /* \"#utility.yul\":2570:2571   */\n      0x00\n        /* \"#utility.yul\":2580:2693   */\n    tag_333:\n        /* \"#utility.yul\":2594:2600   */\n      dup4\n        /* \"#utility.yul\":2591:2592   */\n      dup2\n        /* \"#utility.yul\":2588:2601   */\n      lt\n        /* \"#utility.yul\":2580:2693   */\n      iszero\n      tag_335\n      jumpi\n        /* \"#utility.yul\":2679:2680   */\n      dup1\n        /* \"#utility.yul\":2674:2677   */\n      dup3\n        /* \"#utility.yul\":2670:2681   */\n      add\n        /* \"#utility.yul\":2664:2682   */\n      mload\n        /* \"#utility.yul\":2660:2661   */\n      dup2\n        /* \"#utility.yul\":2655:2658   */\n      dup5\n        /* \"#utility.yul\":2651:2662   */\n      add\n        /* \"#utility.yul\":2644:2683   */\n      mstore\n        /* \"#utility.yul\":2616:2618   */\n      0x20\n        /* \"#utility.yul\":2613:2614   */\n      dup2\n        /* \"#utility.yul\":2609:2619   */\n      add\n        /* \"#utility.yul\":2604:2619   */\n      swap1\n      pop\n        /* \"#utility.yul\":2580:2693   */\n      jump(tag_333)\n    tag_335:\n        /* \"#utility.yul\":2727:2728   */\n      0x00\n        /* \"#utility.yul\":2718:2724   */\n      dup5\n        /* \"#utility.yul\":2713:2716   */\n      dup5\n        /* \"#utility.yul\":2709:2725   */\n      add\n        /* \"#utility.yul\":2702:2729   */\n      mstore\n        /* \"#utility.yul\":2551:2735   */\n      pop\n        /* \"#utility.yul\":2489:2735   */\n      pop\n      pop\n      pop\n      jump\t// out\n        /* \"#utility.yul\":2741:2843   */\n    tag_238:\n        /* \"#utility.yul\":2782:2788   */\n      0x00\n        /* \"#utility.yul\":2833:2835   */\n      0x1f\n        /* \"#utility.yul\":2829:2836   */\n      not\n        /* \"#utility.yul\":2824:2826   */\n      0x1f\n        /* \"#utility.yul\":2817:2822   */\n      dup4\n        /* \"#utility.yul\":2813:2827   */\n      add\n        /* \"#utility.yul\":2809:2837   */\n      and\n        /* \"#utility.yul\":2799:2837   */\n      swap1\n      pop\n        /* \"#utility.yul\":2741:2843   */\n      swap2\n      swap1\n      pop\n      jump\t// out\n        /* \"#utility.yul\":2849:3226   */\n    tag_239:\n        /* \"#utility.yul\":2937:2940   */\n      0x00\n        /* \"#utility.yul\":2965:3004   */\n      tag_338\n        /* \"#utility.yul\":2998:3003   */\n      dup3\n        /* \"#utility.yul\":2965:3004   */\n      tag_235\n      jump\t// in\n    tag_338:\n        /* \"#utility.yul\":3020:3091   */\n      tag_339\n        /* \"#utility.yul\":3084:3090   */\n      dup2\n        /* \"#utility.yul\":3079:3082   */\n      dup6\n        /* \"#utility.yul\":3020:3091   */\n      tag_236\n      jump\t// in\n    tag_339:\n        /* \"#utility.yul\":3013:3091   */\n      swap4\n      pop\n        /* \"#utility.yul\":3100:3165   */\n      tag_340\n        /* \"#utility.yul\":3158:3164   */\n      dup2\n        /* \"#utility.yul\":3153:3156   */\n      dup6\n        /* \"#utility.yul\":3146:3150   */\n      0x20\n        /* \"#utility.yul\":3139:3144   */\n      dup7\n        /* \"#utility.yul\":3135:3151   */\n      add\n        /* \"#utility.yul\":3100:3165   */\n      tag_237\n      jump\t// in\n    tag_340:\n        /* \"#utility.yul\":3190:3219   */\n      tag_341\n        /* \"#utility.yul\":3212:3218   */\n      dup2\n        /* \"#utility.yul\":3190:3219   */\n      tag_238\n      jump\t// in\n    tag_341:\n        /* \"#utility.yul\":3185:3188   */\n      dup5\n        /* \"#utility.yul\":3181:3220   */\n      add\n        /* \"#utility.yul\":3174:3220   */\n      swap2\n      pop\n        /* \"#utility.yul\":2941:3226   */\n      pop\n        /* \"#utility.yul\":2849:3226   */\n      swap3\n      swap2\n      pop\n      pop\n      jump\t// out\n        /* \"#utility.yul\":3232:3545   */\n    tag_36:\n        /* \"#utility.yul\":3345:3349   */\n      0x00\n        /* \"#utility.yul\":3383:3385   */\n      0x20\n        /* \"#utility.yul\":3372:3381   */\n      dup3\n        /* \"#utility.yul\":3368:3386   */\n      add\n        /* \"#utility.yul\":3360:3386   */\n      swap1\n      pop\n        /* \"#utility.yul\":3432:3441   */\n      dup2\n        /* \"#utility.yul\":3426:3430   */\n      dup2\n        /* \"#utility.yul\":3422:3442   */\n      sub\n        /* \"#utility.yul\":3418:3419   */\n      0x00\n        /* \"#utility.yul\":3407:3416   */\n      dup4\n        /* \"#utility.yul\":3403:3420   */\n      add\n        /* \"#utility.yul\":3396:3443   */\n      mstore\n        /* \"#utility.yul\":3460:3538   */\n      tag_343\n        /* \"#utility.yul\":3533:3537   */\n      dup2\n        /* \"#utility.yul\":3524:3530   */\n      dup5\n        /* \"#utility.yul\":3460:3538   */\n      tag_239\n      jump\t// in\n    tag_343:\n        /* \"#utility.yul\":3452:3538   */\n      swap1\n      pop\n        /* \"#utility.yul\":3232:3545   */\n      swap3\n      swap2\n      pop\n      pop\n      jump\t// out\n        /* \"#utility.yul\":3551:3628   */\n    tag_240:\n        /* \"#utility.yul\":3588:3595   */\n      0x00\n        /* \"#utility.yul\":3617:3622   */\n      dup2\n        /* \"#utility.yul\":3606:3622   */\n      swap1\n      pop\n        /* \"#utility.yul\":3551:3628   */\n      swap2\n      swap1\n      pop\n      jump\t// out\n        /* \"#utility.yul\":3634:3752   */\n    tag_241:\n        /* \"#utility.yul\":3721:3745   */\n      tag_346\n        /* \"#utility.yul\":3739:3744   */\n      dup2\n        /* \"#utility.yul\":3721:3745   */\n      tag_240\n      jump\t// in\n    tag_346:\n        /* \"#utility.yul\":3716:3719   */\n      dup3\n        /* \"#utility.yul\":3709:3746   */\n      mstore\n        /* \"#utility.yul\":3634:3752   */\n      pop\n      pop\n      jump\t// out\n        /* \"#utility.yul\":3758:3980   */\n    tag_40:\n        /* \"#utility.yul\":3851:3855   */\n      0x00\n        /* \"#utility.yul\":3889:3891   */\n      0x20\n        /* \"#utility.yul\":3878:3887   */\n      dup3\n        /* \"#utility.yul\":3874:3892   */\n      add\n        /* \"#utility.yul\":3866:3892   */\n      swap1\n      pop\n        /* \"#utility.yul\":3902:3973   */\n      tag_348\n        /* \"#utility.yul\":3970:3971   */\n      0x00\n        /* \"#utility.yul\":3959:3968   */\n      dup4\n        /* \"#utility.yul\":3955:3972   */\n      add\n        /* \"#utility.yul\":3946:3952   */\n      dup5\n        /* \"#utility.yul\":3902:3973   */\n      tag_241\n      jump\t// in\n    tag_348:\n        /* \"#utility.yul\":3758:3980   */\n      swap3\n      swap2\n      pop\n      pop\n      jump\t// out\n        /* \"#utility.yul\":3986:4112   */\n    tag_242:\n        /* \"#utility.yul\":4023:4030   */\n      0x00\n        /* \"#utility.yul\":4063:4105   */\n      0xffffffffffffffffffffffffffffffffffffffff\n        /* \"#utility.yul\":4056:4061   */\n      dup3\n        /* \"#utility.yul\":4052:4106   */\n      and\n        /* \"#utility.yul\":4041:4106   */\n      swap1\n      pop\n        /* \"#utility.yul\":3986:4112   */\n      swap2\n      swap1\n      pop\n      jump\t// out\n        /* \"#utility.yul\":4118:4214   */\n    tag_243:\n        /* \"#utility.yul\":4155:4162   */\n      0x00\n        /* \"#utility.yul\":4184:4208   */\n      tag_351\n        /* \"#utility.yul\":4202:4207   */\n      dup3\n        /* \"#utility.yul\":4184:4208   */\n      tag_242\n      jump\t// in\n    tag_351:\n        /* \"#utility.yul\":4173:4208   */\n      swap1\n      pop\n        /* \"#utility.yul\":4118:4214   */\n      swap2\n      swap1\n      pop\n      jump\t// out\n        /* \"#utility.yul\":4220:4342   */\n    tag_244:\n        /* \"#utility.yul\":4293:4317   */\n      tag_353\n        /* \"#utility.yul\":4311:4316   */\n      dup2\n        /* \"#utility.yul\":4293:4317   */\n      tag_243\n      jump\t// in\n    tag_353:\n        /* \"#utility.yul\":4286:4291   */\n      dup2\n        /* \"#utility.yul\":4283:4318   */\n      eq\n        /* \"#utility.yul\":4273:4336   */\n      tag_354\n      jumpi\n        /* \"#utility.yul\":4332:4333   */\n      0x00\n        /* \"#utility.yul\":4329:4330   */\n      dup1\n        /* \"#utility.yul\":4322:4334   */\n      revert\n        /* \"#utility.yul\":4273:4336   */\n    tag_354:\n        /* \"#utility.yul\":4220:4342   */\n      pop\n      jump\t// out\n        /* \"#utility.yul\":4348:4487   */\n    tag_245:\n        /* \"#utility.yul\":4394:4399   */\n      0x00\n        /* \"#utility.yul\":4432:4438   */\n      dup2\n        /* \"#utility.yul\":4419:4439   */\n      calldataload\n        /* \"#utility.yul\":4410:4439   */\n      swap1\n      pop\n        /* \"#utility.yul\":4448:4481   */\n      tag_356\n        /* \"#utility.yul\":4475:4480   */\n      dup2\n        /* \"#utility.yul\":4448:4481   */\n      tag_244\n      jump\t// in\n    tag_356:\n        /* \"#utility.yul\":4348:4487   */\n      swap3\n      swap2\n      pop\n      pop\n      jump\t// out\n        /* \"#utility.yul\":4493:4822   */\n    tag_43:\n        /* \"#utility.yul\":4552:4558   */\n      0x00\n        /* \"#utility.yul\":4601:4603   */\n      0x20\n        /* \"#utility.yul\":4589:4598   */\n      dup3\n        /* \"#utility.yul\":4580:4587   */\n      dup5\n        /* \"#utility.yul\":4576:4599   */\n      sub\n        /* \"#utility.yul\":4572:4604   */\n      slt\n        /* \"#utility.yul\":4569:4688   */\n      iszero\n      tag_358\n      jumpi\n        /* \"#utility.yul\":4607:4686   */\n      tag_359\n      tag_225\n      jump\t// in\n    tag_359:\n        /* \"#utility.yul\":4569:4688   */\n    tag_358:\n        /* \"#utility.yul\":4727:4728   */\n      0x00\n        /* \"#utility.yul\":4752:4805   */\n      tag_360\n        /* \"#utility.yul\":4797:4804   */\n      dup5\n        /* \"#utility.yul\":4788:4794   */\n      dup3\n        /* \"#utility.yul\":4777:4786   */\n      dup6\n        /* \"#utility.yul\":4773:4795   */\n      add\n        /* \"#utility.yul\":4752:4805   */\n      tag_245\n      jump\t// in\n    tag_360:\n        /* \"#utility.yul\":4742:4805   */\n      swap2\n      pop\n        /* \"#utility.yul\":4698:4815   */\n      pop\n        /* \"#utility.yul\":4493:4822   */\n      swap3\n      swap2\n      pop\n      pop\n      jump\t// out\n        /* \"#utility.yul\":4828:4950   */\n    tag_246:\n        /* \"#utility.yul\":4901:4925   */\n      tag_362\n        /* \"#utility.yul\":4919:4924   */\n      dup2\n        /* \"#utility.yul\":4901:4925   */\n      tag_240\n      jump\t// in\n    tag_362:\n        /* \"#utility.yul\":4894:4899   */\n      dup2\n        /* \"#utility.yul\":4891:4926   */\n      eq\n        /* \"#utility.yul\":4881:4944   */\n      tag_363\n      jumpi\n        /* \"#utility.yul\":4940:4941   */\n      0x00\n        /* \"#utility.yul\":4937:4938   */\n      dup1\n        /* \"#utility.yul\":4930:4942   */\n      revert\n        /* \"#utility.yul\":4881:4944   */\n    tag_363:\n        /* \"#utility.yul\":4828:4950   */\n      pop\n      jump\t// out\n        /* \"#utility.yul\":4956:5095   */\n    tag_247:\n        /* \"#utility.yul\":5002:5007   */\n      0x00\n        /* \"#utility.yul\":5040:5046   */\n      dup2\n        /* \"#utility.yul\":5027:5047   */\n      calldataload\n        /* \"#utility.yul\":5018:5047   */\n      swap1\n      pop\n        /* \"#utility.yul\":5056:5089   */\n      tag_365\n        /* \"#utility.yul\":5083:5088   */\n      dup2\n        /* \"#utility.yul\":5056:5089   */\n      tag_246\n      jump\t// in\n    tag_365:\n        /* \"#utility.yul\":4956:5095   */\n      swap3\n      swap2\n      pop\n      pop\n      jump\t// out\n        /* \"#utility.yul\":5101:5430   */\n    tag_47:\n        /* \"#utility.yul\":5160:5166   */\n      0x00\n        /* \"#utility.yul\":5209:5211   */\n      0x20\n        /* \"#utility.yul\":5197:5206   */\n      dup3\n        /* \"#utility.yul\":5188:5195   */\n      dup5\n        /* \"#utility.yul\":5184:5207   */\n      sub\n        /* \"#utility.yul\":5180:5212   */\n      slt\n        /* \"#utility.yul\":5177:5296   */\n      iszero\n      tag_367\n      jumpi\n        /* \"#utility.yul\":5215:5294   */\n      tag_368\n      tag_225\n      jump\t// in\n    tag_368:\n        /* \"#utility.yul\":5177:5296   */\n    tag_367:\n        /* \"#utility.yul\":5335:5336   */\n      0x00\n        /* \"#utility.yul\":5360:5413   */\n      tag_369\n        /* \"#utility.yul\":5405:5412   */\n      dup5\n        /* \"#utility.yul\":5396:5402   */\n      dup3\n        /* \"#utility.yul\":5385:5394   */\n      dup6\n        /* \"#utility.yul\":5381:5403   */\n      add\n        /* \"#utility.yul\":5360:5413   */\n      tag_247\n      jump\t// in\n    tag_369:\n        /* \"#utility.yul\":5350:5413   */\n      swap2\n      pop\n        /* \"#utility.yul\":5306:5423   */\n      pop\n        /* \"#utility.yul\":5101:5430   */\n      swap3\n      swap2\n      pop\n      pop\n      jump\t// out\n        /* \"#utility.yul\":5436:5910   */\n    tag_52:\n        /* \"#utility.yul\":5504:5510   */\n      0x00\n        /* \"#utility.yul\":5512:5518   */\n      dup1\n        /* \"#utility.yul\":5561:5563   */\n      0x40\n        /* \"#utility.yul\":5549:5558   */\n      dup4\n        /* \"#utility.yul\":5540:5547   */\n      dup6\n        /* \"#utility.yul\":5536:5559   */\n      sub\n        /* \"#utility.yul\":5532:5564   */\n      slt\n        /* \"#utility.yul\":5529:5648   */\n      iszero\n      tag_371\n      jumpi\n        /* \"#utility.yul\":5567:5646   */\n      tag_372\n      tag_225\n      jump\t// in\n    tag_372:\n        /* \"#utility.yul\":5529:5648   */\n    tag_371:\n        /* \"#utility.yul\":5687:5688   */\n      0x00\n        /* \"#utility.yul\":5712:5765   */\n      tag_373\n        /* \"#utility.yul\":5757:5764   */\n      dup6\n        /* \"#utility.yul\":5748:5754   */\n      dup3\n        /* \"#utility.yul\":5737:5746   */\n      dup7\n        /* \"#utility.yul\":5733:5755   */\n      add\n        /* \"#utility.yul\":5712:5765   */\n      tag_247\n      jump\t// in\n    tag_373:\n        /* \"#utility.yul\":5702:5765   */\n      swap3\n      pop\n        /* \"#utility.yul\":5658:5775   */\n      pop\n        /* \"#utility.yul\":5814:5816   */\n      0x20\n        /* \"#utility.yul\":5840:5893   */\n      tag_374\n        /* \"#utility.yul\":5885:5892   */\n      dup6\n        /* \"#utility.yul\":5876:5882   */\n      dup3\n        /* \"#utility.yul\":5865:5874   */\n      dup7\n        /* \"#utility.yul\":5861:5883   */\n      add\n        /* \"#utility.yul\":5840:5893   */\n      tag_245\n      jump\t// in\n    tag_374:\n        /* \"#utility.yul\":5830:5893   */\n      swap2\n      pop\n        /* \"#utility.yul\":5785:5903   */\n      pop\n        /* \"#utility.yul\":5436:5910   */\n      swap3\n      pop\n      swap3\n      swap1\n      pop\n      jump\t// out\n        /* \"#utility.yul\":5916:6030   */\n    tag_248:\n        /* \"#utility.yul\":5983:5989   */\n      0x00\n        /* \"#utility.yul\":6017:6022   */\n      dup2\n        /* \"#utility.yul\":6011:6023   */\n      mload\n        /* \"#utility.yul\":6001:6023   */\n      swap1\n      pop\n        /* \"#utility.yul\":5916:6030   */\n      swap2\n      swap1\n      pop\n      jump\t// out\n        /* \"#utility.yul\":6036:6220   */\n    tag_249:\n        /* \"#utility.yul\":6135:6146   */\n      0x00\n        /* \"#utility.yul\":6169:6175   */\n      dup3\n        /* \"#utility.yul\":6164:6167   */\n      dup3\n        /* \"#utility.yul\":6157:6176   */\n      mstore\n        /* \"#utility.yul\":6209:6213   */\n      0x20\n        /* \"#utility.yul\":6204:6207   */\n      dup3\n        /* \"#utility.yul\":6200:6214   */\n      add\n        /* \"#utility.yul\":6185:6214   */\n      swap1\n      pop\n        /* \"#utility.yul\":6036:6220   */\n      swap3\n      swap2\n      pop\n      pop\n      jump\t// out\n        /* \"#utility.yul\":6226:6358   */\n    tag_250:\n        /* \"#utility.yul\":6293:6297   */\n      0x00\n        /* \"#utility.yul\":6316:6319   */\n      dup2\n        /* \"#utility.yul\":6308:6319   */\n      swap1\n      pop\n        /* \"#utility.yul\":6346:6350   */\n      0x20\n        /* \"#utility.yul\":6341:6344   */\n      dup3\n        /* \"#utility.yul\":6337:6351   */\n      add\n        /* \"#utility.yul\":6329:6351   */\n      swap1\n      pop\n        /* \"#utility.yul\":6226:6358   */\n      swap2\n      swap1\n      pop\n      jump\t// out\n        /* \"#utility.yul\":6364:6472   */\n    tag_251:\n        /* \"#utility.yul\":6441:6465   */\n      tag_379\n        /* \"#utility.yul\":6459:6464   */\n      dup2\n        /* \"#utility.yul\":6441:6465   */\n      tag_232\n      jump\t// in\n    tag_379:\n        /* \"#utility.yul\":6436:6439   */\n      dup3\n        /* \"#utility.yul\":6429:6466   */\n      mstore\n        /* \"#utility.yul\":6364:6472   */\n      pop\n      pop\n      jump\t// out\n        /* \"#utility.yul\":6478:6657   */\n    tag_252:\n        /* \"#utility.yul\":6547:6557   */\n      0x00\n        /* \"#utility.yul\":6568:6614   */\n      tag_381\n        /* \"#utility.yul\":6610:6613   */\n      dup4\n        /* \"#utility.yul\":6602:6608   */\n      dup4\n        /* \"#utility.yul\":6568:6614   */\n      tag_251\n      jump\t// in\n    tag_381:\n        /* \"#utility.yul\":6646:6650   */\n      0x20\n        /* \"#utility.yul\":6641:6644   */\n      dup4\n        /* \"#utility.yul\":6637:6651   */\n      add\n        /* \"#utility.yul\":6623:6651   */\n      swap1\n      pop\n        /* \"#utility.yul\":6478:6657   */\n      swap3\n      swap2\n      pop\n      pop\n      jump\t// out\n        /* \"#utility.yul\":6663:6776   */\n    tag_253:\n        /* \"#utility.yul\":6733:6737   */\n      0x00\n        /* \"#utility.yul\":6765:6769   */\n      0x20\n        /* \"#utility.yul\":6760:6763   */\n      dup3\n        /* \"#utility.yul\":6756:6770   */\n      add\n        /* \"#utility.yul\":6748:6770   */\n      swap1\n      pop\n        /* \"#utility.yul\":6663:6776   */\n      swap2\n      swap1\n      pop\n      jump\t// out\n        /* \"#utility.yul\":6812:7544   */\n    tag_254:\n        /* \"#utility.yul\":6931:6934   */\n      0x00\n        /* \"#utility.yul\":6960:7014   */\n      tag_384\n        /* \"#utility.yul\":7008:7013   */\n      dup3\n        /* \"#utility.yul\":6960:7014   */\n      tag_248\n      jump\t// in\n    tag_384:\n        /* \"#utility.yul\":7030:7116   */\n      tag_385\n        /* \"#utility.yul\":7109:7115   */\n      dup2\n        /* \"#utility.yul\":7104:7107   */\n      dup6\n        /* \"#utility.yul\":7030:7116   */\n      tag_249\n      jump\t// in\n    tag_385:\n        /* \"#utility.yul\":7023:7116   */\n      swap4\n      pop\n        /* \"#utility.yul\":7140:7196   */\n      tag_386\n        /* \"#utility.yul\":7190:7195   */\n      dup4\n        /* \"#utility.yul\":7140:7196   */\n      tag_250\n      jump\t// in\n    tag_386:\n        /* \"#utility.yul\":7219:7226   */\n      dup1\n        /* \"#utility.yul\":7250:7251   */\n      0x00\n        /* \"#utility.yul\":7235:7519   */\n    tag_387:\n        /* \"#utility.yul\":7260:7266   */\n      dup4\n        /* \"#utility.yul\":7257:7258   */\n      dup2\n        /* \"#utility.yul\":7254:7267   */\n      lt\n        /* \"#utility.yul\":7235:7519   */\n      iszero\n      tag_389\n      jumpi\n        /* \"#utility.yul\":7336:7342   */\n      dup2\n        /* \"#utility.yul\":7330:7343   */\n      mload\n        /* \"#utility.yul\":7363:7426   */\n      tag_390\n        /* \"#utility.yul\":7422:7425   */\n      dup9\n        /* \"#utility.yul\":7407:7420   */\n      dup3\n        /* \"#utility.yul\":7363:7426   */\n      tag_252\n      jump\t// in\n    tag_390:\n        /* \"#utility.yul\":7356:7426   */\n      swap8\n      pop\n        /* \"#utility.yul\":7449:7509   */\n      tag_391\n        /* \"#utility.yul\":7502:7508   */\n      dup4\n        /* \"#utility.yul\":7449:7509   */\n      tag_253\n      jump\t// in\n    tag_391:\n        /* \"#utility.yul\":7439:7509   */\n      swap3\n      pop\n        /* \"#utility.yul\":7295:7519   */\n      pop\n        /* \"#utility.yul\":7282:7283   */\n      0x01\n        /* \"#utility.yul\":7279:7280   */\n      dup2\n        /* \"#utility.yul\":7275:7284   */\n      add\n        /* \"#utility.yul\":7270:7284   */\n      swap1\n      pop\n        /* \"#utility.yul\":7235:7519   */\n      jump(tag_387)\n    tag_389:\n        /* \"#utility.yul\":7239:7253   */\n      pop\n        /* \"#utility.yul\":7535:7538   */\n      dup6\n        /* \"#utility.yul\":7528:7538   */\n      swap4\n      pop\n        /* \"#utility.yul\":6936:7544   */\n      pop\n      pop\n      pop\n        /* \"#utility.yul\":6812:7544   */\n      swap3\n      swap2\n      pop\n      pop\n      jump\t// out\n        /* \"#utility.yul\":7550:7923   */\n    tag_64:\n        /* \"#utility.yul\":7693:7697   */\n      0x00\n        /* \"#utility.yul\":7731:7733   */\n      0x20\n        /* \"#utility.yul\":7720:7729   */\n      dup3\n        /* \"#utility.yul\":7716:7734   */\n      add\n        /* \"#utility.yul\":7708:7734   */\n      swap1\n      pop\n        /* \"#utility.yul\":7780:7789   */\n      dup2\n        /* \"#utility.yul\":7774:7778   */\n      dup2\n        /* \"#utility.yul\":7770:7790   */\n      sub\n        /* \"#utility.yul\":7766:7767   */\n      0x00\n        /* \"#utility.yul\":7755:7764   */\n      dup4\n        /* \"#utility.yul\":7751:7768   */\n      add\n        /* \"#utility.yul\":7744:7791   */\n      mstore\n        /* \"#utility.yul\":7808:7916   */\n      tag_393\n        /* \"#utility.yul\":7911:7915   */\n      dup2\n        /* \"#utility.yul\":7902:7908   */\n      dup5\n        /* \"#utility.yul\":7808:7916   */\n      tag_254\n      jump\t// in\n    tag_393:\n        /* \"#utility.yul\":7800:7916   */\n      swap1\n      pop\n        /* \"#utility.yul\":7550:7923   */\n      swap3\n      swap2\n      pop\n      pop\n      jump\t// out\n        /* \"#utility.yul\":7929:8403   */\n    tag_67:\n        /* \"#utility.yul\":7997:8003   */\n      0x00\n        /* \"#utility.yul\":8005:8011   */\n      dup1\n        /* \"#utility.yul\":8054:8056   */\n      0x40\n        /* \"#utility.yul\":8042:8051   */\n      dup4\n        /* \"#utility.yul\":8033:8040   */\n      dup6\n        /* \"#utility.yul\":8029:8052   */\n      sub\n        /* \"#utility.yul\":8025:8057   */\n      slt\n        /* \"#utility.yul\":8022:8141   */\n      iszero\n      tag_395\n      jumpi\n        /* \"#utility.yul\":8060:8139   */\n      tag_396\n      tag_225\n      jump\t// in\n    tag_396:\n        /* \"#utility.yul\":8022:8141   */\n    tag_395:\n        /* \"#utility.yul\":8180:8181   */\n      0x00\n        /* \"#utility.yul\":8205:8258   */\n      tag_397\n        /* \"#utility.yul\":8250:8257   */\n      dup6\n        /* \"#utility.yul\":8241:8247   */\n      dup3\n        /* \"#utility.yul\":8230:8239   */\n      dup7\n        /* \"#utility.yul\":8226:8248   */\n      add\n        /* \"#utility.yul\":8205:8258   */\n      tag_234\n      jump\t// in\n    tag_397:\n        /* \"#utility.yul\":8195:8258   */\n      swap3\n      pop\n        /* \"#utility.yul\":8151:8268   */\n      pop\n        /* \"#utility.yul\":8307:8309   */\n      0x20\n        /* \"#utility.yul\":8333:8386   */\n      tag_398\n        /* \"#utility.yul\":8378:8385   */\n      dup6\n        /* \"#utility.yul\":8369:8375   */\n      dup3\n        /* \"#utility.yul\":8358:8367   */\n      dup7\n        /* \"#utility.yul\":8354:8376   */\n      add\n        /* \"#utility.yul\":8333:8386   */\n      tag_245\n      jump\t// in\n    tag_398:\n        /* \"#utility.yul\":8323:8386   */\n      swap2\n      pop\n        /* \"#utility.yul\":8278:8396   */\n      pop\n        /* \"#utility.yul\":7929:8403   */\n      swap3\n      pop\n      swap3\n      swap1\n      pop\n      jump\t// out\n        /* \"#utility.yul\":8409:8527   */\n    tag_255:\n        /* \"#utility.yul\":8496:8520   */\n      tag_400\n        /* \"#utility.yul\":8514:8519   */\n      dup2\n        /* \"#utility.yul\":8496:8520   */\n      tag_243\n      jump\t// in\n    tag_400:\n        /* \"#utility.yul\":8491:8494   */\n      dup3\n        /* \"#utility.yul\":8484:8521   */\n      mstore\n        /* \"#utility.yul\":8409:8527   */\n      pop\n      pop\n      jump\t// out\n        /* \"#utility.yul\":8533:8755   */\n    tag_74:\n        /* \"#utility.yul\":8626:8630   */\n      0x00\n        /* \"#utility.yul\":8664:8666   */\n      0x20\n        /* \"#utility.yul\":8653:8662   */\n      dup3\n        /* \"#utility.yul\":8649:8667   */\n      add\n        /* \"#utility.yul\":8641:8667   */\n      swap1\n      pop\n        /* \"#utility.yul\":8677:8748   */\n      tag_402\n        /* \"#utility.yul\":8745:8746   */\n      0x00\n        /* \"#utility.yul\":8734:8743   */\n      dup4\n        /* \"#utility.yul\":8730:8747   */\n      add\n        /* \"#utility.yul\":8721:8727   */\n      dup5\n        /* \"#utility.yul\":8677:8748   */\n      tag_255\n      jump\t// in\n    tag_402:\n        /* \"#utility.yul\":8533:8755   */\n      swap3\n      swap2\n      pop\n      pop\n      jump\t// out\n        /* \"#utility.yul\":8761:8878   */\n    tag_256:\n        /* \"#utility.yul\":8870:8871   */\n      0x00\n        /* \"#utility.yul\":8867:8868   */\n      dup1\n        /* \"#utility.yul\":8860:8872   */\n      revert\n        /* \"#utility.yul\":8884:9001   */\n    tag_257:\n        /* \"#utility.yul\":8993:8994   */\n      0x00\n        /* \"#utility.yul\":8990:8991   */\n      dup1\n        /* \"#utility.yul\":8983:8995   */\n      revert\n        /* \"#utility.yul\":9007:9187   */\n    tag_258:\n        /* \"#utility.yul\":9055:9132   */\n      0x4e487b7100000000000000000000000000000000000000000000000000000000\n        /* \"#utility.yul\":9052:9053   */\n      0x00\n        /* \"#utility.yul\":9045:9133   */\n      mstore\n        /* \"#utility.yul\":9152:9156   */\n      0x41\n        /* \"#utility.yul\":9149:9150   */\n      0x04\n        /* \"#utility.yul\":9142:9157   */\n      mstore\n        /* \"#utility.yul\":9176:9180   */\n      0x24\n        /* \"#utility.yul\":9173:9174   */\n      0x00\n        /* \"#utility.yul\":9166:9181   */\n      revert\n        /* \"#utility.yul\":9193:9474   */\n    tag_259:\n        /* \"#utility.yul\":9276:9303   */\n      tag_407\n        /* \"#utility.yul\":9298:9302   */\n      dup3\n        /* \"#utility.yul\":9276:9303   */\n      tag_238\n      jump\t// in\n    tag_407:\n        /* \"#utility.yul\":9268:9274   */\n      dup2\n        /* \"#utility.yul\":9264:9304   */\n      add\n        /* \"#utility.yul\":9406:9412   */\n      dup2\n        /* \"#utility.yul\":9394:9404   */\n      dup2\n        /* \"#utility.yul\":9391:9413   */\n      lt\n        /* \"#utility.yul\":9370:9388   */\n      0xffffffffffffffff\n        /* \"#utility.yul\":9358:9368   */\n      dup3\n        /* \"#utility.yul\":9355:9389   */\n      gt\n        /* \"#utility.yul\":9352:9414   */\n      or\n        /* \"#utility.yul\":9349:9437   */\n      iszero\n      tag_408\n      jumpi\n        /* \"#utility.yul\":9417:9435   */\n      tag_409\n      tag_258\n      jump\t// in\n    tag_409:\n        /* \"#utility.yul\":9349:9437   */\n    tag_408:\n        /* \"#utility.yul\":9457:9467   */\n      dup1\n        /* \"#utility.yul\":9453:9455   */\n      0x40\n        /* \"#utility.yul\":9446:9468   */\n      mstore\n        /* \"#utility.yul\":9236:9474   */\n      pop\n        /* \"#utility.yul\":9193:9474   */\n      pop\n      pop\n      jump\t// out\n        /* \"#utility.yul\":9480:9609   */\n    tag_260:\n        /* \"#utility.yul\":9514:9520   */\n      0x00\n        /* \"#utility.yul\":9541:9561   */\n      tag_411\n      tag_224\n      jump\t// in\n    tag_411:\n        /* \"#utility.yul\":9531:9561   */\n      swap1\n      pop\n        /* \"#utility.yul\":9570:9603   */\n      tag_412\n        /* \"#utility.yul\":9598:9602   */\n      dup3\n        /* \"#utility.yul\":9590:9596   */\n      dup3\n        /* \"#utility.yul\":9570:9603   */\n      tag_259\n      jump\t// in\n    tag_412:\n        /* \"#utility.yul\":9480:9609   */\n      swap2\n      swap1\n      pop\n      jump\t// out\n        /* \"#utility.yul\":9615:9923   */\n    tag_261:\n        /* \"#utility.yul\":9677:9681   */\n      0x00\n        /* \"#utility.yul\":9767:9785   */\n      0xffffffffffffffff\n        /* \"#utility.yul\":9759:9765   */\n      dup3\n        /* \"#utility.yul\":9756:9786   */\n      gt\n        /* \"#utility.yul\":9753:9809   */\n      iszero\n      tag_414\n      jumpi\n        /* \"#utility.yul\":9789:9807   */\n      tag_415\n      tag_258\n      jump\t// in\n    tag_415:\n        /* \"#utility.yul\":9753:9809   */\n    tag_414:\n        /* \"#utility.yul\":9827:9856   */\n      tag_416\n        /* \"#utility.yul\":9849:9855   */\n      dup3\n        /* \"#utility.yul\":9827:9856   */\n      tag_238\n      jump\t// in\n    tag_416:\n        /* \"#utility.yul\":9819:9856   */\n      swap1\n      pop\n        /* \"#utility.yul\":9911:9915   */\n      0x20\n        /* \"#utility.yul\":9905:9909   */\n      dup2\n        /* \"#utility.yul\":9901:9916   */\n      add\n        /* \"#utility.yul\":9893:9916   */\n      swap1\n      pop\n        /* \"#utility.yul\":9615:9923   */\n      swap2\n      swap1\n      pop\n      jump\t// out\n        /* \"#utility.yul\":9929:10075   */\n    tag_262:\n        /* \"#utility.yul\":10026:10032   */\n      dup3\n        /* \"#utility.yul\":10021:10024   */\n      dup2\n        /* \"#utility.yul\":10016:10019   */\n      dup4\n        /* \"#utility.yul\":10003:10033   */\n      calldatacopy\n        /* \"#utility.yul\":10067:10068   */\n      0x00\n        /* \"#utility.yul\":10058:10064   */\n      dup4\n        /* \"#utility.yul\":10053:10056   */\n      dup4\n        /* \"#utility.yul\":10049:10065   */\n      add\n        /* \"#utility.yul\":10042:10069   */\n      mstore\n        /* \"#utility.yul\":9929:10075   */\n      pop\n      pop\n      pop\n      jump\t// out\n        /* \"#utility.yul\":10081:10506   */\n    tag_263:\n        /* \"#utility.yul\":10159:10164   */\n      0x00\n        /* \"#utility.yul\":10184:10250   */\n      tag_419\n        /* \"#utility.yul\":10200:10249   */\n      tag_420\n        /* \"#utility.yul\":10242:10248   */\n      dup5\n        /* \"#utility.yul\":10200:10249   */\n      tag_261\n      jump\t// in\n    tag_420:\n        /* \"#utility.yul\":10184:10250   */\n      tag_260\n      jump\t// in\n    tag_419:\n        /* \"#utility.yul\":10175:10250   */\n      swap1\n      pop\n        /* \"#utility.yul\":10273:10279   */\n      dup3\n        /* \"#utility.yul\":10266:10271   */\n      dup2\n        /* \"#utility.yul\":10259:10280   */\n      mstore\n        /* \"#utility.yul\":10311:10315   */\n      0x20\n        /* \"#utility.yul\":10304:10309   */\n      dup2\n        /* \"#utility.yul\":10300:10316   */\n      add\n        /* \"#utility.yul\":10349:10352   */\n      dup5\n        /* \"#utility.yul\":10340:10346   */\n      dup5\n        /* \"#utility.yul\":10335:10338   */\n      dup5\n        /* \"#utility.yul\":10331:10347   */\n      add\n        /* \"#utility.yul\":10328:10353   */\n      gt\n        /* \"#utility.yul\":10325:10437   */\n      iszero\n      tag_421\n      jumpi\n        /* \"#utility.yul\":10356:10435   */\n      tag_422\n      tag_257\n      jump\t// in\n    tag_422:\n        /* \"#utility.yul\":10325:10437   */\n    tag_421:\n        /* \"#utility.yul\":10446:10500   */\n      tag_423\n        /* \"#utility.yul\":10493:10499   */\n      dup5\n        /* \"#utility.yul\":10488:10491   */\n      dup3\n        /* \"#utility.yul\":10483:10486   */\n      dup6\n        /* \"#utility.yul\":10446:10500   */\n      tag_262\n      jump\t// in\n    tag_423:\n        /* \"#utility.yul\":10165:10506   */\n      pop\n        /* \"#utility.yul\":10081:10506   */\n      swap4\n      swap3\n      pop\n      pop\n      pop\n      jump\t// out\n        /* \"#utility.yul\":10526:10866   */\n    tag_264:\n        /* \"#utility.yul\":10582:10587   */\n      0x00\n        /* \"#utility.yul\":10631:10634   */\n      dup3\n        /* \"#utility.yul\":10624:10628   */\n      0x1f\n        /* \"#utility.yul\":10616:10622   */\n      dup4\n        /* \"#utility.yul\":10612:10629   */\n      add\n        /* \"#utility.yul\":10608:10635   */\n      slt\n        /* \"#utility.yul\":10598:10720   */\n      tag_425\n      jumpi\n        /* \"#utility.yul\":10639:10718   */\n      tag_426\n      tag_256\n      jump\t// in\n    tag_426:\n        /* \"#utility.yul\":10598:10720   */\n    tag_425:\n        /* \"#utility.yul\":10756:10762   */\n      dup2\n        /* \"#utility.yul\":10743:10763   */\n      calldataload\n        /* \"#utility.yul\":10781:10860   */\n      tag_427\n        /* \"#utility.yul\":10856:10859   */\n      dup5\n        /* \"#utility.yul\":10848:10854   */\n      dup3\n        /* \"#utility.yul\":10841:10845   */\n      0x20\n        /* \"#utility.yul\":10833:10839   */\n      dup7\n        /* \"#utility.yul\":10829:10846   */\n      add\n        /* \"#utility.yul\":10781:10860   */\n      tag_263\n      jump\t// in\n    tag_427:\n        /* \"#utility.yul\":10772:10860   */\n      swap2\n      pop\n        /* \"#utility.yul\":10588:10866   */\n      pop\n        /* \"#utility.yul\":10526:10866   */\n      swap3\n      swap2\n      pop\n      pop\n      jump\t// out\n        /* \"#utility.yul\":10872:11381   */\n    tag_90:\n        /* \"#utility.yul\":10941:10947   */\n      0x00\n        /* \"#utility.yul\":10990:10992   */\n      0x20\n        /* \"#utility.yul\":10978:10987   */\n      dup3\n        /* \"#utility.yul\":10969:10976   */\n      dup5\n        /* \"#utility.yul\":10965:10988   */\n      sub\n        /* \"#utility.yul\":10961:10993   */\n      slt\n        /* \"#utility.yul\":10958:11077   */\n      iszero\n      tag_429\n      jumpi\n        /* \"#utility.yul\":10996:11075   */\n      tag_430\n      tag_225\n      jump\t// in\n    tag_430:\n        /* \"#utility.yul\":10958:11077   */\n    tag_429:\n        /* \"#utility.yul\":11144:11145   */\n      0x00\n        /* \"#utility.yul\":11133:11142   */\n      dup3\n        /* \"#utility.yul\":11129:11146   */\n      add\n        /* \"#utility.yul\":11116:11147   */\n      calldataload\n        /* \"#utility.yul\":11174:11192   */\n      0xffffffffffffffff\n        /* \"#utility.yul\":11166:11172   */\n      dup2\n        /* \"#utility.yul\":11163:11193   */\n      gt\n        /* \"#utility.yul\":11160:11277   */\n      iszero\n      tag_431\n      jumpi\n        /* \"#utility.yul\":11196:11275   */\n      tag_432\n      tag_226\n      jump\t// in\n    tag_432:\n        /* \"#utility.yul\":11160:11277   */\n    tag_431:\n        /* \"#utility.yul\":11301:11364   */\n      tag_433\n        /* \"#utility.yul\":11356:11363   */\n      dup5\n        /* \"#utility.yul\":11347:11353   */\n      dup3\n        /* \"#utility.yul\":11336:11345   */\n      dup6\n        /* \"#utility.yul\":11332:11354   */\n      add\n        /* \"#utility.yul\":11301:11364   */\n      tag_264\n      jump\t// in\n    tag_433:\n        /* \"#utility.yul\":11291:11364   */\n      swap2\n      pop\n        /* \"#utility.yul\":11087:11374   */\n      pop\n        /* \"#utility.yul\":10872:11381   */\n      swap3\n      swap2\n      pop\n      pop\n      jump\t// out\n        /* \"#utility.yul\":11387:11527   */\n    tag_265:\n        /* \"#utility.yul\":11480:11486   */\n      0x00\n        /* \"#utility.yul\":11514:11519   */\n      dup2\n        /* \"#utility.yul\":11508:11520   */\n      mload\n        /* \"#utility.yul\":11498:11520   */\n      swap1\n      pop\n        /* \"#utility.yul\":11387:11527   */\n      swap2\n      swap1\n      pop\n      jump\t// out\n        /* \"#utility.yul\":11533:11743   */\n    tag_266:\n        /* \"#utility.yul\":11658:11669   */\n      0x00\n        /* \"#utility.yul\":11692:11698   */\n      dup3\n        /* \"#utility.yul\":11687:11690   */\n      dup3\n        /* \"#utility.yul\":11680:11699   */\n      mstore\n        /* \"#utility.yul\":11732:11736   */\n      0x20\n        /* \"#utility.yul\":11727:11730   */\n      dup3\n        /* \"#utility.yul\":11723:11737   */\n      add\n        /* \"#utility.yul\":11708:11737   */\n      swap1\n      pop\n        /* \"#utility.yul\":11533:11743   */\n      swap3\n      swap2\n      pop\n      pop\n      jump\t// out\n        /* \"#utility.yul\":11749:11907   */\n    tag_267:\n        /* \"#utility.yul\":11842:11846   */\n      0x00\n        /* \"#utility.yul\":11865:11868   */\n      dup2\n        /* \"#utility.yul\":11857:11868   */\n      swap1\n      pop\n        /* \"#utility.yul\":11895:11899   */\n      0x20\n        /* \"#utility.yul\":11890:11893   */\n      dup3\n        /* \"#utility.yul\":11886:11900   */\n      add\n        /* \"#utility.yul\":11878:11900   */\n      swap1\n      pop\n        /* \"#utility.yul\":11749:11907   */\n      swap2\n      swap1\n      pop\n      jump\t// out\n        /* \"#utility.yul\":11913:12021   */\n    tag_268:\n        /* \"#utility.yul\":11990:12014   */\n      tag_438\n        /* \"#utility.yul\":12008:12013   */\n      dup2\n        /* \"#utility.yul\":11990:12014   */\n      tag_243\n      jump\t// in\n    tag_438:\n        /* \"#utility.yul\":11985:11988   */\n      dup3\n        /* \"#utility.yul\":11978:12015   */\n      mstore\n        /* \"#utility.yul\":11913:12021   */\n      pop\n      pop\n      jump\t// out\n        /* \"#utility.yul\":12121:12809   */\n    tag_269:\n        /* \"#utility.yul\":12260:12264   */\n      0x60\n        /* \"#utility.yul\":12255:12258   */\n      dup3\n        /* \"#utility.yul\":12251:12265   */\n      add\n        /* \"#utility.yul\":12351:12355   */\n      0x00\n        /* \"#utility.yul\":12344:12349   */\n      dup3\n        /* \"#utility.yul\":12340:12356   */\n      add\n        /* \"#utility.yul\":12334:12357   */\n      mload\n        /* \"#utility.yul\":12370:12433   */\n      tag_440\n        /* \"#utility.yul\":12427:12431   */\n      0x00\n        /* \"#utility.yul\":12422:12425   */\n      dup6\n        /* \"#utility.yul\":12418:12432   */\n      add\n        /* \"#utility.yul\":12404:12416   */\n      dup3\n        /* \"#utility.yul\":12370:12433   */\n      tag_251\n      jump\t// in\n    tag_440:\n        /* \"#utility.yul\":12275:12443   */\n      pop\n        /* \"#utility.yul\":12531:12535   */\n      0x20\n        /* \"#utility.yul\":12524:12529   */\n      dup3\n        /* \"#utility.yul\":12520:12536   */\n      add\n        /* \"#utility.yul\":12514:12537   */\n      mload\n        /* \"#utility.yul\":12550:12613   */\n      tag_441\n        /* \"#utility.yul\":12607:12611   */\n      0x20\n        /* \"#utility.yul\":12602:12605   */\n      dup6\n        /* \"#utility.yul\":12598:12612   */\n      add\n        /* \"#utility.yul\":12584:12596   */\n      dup3\n        /* \"#utility.yul\":12550:12613   */\n      tag_268\n      jump\t// in\n    tag_441:\n        /* \"#utility.yul\":12453:12623   */\n      pop\n        /* \"#utility.yul\":12710:12714   */\n      0x40\n        /* \"#utility.yul\":12703:12708   */\n      dup3\n        /* \"#utility.yul\":12699:12715   */\n      add\n        /* \"#utility.yul\":12693:12716   */\n      mload\n        /* \"#utility.yul\":12729:12792   */\n      tag_442\n        /* \"#utility.yul\":12786:12790   */\n      0x40\n        /* \"#utility.yul\":12781:12784   */\n      dup6\n        /* \"#utility.yul\":12777:12791   */\n      add\n        /* \"#utility.yul\":12763:12775   */\n      dup3\n        /* \"#utility.yul\":12729:12792   */\n      tag_251\n      jump\t// in\n    tag_442:\n        /* \"#utility.yul\":12633:12802   */\n      pop\n        /* \"#utility.yul\":12229:12809   */\n      pop\n        /* \"#utility.yul\":12121:12809   */\n      pop\n      pop\n      jump\t// out\n        /* \"#utility.yul\":12815:13098   */\n    tag_270:\n        /* \"#utility.yul\":12936:12946   */\n      0x00\n        /* \"#utility.yul\":12957:13055   */\n      tag_444\n        /* \"#utility.yul\":13051:13054   */\n      dup4\n        /* \"#utility.yul\":13043:13049   */\n      dup4\n        /* \"#utility.yul\":12957:13055   */\n      tag_269\n      jump\t// in\n    tag_444:\n        /* \"#utility.yul\":13087:13091   */\n      0x60\n        /* \"#utility.yul\":13082:13085   */\n      dup4\n        /* \"#utility.yul\":13078:13092   */\n      add\n        /* \"#utility.yul\":13064:13092   */\n      swap1\n      pop\n        /* \"#utility.yul\":12815:13098   */\n      swap3\n      swap2\n      pop\n      pop\n      jump\t// out\n        /* \"#utility.yul\":13104:13243   */\n    tag_271:\n        /* \"#utility.yul\":13200:13204   */\n      0x00\n        /* \"#utility.yul\":13232:13236   */\n      0x20\n        /* \"#utility.yul\":13227:13230   */\n      dup3\n        /* \"#utility.yul\":13223:13237   */\n      add\n        /* \"#utility.yul\":13215:13237   */\n      swap1\n      pop\n        /* \"#utility.yul\":13104:13243   */\n      swap2\n      swap1\n      pop\n      jump\t// out\n        /* \"#utility.yul\":13347:14287   */\n    tag_272:\n        /* \"#utility.yul\":13518:13521   */\n      0x00\n        /* \"#utility.yul\":13547:13627   */\n      tag_447\n        /* \"#utility.yul\":13621:13626   */\n      dup3\n        /* \"#utility.yul\":13547:13627   */\n      tag_265\n      jump\t// in\n    tag_447:\n        /* \"#utility.yul\":13643:13755   */\n      tag_448\n        /* \"#utility.yul\":13748:13754   */\n      dup2\n        /* \"#utility.yul\":13743:13746   */\n      dup6\n        /* \"#utility.yul\":13643:13755   */\n      tag_266\n      jump\t// in\n    tag_448:\n        /* \"#utility.yul\":13636:13755   */\n      swap4\n      pop\n        /* \"#utility.yul\":13779:13861   */\n      tag_449\n        /* \"#utility.yul\":13855:13860   */\n      dup4\n        /* \"#utility.yul\":13779:13861   */\n      tag_267\n      jump\t// in\n    tag_449:\n        /* \"#utility.yul\":13884:13891   */\n      dup1\n        /* \"#utility.yul\":13915:13916   */\n      0x00\n        /* \"#utility.yul\":13900:14262   */\n    tag_450:\n        /* \"#utility.yul\":13925:13931   */\n      dup4\n        /* \"#utility.yul\":13922:13923   */\n      dup2\n        /* \"#utility.yul\":13919:13932   */\n      lt\n        /* \"#utility.yul\":13900:14262   */\n      iszero\n      tag_452\n      jumpi\n        /* \"#utility.yul\":14001:14007   */\n      dup2\n        /* \"#utility.yul\":13995:14008   */\n      mload\n        /* \"#utility.yul\":14028:14143   */\n      tag_453\n        /* \"#utility.yul\":14139:14142   */\n      dup9\n        /* \"#utility.yul\":14124:14137   */\n      dup3\n        /* \"#utility.yul\":14028:14143   */\n      tag_270\n      jump\t// in\n    tag_453:\n        /* \"#utility.yul\":14021:14143   */\n      swap8\n      pop\n        /* \"#utility.yul\":14166:14252   */\n      tag_454\n        /* \"#utility.yul\":14245:14251   */\n      dup4\n        /* \"#utility.yul\":14166:14252   */\n      tag_271\n      jump\t// in\n    tag_454:\n        /* \"#utility.yul\":14156:14252   */\n      swap3\n      pop\n        /* \"#utility.yul\":13960:14262   */\n      pop\n        /* \"#utility.yul\":13947:13948   */\n      0x01\n        /* \"#utility.yul\":13944:13945   */\n      dup2\n        /* \"#utility.yul\":13940:13949   */\n      add\n        /* \"#utility.yul\":13935:13949   */\n      swap1\n      pop\n        /* \"#utility.yul\":13900:14262   */\n      jump(tag_450)\n    tag_452:\n        /* \"#utility.yul\":13904:13918   */\n      pop\n        /* \"#utility.yul\":14278:14281   */\n      dup6\n        /* \"#utility.yul\":14271:14281   */\n      swap4\n      pop\n        /* \"#utility.yul\":13523:14287   */\n      pop\n      pop\n      pop\n        /* \"#utility.yul\":13347:14287   */\n      swap3\n      swap2\n      pop\n      pop\n      jump\t// out\n        /* \"#utility.yul\":14293:14770   */\n    tag_95:\n        /* \"#utility.yul\":14488:14492   */\n      0x00\n        /* \"#utility.yul\":14526:14528   */\n      0x20\n        /* \"#utility.yul\":14515:14524   */\n      dup3\n        /* \"#utility.yul\":14511:14529   */\n      add\n        /* \"#utility.yul\":14503:14529   */\n      swap1\n      pop\n        /* \"#utility.yul\":14575:14584   */\n      dup2\n        /* \"#utility.yul\":14569:14573   */\n      dup2\n        /* \"#utility.yul\":14565:14585   */\n      sub\n        /* \"#utility.yul\":14561:14562   */\n      0x00\n        /* \"#utility.yul\":14550:14559   */\n      dup4\n        /* \"#utility.yul\":14546:14563   */\n      add\n        /* \"#utility.yul\":14539:14586   */\n      mstore\n        /* \"#utility.yul\":14603:14763   */\n      tag_456\n        /* \"#utility.yul\":14758:14762   */\n      dup2\n        /* \"#utility.yul\":14749:14755   */\n      dup5\n        /* \"#utility.yul\":14603:14763   */\n      tag_272\n      jump\t// in\n    tag_456:\n        /* \"#utility.yul\":14595:14763   */\n      swap1\n      pop\n        /* \"#utility.yul\":14293:14770   */\n      swap3\n      swap2\n      pop\n      pop\n      jump\t// out\n        /* \"#utility.yul\":14776:15020   */\n    tag_273:\n        /* \"#utility.yul\":14916:14950   */\n      0x4f6e6c79206f776e6572206f72206865616c7468636172652070726f76696465\n        /* \"#utility.yul\":14912:14913   */\n      0x00\n        /* \"#utility.yul\":14904:14910   */\n      dup3\n        /* \"#utility.yul\":14900:14914   */\n      add\n        /* \"#utility.yul\":14893:14951   */\n      mstore\n        /* \"#utility.yul\":14985:15012   */\n      0x722063616e20706572666f726d207468697320616374696f6e00000000000000\n        /* \"#utility.yul\":14980:14982   */\n      0x20\n        /* \"#utility.yul\":14972:14978   */\n      dup3\n        /* \"#utility.yul\":14968:14983   */\n      add\n        /* \"#utility.yul\":14961:15013   */\n      mstore\n        /* \"#utility.yul\":14776:15020   */\n      pop\n      jump\t// out\n        /* \"#utility.yul\":15026:15392   */\n    tag_274:\n        /* \"#utility.yul\":15168:15171   */\n      0x00\n        /* \"#utility.yul\":15189:15256   */\n      tag_459\n        /* \"#utility.yul\":15253:15255   */\n      0x39\n        /* \"#utility.yul\":15248:15251   */\n      dup4\n        /* \"#utility.yul\":15189:15256   */\n      tag_236\n      jump\t// in\n    tag_459:\n        /* \"#utility.yul\":15182:15256   */\n      swap2\n      pop\n        /* \"#utility.yul\":15265:15358   */\n      tag_460\n        /* \"#utility.yul\":15354:15357   */\n      dup3\n        /* \"#utility.yul\":15265:15358   */\n      tag_273\n      jump\t// in\n    tag_460:\n        /* \"#utility.yul\":15383:15385   */\n      0x40\n        /* \"#utility.yul\":15378:15381   */\n      dup3\n        /* \"#utility.yul\":15374:15386   */\n      add\n        /* \"#utility.yul\":15367:15386   */\n      swap1\n      pop\n        /* \"#utility.yul\":15026:15392   */\n      swap2\n      swap1\n      pop\n      jump\t// out\n        /* \"#utility.yul\":15398:15817   */\n    tag_109:\n        /* \"#utility.yul\":15564:15568   */\n      0x00\n        /* \"#utility.yul\":15602:15604   */\n      0x20\n        /* \"#utility.yul\":15591:15600   */\n      dup3\n        /* \"#utility.yul\":15587:15605   */\n      add\n        /* \"#utility.yul\":15579:15605   */\n      swap1\n      pop\n        /* \"#utility.yul\":15651:15660   */\n      dup2\n        /* \"#utility.yul\":15645:15649   */\n      dup2\n        /* \"#utility.yul\":15641:15661   */\n      sub\n        /* \"#utility.yul\":15637:15638   */\n      0x00\n        /* \"#utility.yul\":15626:15635   */\n      dup4\n        /* \"#utility.yul\":15622:15639   */\n      add\n        /* \"#utility.yul\":15615:15662   */\n      mstore\n        /* \"#utility.yul\":15679:15810   */\n      tag_462\n        /* \"#utility.yul\":15805:15809   */\n      dup2\n        /* \"#utility.yul\":15679:15810   */\n      tag_274\n      jump\t// in\n    tag_462:\n        /* \"#utility.yul\":15671:15810   */\n      swap1\n      pop\n        /* \"#utility.yul\":15398:15817   */\n      swap2\n      swap1\n      pop\n      jump\t// out\n        /* \"#utility.yul\":15823:15994   */\n    tag_275:\n        /* \"#utility.yul\":15963:15986   */\n      0x5265636f726420646f6573206e6f742065786973740000000000000000000000\n        /* \"#utility.yul\":15959:15960   */\n      0x00\n        /* \"#utility.yul\":15951:15957   */\n      dup3\n        /* \"#utility.yul\":15947:15961   */\n      add\n        /* \"#utility.yul\":15940:15987   */\n      mstore\n        /* \"#utility.yul\":15823:15994   */\n      pop\n      jump\t// out\n        /* \"#utility.yul\":16000:16366   */\n    tag_276:\n        /* \"#utility.yul\":16142:16145   */\n      0x00\n        /* \"#utility.yul\":16163:16230   */\n      tag_465\n        /* \"#utility.yul\":16227:16229   */\n      0x15\n        /* \"#utility.yul\":16222:16225   */\n      dup4\n        /* \"#utility.yul\":16163:16230   */\n      tag_236\n      jump\t// in\n    tag_465:\n        /* \"#utility.yul\":16156:16230   */\n      swap2\n      pop\n        /* \"#utility.yul\":16239:16332   */\n      tag_466\n        /* \"#utility.yul\":16328:16331   */\n      dup3\n        /* \"#utility.yul\":16239:16332   */\n      tag_275\n      jump\t// in\n    tag_466:\n        /* \"#utility.yul\":16357:16359   */\n      0x20\n        /* \"#utility.yul\":16352:16355   */\n      dup3\n        /* \"#utility.yul\":16348:16360   */\n      add\n        /* \"#utility.yul\":16341:16360   */\n      swap1\n      pop\n        /* \"#utility.yul\":16000:16366   */\n      swap2\n      swap1\n      pop\n      jump\t// out\n        /* \"#utility.yul\":16372:16791   */\n    tag_113:\n        /* \"#utility.yul\":16538:16542   */\n      0x00\n        /* \"#utility.yul\":16576:16578   */\n      0x20\n        /* \"#utility.yul\":16565:16574   */\n      dup3\n        /* \"#utility.yul\":16561:16579   */\n      add\n        /* \"#utility.yul\":16553:16579   */\n      swap1\n      pop\n        /* \"#utility.yul\":16625:16634   */\n      dup2\n        /* \"#utility.yul\":16619:16623   */\n      dup2\n        /* \"#utility.yul\":16615:16635   */\n      sub\n        /* \"#utility.yul\":16611:16612   */\n      0x00\n        /* \"#utility.yul\":16600:16609   */\n      dup4\n        /* \"#utility.yul\":16596:16613   */\n      add\n        /* \"#utility.yul\":16589:16636   */\n      mstore\n        /* \"#utility.yul\":16653:16784   */\n      tag_468\n        /* \"#utility.yul\":16779:16783   */\n      dup2\n        /* \"#utility.yul\":16653:16784   */\n      tag_276\n      jump\t// in\n    tag_468:\n        /* \"#utility.yul\":16645:16784   */\n      swap1\n      pop\n        /* \"#utility.yul\":16372:16791   */\n      swap2\n      swap1\n      pop\n      jump\t// out\n        /* \"#utility.yul\":16797:16960   */\n    tag_277:\n        /* \"#utility.yul\":16937:16952   */\n      0x4163636573732064656e69656400000000000000000000000000000000000000\n        /* \"#utility.yul\":16933:16934   */\n      0x00\n        /* \"#utility.yul\":16925:16931   */\n      dup3\n        /* \"#utility.yul\":16921:16935   */\n      add\n        /* \"#utility.yul\":16914:16953   */\n      mstore\n        /* \"#utility.yul\":16797:16960   */\n      pop\n      jump\t// out\n        /* \"#utility.yul\":16966:17332   */\n    tag_278:\n        /* \"#utility.yul\":17108:17111   */\n      0x00\n        /* \"#utility.yul\":17129:17196   */\n      tag_471\n        /* \"#utility.yul\":17193:17195   */\n      0x0d\n        /* \"#utility.yul\":17188:17191   */\n      dup4\n        /* \"#utility.yul\":17129:17196   */\n      tag_236\n      jump\t// in\n    tag_471:\n        /* \"#utility.yul\":17122:17196   */\n      swap2\n      pop\n        /* \"#utility.yul\":17205:17298   */\n      tag_472\n        /* \"#utility.yul\":17294:17297   */\n      dup3\n        /* \"#utility.yul\":17205:17298   */\n      tag_277\n      jump\t// in\n    tag_472:\n        /* \"#utility.yul\":17323:17325   */\n      0x20\n        /* \"#utility.yul\":17318:17321   */\n      dup3\n        /* \"#utility.yul\":17314:17326   */\n      add\n        /* \"#utility.yul\":17307:17326   */\n      swap1\n      pop\n        /* \"#utility.yul\":16966:17332   */\n      swap2\n      swap1\n      pop\n      jump\t// out\n        /* \"#utility.yul\":17338:17757   */\n    tag_117:\n        /* \"#utility.yul\":17504:17508   */\n      0x00\n        /* \"#utility.yul\":17542:17544   */\n      0x20\n        /* \"#utility.yul\":17531:17540   */\n      dup3\n        /* \"#utility.yul\":17527:17545   */\n      add\n        /* \"#utility.yul\":17519:17545   */\n      swap1\n      pop\n        /* \"#utility.yul\":17591:17600   */\n      dup2\n        /* \"#utility.yul\":17585:17589   */\n      dup2\n        /* \"#utility.yul\":17581:17601   */\n      sub\n        /* \"#utility.yul\":17577:17578   */\n      0x00\n        /* \"#utility.yul\":17566:17575   */\n      dup4\n        /* \"#utility.yul\":17562:17579   */\n      add\n        /* \"#utility.yul\":17555:17602   */\n      mstore\n        /* \"#utility.yul\":17619:17750   */\n      tag_474\n        /* \"#utility.yul\":17745:17749   */\n      dup2\n        /* \"#utility.yul\":17619:17750   */\n      tag_278\n      jump\t// in\n    tag_474:\n        /* \"#utility.yul\":17611:17750   */\n      swap1\n      pop\n        /* \"#utility.yul\":17338:17757   */\n      swap2\n      swap1\n      pop\n      jump\t// out\n        /* \"#utility.yul\":17763:17881   */\n    tag_279:\n        /* \"#utility.yul\":17850:17874   */\n      tag_476\n        /* \"#utility.yul\":17868:17873   */\n      dup2\n        /* \"#utility.yul\":17850:17874   */\n      tag_232\n      jump\t// in\n    tag_476:\n        /* \"#utility.yul\":17845:17848   */\n      dup3\n        /* \"#utility.yul\":17838:17875   */\n      mstore\n        /* \"#utility.yul\":17763:17881   */\n      pop\n      pop\n      jump\t// out\n        /* \"#utility.yul\":17887:18219   */\n    tag_120:\n        /* \"#utility.yul\":18008:18012   */\n      0x00\n        /* \"#utility.yul\":18046:18048   */\n      0x40\n        /* \"#utility.yul\":18035:18044   */\n      dup3\n        /* \"#utility.yul\":18031:18049   */\n      add\n        /* \"#utility.yul\":18023:18049   */\n      swap1\n      pop\n        /* \"#utility.yul\":18059:18130   */\n      tag_478\n        /* \"#utility.yul\":18127:18128   */\n      0x00\n        /* \"#utility.yul\":18116:18125   */\n      dup4\n        /* \"#utility.yul\":18112:18129   */\n      add\n        /* \"#utility.yul\":18103:18109   */\n      dup6\n        /* \"#utility.yul\":18059:18130   */\n      tag_279\n      jump\t// in\n    tag_478:\n        /* \"#utility.yul\":18140:18212   */\n      tag_479\n        /* \"#utility.yul\":18208:18210   */\n      0x20\n        /* \"#utility.yul\":18197:18206   */\n      dup4\n        /* \"#utility.yul\":18193:18211   */\n      add\n        /* \"#utility.yul\":18184:18190   */\n      dup5\n        /* \"#utility.yul\":18140:18212   */\n      tag_255\n      jump\t// in\n    tag_479:\n        /* \"#utility.yul\":17887:18219   */\n      swap4\n      swap3\n      pop\n      pop\n      pop\n      jump\t// out\n        /* \"#utility.yul\":18225:18405   */\n    tag_280:\n        /* \"#utility.yul\":18273:18350   */\n      0x4e487b7100000000000000000000000000000000000000000000000000000000\n        /* \"#utility.yul\":18270:18271   */\n      0x00\n        /* \"#utility.yul\":18263:18351   */\n      mstore\n        /* \"#utility.yul\":18370:18374   */\n      0x22\n        /* \"#utility.yul\":18367:18368   */\n      0x04\n        /* \"#utility.yul\":18360:18375   */\n      mstore\n        /* \"#utility.yul\":18394:18398   */\n      0x24\n        /* \"#utility.yul\":18391:18392   */\n      0x00\n        /* \"#utility.yul\":18384:18399   */\n      revert\n        /* \"#utility.yul\":18411:18731   */\n    tag_122:\n        /* \"#utility.yul\":18455:18461   */\n      0x00\n        /* \"#utility.yul\":18492:18493   */\n      0x02\n        /* \"#utility.yul\":18486:18490   */\n      dup3\n        /* \"#utility.yul\":18482:18494   */\n      div\n        /* \"#utility.yul\":18472:18494   */\n      swap1\n      pop\n        /* \"#utility.yul\":18539:18540   */\n      0x01\n        /* \"#utility.yul\":18533:18537   */\n      dup3\n        /* \"#utility.yul\":18529:18541   */\n      and\n        /* \"#utility.yul\":18560:18578   */\n      dup1\n        /* \"#utility.yul\":18550:18631   */\n      tag_482\n      jumpi\n        /* \"#utility.yul\":18616:18620   */\n      0x7f\n        /* \"#utility.yul\":18608:18614   */\n      dup3\n        /* \"#utility.yul\":18604:18621   */\n      and\n        /* \"#utility.yul\":18594:18621   */\n      swap2\n      pop\n        /* \"#utility.yul\":18550:18631   */\n    tag_482:\n        /* \"#utility.yul\":18678:18680   */\n      0x20\n        /* \"#utility.yul\":18670:18676   */\n      dup3\n        /* \"#utility.yul\":18667:18681   */\n      lt\n        /* \"#utility.yul\":18647:18665   */\n      dup2\n        /* \"#utility.yul\":18644:18682   */\n      sub\n        /* \"#utility.yul\":18641:18725   */\n      tag_483\n      jumpi\n        /* \"#utility.yul\":18697:18715   */\n      tag_484\n      tag_280\n      jump\t// in\n    tag_484:\n        /* \"#utility.yul\":18641:18725   */\n    tag_483:\n        /* \"#utility.yul\":18462:18731   */\n      pop\n        /* \"#utility.yul\":18411:18731   */\n      swap2\n      swap1\n      pop\n      jump\t// out\n        /* \"#utility.yul\":18737:18914   */\n    tag_281:\n        /* \"#utility.yul\":18877:18906   */\n      0x4f6e6c79206f776e65722063616e206772616e74206163636573730000000000\n        /* \"#utility.yul\":18873:18874   */\n      0x00\n        /* \"#utility.yul\":18865:18871   */\n      dup3\n        /* \"#utility.yul\":18861:18875   */\n      add\n        /* \"#utility.yul\":18854:18907   */\n      mstore\n        /* \"#utility.yul\":18737:18914   */\n      pop\n      jump\t// out\n        /* \"#utility.yul\":18920:19286   */\n    tag_282:\n        /* \"#utility.yul\":19062:19065   */\n      0x00\n        /* \"#utility.yul\":19083:19150   */\n      tag_487\n        /* \"#utility.yul\":19147:19149   */\n      0x1b\n        /* \"#utility.yul\":19142:19145   */\n      dup4\n        /* \"#utility.yul\":19083:19150   */\n      tag_236\n      jump\t// in\n    tag_487:\n        /* \"#utility.yul\":19076:19150   */\n      swap2\n      pop\n        /* \"#utility.yul\":19159:19252   */\n      tag_488\n        /* \"#utility.yul\":19248:19251   */\n      dup3\n        /* \"#utility.yul\":19159:19252   */\n      tag_281\n      jump\t// in\n    tag_488:\n        /* \"#utility.yul\":19277:19279   */\n      0x20\n        /* \"#utility.yul\":19272:19275   */\n      dup3\n        /* \"#utility.yul\":19268:19280   */\n      add\n        /* \"#utility.yul\":19261:19280   */\n      swap1\n      pop\n        /* \"#utility.yul\":18920:19286   */\n      swap2\n      swap1\n      pop\n      jump\t// out\n        /* \"#utility.yul\":19292:19711   */\n    tag_158:\n        /* \"#utility.yul\":19458:19462   */\n      0x00\n        /* \"#utility.yul\":19496:19498   */\n      0x20\n        /* \"#utility.yul\":19485:19494   */\n      dup3\n        /* \"#utility.yul\":19481:19499   */\n      add\n        /* \"#utility.yul\":19473:19499   */\n      swap1\n      pop\n        /* \"#utility.yul\":19545:19554   */\n      dup2\n        /* \"#utility.yul\":19539:19543   */\n      dup2\n        /* \"#utility.yul\":19535:19555   */\n      sub\n        /* \"#utility.yul\":19531:19532   */\n      0x00\n        /* \"#utility.yul\":19520:19529   */\n      dup4\n        /* \"#utility.yul\":19516:19533   */\n      add\n        /* \"#utility.yul\":19509:19556   */\n      mstore\n        /* \"#utility.yul\":19573:19704   */\n      tag_490\n        /* \"#utility.yul\":19699:19703   */\n      dup2\n        /* \"#utility.yul\":19573:19704   */\n      tag_282\n      jump\t// in\n    tag_490:\n        /* \"#utility.yul\":19565:19704   */\n      swap1\n      pop\n        /* \"#utility.yul\":19292:19711   */\n      swap2\n      swap1\n      pop\n      jump\t// out\n        /* \"#utility.yul\":19717:19895   */\n    tag_283:\n        /* \"#utility.yul\":19857:19887   */\n      0x4f6e6c79206f776e65722063616e207265766f6b652061636365737300000000\n        /* \"#utility.yul\":19853:19854   */\n      0x00\n        /* \"#utility.yul\":19845:19851   */\n      dup3\n        /* \"#utility.yul\":19841:19855   */\n      add\n        /* \"#utility.yul\":19834:19888   */\n      mstore\n        /* \"#utility.yul\":19717:19895   */\n      pop\n      jump\t// out\n        /* \"#utility.yul\":19901:20267   */\n    tag_284:\n        /* \"#utility.yul\":20043:20046   */\n      0x00\n        /* \"#utility.yul\":20064:20131   */\n      tag_493\n        /* \"#utility.yul\":20128:20130   */\n      0x1c\n        /* \"#utility.yul\":20123:20126   */\n      dup4\n        /* \"#utility.yul\":20064:20131   */\n      tag_236\n      jump\t// in\n    tag_493:\n        /* \"#utility.yul\":20057:20131   */\n      swap2\n      pop\n        /* \"#utility.yul\":20140:20233   */\n      tag_494\n        /* \"#utility.yul\":20229:20232   */\n      dup3\n        /* \"#utility.yul\":20140:20233   */\n      tag_283\n      jump\t// in\n    tag_494:\n        /* \"#utility.yul\":20258:20260   */\n      0x20\n        /* \"#utility.yul\":20253:20256   */\n      dup3\n        /* \"#utility.yul\":20249:20261   */\n      add\n        /* \"#utility.yul\":20242:20261   */\n      swap1\n      pop\n        /* \"#utility.yul\":19901:20267   */\n      swap2\n      swap1\n      pop\n      jump\t// out\n        /* \"#utility.yul\":20273:20692   */\n    tag_177:\n        /* \"#utility.yul\":20439:20443   */\n      0x00\n        /* \"#utility.yul\":20477:20479   */\n      0x20\n        /* \"#utility.yul\":20466:20475   */\n      dup3\n        /* \"#utility.yul\":20462:20480   */\n      add\n        /* \"#utility.yul\":20454:20480   */\n      swap1\n      pop\n        /* \"#utility.yul\":20526:20535   */\n      dup2\n        /* \"#utility.yul\":20520:20524   */\n      dup2\n        /* \"#utility.yul\":20516:20536   */\n      sub\n        /* \"#utility.yul\":20512:20513   */\n      0x00\n        /* \"#utility.yul\":20501:20510   */\n      dup4\n        /* \"#utility.yul\":20497:20514   */\n      add\n        /* \"#utility.yul\":20490:20537   */\n      mstore\n        /* \"#utility.yul\":20554:20685   */\n      tag_496\n        /* \"#utility.yul\":20680:20684   */\n      dup2\n        /* \"#utility.yul\":20554:20685   */\n      tag_284\n      jump\t// in\n    tag_496:\n        /* \"#utility.yul\":20546:20685   */\n      swap1\n      pop\n        /* \"#utility.yul\":20273:20692   */\n      swap2\n      swap1\n      pop\n      jump\t// out\n        /* \"#utility.yul\":20698:20878   */\n    tag_285:\n        /* \"#utility.yul\":20746:20823   */\n      0x4e487b7100000000000000000000000000000000000000000000000000000000\n        /* \"#utility.yul\":20743:20744   */\n      0x00\n        /* \"#utility.yul\":20736:20824   */\n      mstore\n        /* \"#utility.yul\":20843:20847   */\n      0x11\n        /* \"#utility.yul\":20840:20841   */\n      0x04\n        /* \"#utility.yul\":20833:20848   */\n      mstore\n        /* \"#utility.yul\":20867:20871   */\n      0x24\n        /* \"#utility.yul\":20864:20865   */\n      0x00\n        /* \"#utility.yul\":20857:20872   */\n      revert\n        /* \"#utility.yul\":20884:21117   */\n    tag_181:\n        /* \"#utility.yul\":20923:20926   */\n      0x00\n        /* \"#utility.yul\":20946:20970   */\n      tag_499\n        /* \"#utility.yul\":20964:20969   */\n      dup3\n        /* \"#utility.yul\":20946:20970   */\n      tag_232\n      jump\t// in\n    tag_499:\n        /* \"#utility.yul\":20937:20970   */\n      swap2\n      pop\n        /* \"#utility.yul\":20992:21058   */\n      0xffffffffffffffffffffffffffffffffffffffffffffffffffffffffffffffff\n        /* \"#utility.yul\":20985:20990   */\n      dup3\n        /* \"#utility.yul\":20982:21059   */\n      sub\n        /* \"#utility.yul\":20979:21082   */\n      tag_500\n      jumpi\n        /* \"#utility.yul\":21062:21080   */\n      tag_501\n      tag_285\n      jump\t// in\n    tag_501:\n        /* \"#utility.yul\":20979:21082   */\n    tag_500:\n        /* \"#utility.yul\":21109:21110   */\n      0x01\n        /* \"#utility.yul\":21102:21107   */\n      dup3\n        /* \"#utility.yul\":21098:21111   */\n      add\n        /* \"#utility.yul\":21091:21111   */\n      swap1\n      pop\n        /* \"#utility.yul\":20884:21117   */\n      swap2\n      swap1\n      pop\n      jump\t// out\n        /* \"#utility.yul\":21123:21264   */\n    tag_286:\n        /* \"#utility.yul\":21172:21176   */\n      0x00\n        /* \"#utility.yul\":21195:21198   */\n      dup2\n        /* \"#utility.yul\":21187:21198   */\n      swap1\n      pop\n        /* \"#utility.yul\":21218:21221   */\n      dup2\n        /* \"#utility.yul\":21215:21216   */\n      0x00\n        /* \"#utility.yul\":21208:21222   */\n      mstore\n        /* \"#utility.yul\":21252:21256   */\n      0x20\n        /* \"#utility.yul\":21249:21250   */\n      0x00\n        /* \"#utility.yul\":21239:21257   */\n      keccak256\n        /* \"#utility.yul\":21231:21257   */\n      swap1\n      pop\n        /* \"#utility.yul\":21123:21264   */\n      swap2\n      swap1\n      pop\n      jump\t// out\n        /* \"#utility.yul\":21270:21363   */\n    tag_287:\n        /* \"#utility.yul\":21307:21313   */\n      0x00\n        /* \"#utility.yul\":21354:21356   */\n      0x20\n        /* \"#utility.yul\":21349:21351   */\n      0x1f\n        /* \"#utility.yul\":21342:21347   */\n      dup4\n        /* \"#utility.yul\":21338:21352   */\n      add\n        /* \"#utility.yul\":21334:21357   */\n      div\n        /* \"#utility.yul\":21324:21357   */\n      swap1\n      pop\n        /* \"#utility.yul\":21270:21363   */\n      swap2\n      swap1\n      pop\n      jump\t// out\n        /* \"#utility.yul\":21369:21476   */\n    tag_288:\n        /* \"#utility.yul\":21413:21421   */\n      0x00\n        /* \"#utility.yul\":21463:21468   */\n      dup3\n        /* \"#utility.yul\":21457:21461   */\n      dup3\n        /* \"#utility.yul\":21453:21469   */\n      shl\n        /* \"#utility.yul\":21432:21469   */\n      swap1\n      pop\n        /* \"#utility.yul\":21369:21476   */\n      swap3\n      swap2\n      pop\n      pop\n      jump\t// out\n        /* \"#utility.yul\":21482:21875   */\n    tag_289:\n        /* \"#utility.yul\":21551:21557   */\n      0x00\n        /* \"#utility.yul\":21601:21602   */\n      0x08\n        /* \"#utility.yul\":21589:21599   */\n      dup4\n        /* \"#utility.yul\":21585:21603   */\n      mul\n        /* \"#utility.yul\":21624:21721   */\n      tag_506\n        /* \"#utility.yul\":21654:21720   */\n      0xffffffffffffffffffffffffffffffffffffffffffffffffffffffffffffffff\n        /* \"#utility.yul\":21643:21652   */\n      dup3\n        /* \"#utility.yul\":21624:21721   */\n      tag_288\n      jump\t// in\n    tag_506:\n        /* \"#utility.yul\":21742:21781   */\n      tag_507\n        /* \"#utility.yul\":21772:21780   */\n      dup7\n        /* \"#utility.yul\":21761:21770   */\n      dup4\n        /* \"#utility.yul\":21742:21781   */\n      tag_288\n      jump\t// in\n    tag_507:\n        /* \"#utility.yul\":21730:21781   */\n      swap6\n      pop\n        /* \"#utility.yul\":21814:21818   */\n      dup1\n        /* \"#utility.yul\":21810:21819   */\n      not\n        /* \"#utility.yul\":21803:21808   */\n      dup5\n        /* \"#utility.yul\":21799:21820   */\n      and\n        /* \"#utility.yul\":21790:21820   */\n      swap4\n      pop\n        /* \"#utility.yul\":21863:21867   */\n      dup1\n        /* \"#utility.yul\":21853:21861   */\n      dup7\n        /* \"#utility.yul\":21849:21868   */\n      and\n        /* \"#utility.yul\":21842:21847   */\n      dup5\n        /* \"#utility.yul\":21839:21869   */\n      or\n        /* \"#utility.yul\":21829:21869   */\n      swap3\n      pop\n        /* \"#utility.yul\":21558:21875   */\n      pop\n      pop\n        /* \"#utility.yul\":21482:21875   */\n      swap4\n      swap3\n      pop\n      pop\n      pop\n      jump\t// out\n        /* \"#utility.yul\":21881:21941   */\n    tag_290:\n        /* \"#utility.yul\":21909:21912   */\n      0x00\n        /* \"#utility.yul\":21930:21935   */\n      dup2\n        /* \"#utility.yul\":21923:21935   */\n      swap1\n      pop\n        /* \"#utility.yul\":21881:21941   */\n      swap2\n      swap1\n      pop\n      jump\t// out\n        /* \"#utility.yul\":21947:22089   */\n    tag_291:\n        /* \"#utility.yul\":21997:22006   */\n      0x00\n        /* \"#utility.yul\":22030:22083   */\n      tag_510\n        /* \"#utility.yul\":22048:22082   */\n      tag_511\n        /* \"#utility.yul\":22057:22081   */\n      tag_512\n        /* \"#utility.yul\":22075:22080   */\n      dup5\n        /* \"#utility.yul\":22057:22081   */\n      tag_232\n      jump\t// in\n    tag_512:\n        /* \"#utility.yul\":22048:22082   */\n      tag_290\n      jump\t// in\n    tag_511:\n        /* \"#utility.yul\":22030:22083   */\n      tag_232\n      jump\t// in\n    tag_510:\n        /* \"#utility.yul\":22017:22083   */\n      swap1\n      pop\n        /* \"#utility.yul\":21947:22089   */\n      swap2\n      swap1\n      pop\n      jump\t// out\n        /* \"#utility.yul\":22095:22170   */\n    tag_292:\n        /* \"#utility.yul\":22138:22141   */\n      0x00\n        /* \"#utility.yul\":22159:22164   */\n      dup2\n        /* \"#utility.yul\":22152:22164   */\n      swap1\n      pop\n        /* \"#utility.yul\":22095:22170   */\n      swap2\n      swap1\n      pop\n      jump\t// out\n        /* \"#utility.yul\":22176:22445   */\n    tag_293:\n        /* \"#utility.yul\":22286:22325   */\n      tag_515\n        /* \"#utility.yul\":22317:22324   */\n      dup4\n        /* \"#utility.yul\":22286:22325   */\n      tag_291\n      jump\t// in\n    tag_515:\n        /* \"#utility.yul\":22347:22438   */\n      tag_516\n        /* \"#utility.yul\":22396:22437   */\n      tag_517\n        /* \"#utility.yul\":22420:22436   */\n      dup3\n        /* \"#utility.yul\":22396:22437   */\n      tag_292\n      jump\t// in\n    tag_517:\n        /* \"#utility.yul\":22388:22394   */\n      dup5\n        /* \"#utility.yul\":22381:22385   */\n      dup5\n        /* \"#utility.yul\":22375:22386   */\n      sload\n        /* \"#utility.yul\":22347:22438   */\n      tag_289\n      jump\t// in\n    tag_516:\n        /* \"#utility.yul\":22341:22345   */\n      dup3\n        /* \"#utility.yul\":22334:22439   */\n      sstore\n        /* \"#utility.yul\":22252:22445   */\n      pop\n        /* \"#utility.yul\":22176:22445   */\n      pop\n      pop\n      pop\n      jump\t// out\n        /* \"#utility.yul\":22451:22524   */\n    tag_294:\n        /* \"#utility.yul\":22496:22499   */\n      0x00\n        /* \"#utility.yul\":22451:22524   */\n      swap1\n      jump\t// out\n        /* \"#utility.yul\":22530:22719   */\n    tag_295:\n        /* \"#utility.yul\":22607:22639   */\n      tag_520\n      tag_294\n      jump\t// in\n    tag_520:\n        /* \"#utility.yul\":22648:22713   */\n      tag_521\n        /* \"#utility.yul\":22706:22712   */\n      dup2\n        /* \"#utility.yul\":22698:22704   */\n      dup5\n        /* \"#utility.yul\":22692:22696   */\n      dup5\n        /* \"#utility.yul\":22648:22713   */\n      tag_293\n      jump\t// in\n    tag_521:\n        /* \"#utility.yul\":22583:22719   */\n      pop\n        /* \"#utility.yul\":22530:22719   */\n      pop\n      pop\n      jump\t// out\n        /* \"#utility.yul\":22725:22911   */\n    tag_296:\n        /* \"#utility.yul\":22785:22905   */\n    tag_523:\n        /* \"#utility.yul\":22802:22805   */\n      dup2\n        /* \"#utility.yul\":22795:22800   */\n      dup2\n        /* \"#utility.yul\":22792:22806   */\n      lt\n        /* \"#utility.yul\":22785:22905   */\n      iszero\n      tag_525\n      jumpi\n        /* \"#utility.yul\":22856:22895   */\n      tag_526\n        /* \"#utility.yul\":22893:22894   */\n      0x00\n        /* \"#utility.yul\":22886:22891   */\n      dup3\n        /* \"#utility.yul\":22856:22895   */\n      tag_295\n      jump\t// in\n    tag_526:\n        /* \"#utility.yul\":22829:22830   */\n      0x01\n        /* \"#utility.yul\":22822:22827   */\n      dup2\n        /* \"#utility.yul\":22818:22831   */\n      add\n        /* \"#utility.yul\":22809:22831   */\n      swap1\n      pop\n        /* \"#utility.yul\":22785:22905   */\n      jump(tag_523)\n    tag_525:\n        /* \"#utility.yul\":22725:22911   */\n      pop\n      pop\n      jump\t// out\n        /* \"#utility.yul\":22917:23460   */\n    tag_297:\n        /* \"#utility.yul\":23018:23020   */\n      0x1f\n        /* \"#utility.yul\":23013:23016   */\n      dup3\n        /* \"#utility.yul\":23010:23021   */\n      gt\n        /* \"#utility.yul\":23007:23453   */\n      iszero\n      tag_528\n      jumpi\n        /* \"#utility.yul\":23052:23090   */\n      tag_529\n        /* \"#utility.yul\":23084:23089   */\n      dup2\n        /* \"#utility.yul\":23052:23090   */\n      tag_286\n      jump\t// in\n    tag_529:\n        /* \"#utility.yul\":23136:23165   */\n      tag_530\n        /* \"#utility.yul\":23154:23164   */\n      dup5\n        /* \"#utility.yul\":23136:23165   */\n      tag_287\n      jump\t// in\n    tag_530:\n        /* \"#utility.yul\":23126:23134   */\n      dup2\n        /* \"#utility.yul\":23122:23166   */\n      add\n        /* \"#utility.yul\":23319:23321   */\n      0x20\n        /* \"#utility.yul\":23307:23317   */\n      dup6\n        /* \"#utility.yul\":23304:23322   */\n      lt\n        /* \"#utility.yul\":23301:23350   */\n      iszero\n      tag_531\n      jumpi\n        /* \"#utility.yul\":23340:23348   */\n      dup2\n        /* \"#utility.yul\":23325:23348   */\n      swap1\n      pop\n        /* \"#utility.yul\":23301:23350   */\n    tag_531:\n        /* \"#utility.yul\":23363:23443   */\n      tag_532\n        /* \"#utility.yul\":23419:23441   */\n      tag_533\n        /* \"#utility.yul\":23437:23440   */\n      dup6\n        /* \"#utility.yul\":23419:23441   */\n      tag_287\n      jump\t// in\n    tag_533:\n        /* \"#utility.yul\":23409:23417   */\n      dup4\n        /* \"#utility.yul\":23405:23442   */\n      add\n        /* \"#utility.yul\":23392:23403   */\n      dup3\n        /* \"#utility.yul\":23363:23443   */\n      tag_296\n      jump\t// in\n    tag_532:\n        /* \"#utility.yul\":23022:23453   */\n      pop\n      pop\n        /* \"#utility.yul\":23007:23453   */\n    tag_528:\n        /* \"#utility.yul\":22917:23460   */\n      pop\n      pop\n      pop\n      jump\t// out\n        /* \"#utility.yul\":23466:23583   */\n    tag_298:\n        /* \"#utility.yul\":23520:23528   */\n      0x00\n        /* \"#utility.yul\":23570:23575   */\n      dup3\n        /* \"#utility.yul\":23564:23568   */\n      dup3\n        /* \"#utility.yul\":23560:23576   */\n      shr\n        /* \"#utility.yul\":23539:23576   */\n      swap1\n      pop\n        /* \"#utility.yul\":23466:23583   */\n      swap3\n      swap2\n      pop\n      pop\n      jump\t// out\n        /* \"#utility.yul\":23589:23758   */\n    tag_299:\n        /* \"#utility.yul\":23633:23639   */\n      0x00\n        /* \"#utility.yul\":23666:23717   */\n      tag_536\n        /* \"#utility.yul\":23714:23715   */\n      0x00\n        /* \"#utility.yul\":23710:23716   */\n      not\n        /* \"#utility.yul\":23702:23707   */\n      dup5\n        /* \"#utility.yul\":23699:23700   */\n      0x08\n        /* \"#utility.yul\":23695:23708   */\n      mul\n        /* \"#utility.yul\":23666:23717   */\n      tag_298\n      jump\t// in\n    tag_536:\n        /* \"#utility.yul\":23662:23718   */\n      not\n        /* \"#utility.yul\":23747:23751   */\n      dup1\n        /* \"#utility.yul\":23741:23745   */\n      dup4\n        /* \"#utility.yul\":23737:23752   */\n      and\n        /* \"#utility.yul\":23727:23752   */\n      swap2\n      pop\n        /* \"#utility.yul\":23640:23758   */\n      pop\n        /* \"#utility.yul\":23589:23758   */\n      swap3\n      swap2\n      pop\n      pop\n      jump\t// out\n        /* \"#utility.yul\":23763:24058   */\n    tag_300:\n        /* \"#utility.yul\":23839:23843   */\n      0x00\n        /* \"#utility.yul\":23985:24014   */\n      tag_538\n        /* \"#utility.yul\":24010:24013   */\n      dup4\n        /* \"#utility.yul\":24004:24008   */\n      dup4\n        /* \"#utility.yul\":23985:24014   */\n      tag_299\n      jump\t// in\n    tag_538:\n        /* \"#utility.yul\":23977:24014   */\n      swap2\n      pop\n        /* \"#utility.yul\":24047:24050   */\n      dup3\n        /* \"#utility.yul\":24044:24045   */\n      0x02\n        /* \"#utility.yul\":24040:24051   */\n      mul\n        /* \"#utility.yul\":24034:24038   */\n      dup3\n        /* \"#utility.yul\":24031:24052   */\n      or\n        /* \"#utility.yul\":24023:24052   */\n      swap1\n      pop\n        /* \"#utility.yul\":23763:24058   */\n      swap3\n      swap2\n      pop\n      pop\n      jump\t// out\n        /* \"#utility.yul\":24063:25458   */\n    tag_183:\n        /* \"#utility.yul\":24180:24217   */\n      tag_540\n        /* \"#utility.yul\":24213:24216   */\n      dup3\n        /* \"#utility.yul\":24180:24217   */\n      tag_235\n      jump\t// in\n    tag_540:\n        /* \"#utility.yul\":24282:24300   */\n      0xffffffffffffffff\n        /* \"#utility.yul\":24274:24280   */\n      dup2\n        /* \"#utility.yul\":24271:24301   */\n      gt\n        /* \"#utility.yul\":24268:24324   */\n      iszero\n      tag_541\n      jumpi\n        /* \"#utility.yul\":24304:24322   */\n      tag_542\n      tag_258\n      jump\t// in\n    tag_542:\n        /* \"#utility.yul\":24268:24324   */\n    tag_541:\n        /* \"#utility.yul\":24348:24386   */\n      tag_543\n        /* \"#utility.yul\":24380:24384   */\n      dup3\n        /* \"#utility.yul\":24374:24385   */\n      sload\n        /* \"#utility.yul\":24348:24386   */\n      tag_122\n      jump\t// in\n    tag_543:\n        /* \"#utility.yul\":24433:24500   */\n      tag_544\n        /* \"#utility.yul\":24493:24499   */\n      dup3\n        /* \"#utility.yul\":24485:24491   */\n      dup3\n        /* \"#utility.yul\":24479:24483   */\n      dup6\n        /* \"#utility.yul\":24433:24500   */\n      tag_297\n      jump\t// in\n    tag_544:\n        /* \"#utility.yul\":24527:24528   */\n      0x00\n        /* \"#utility.yul\":24551:24555   */\n      0x20\n        /* \"#utility.yul\":24538:24555   */\n      swap1\n      pop\n        /* \"#utility.yul\":24583:24585   */\n      0x1f\n        /* \"#utility.yul\":24575:24581   */\n      dup4\n        /* \"#utility.yul\":24572:24586   */\n      gt\n        /* \"#utility.yul\":24600:24601   */\n      0x01\n        /* \"#utility.yul\":24595:25213   */\n      dup2\n      eq\n      tag_546\n      jumpi\n        /* \"#utility.yul\":25257:25258   */\n      0x00\n        /* \"#utility.yul\":25274:25280   */\n      dup5\n        /* \"#utility.yul\":25271:25348   */\n      iszero\n      tag_547\n      jumpi\n        /* \"#utility.yul\":25323:25332   */\n      dup3\n        /* \"#utility.yul\":25318:25321   */\n      dup8\n        /* \"#utility.yul\":25314:25333   */\n      add\n        /* \"#utility.yul\":25308:25334   */\n      mload\n        /* \"#utility.yul\":25299:25334   */\n      swap1\n      pop\n        /* \"#utility.yul\":25271:25348   */\n    tag_547:\n        /* \"#utility.yul\":25374:25441   */\n      tag_548\n        /* \"#utility.yul\":25434:25440   */\n      dup6\n        /* \"#utility.yul\":25427:25432   */\n      dup3\n        /* \"#utility.yul\":25374:25441   */\n      tag_300\n      jump\t// in\n    tag_548:\n        /* \"#utility.yul\":25368:25372   */\n      dup7\n        /* \"#utility.yul\":25361:25442   */\n      sstore\n        /* \"#utility.yul\":25230:25452   */\n      pop\n        /* \"#utility.yul\":24565:25452   */\n      jump(tag_545)\n        /* \"#utility.yul\":24595:25213   */\n    tag_546:\n        /* \"#utility.yul\":24647:24651   */\n      0x1f\n        /* \"#utility.yul\":24643:24652   */\n      not\n        /* \"#utility.yul\":24635:24641   */\n      dup5\n        /* \"#utility.yul\":24631:24653   */\n      and\n        /* \"#utility.yul\":24681:24718   */\n      tag_549\n        /* \"#utility.yul\":24713:24717   */\n      dup7\n        /* \"#utility.yul\":24681:24718   */\n      tag_286\n      jump\t// in\n    tag_549:\n        /* \"#utility.yul\":24740:24741   */\n      0x00\n        /* \"#utility.yul\":24754:24962   */\n    tag_550:\n        /* \"#utility.yul\":24768:24775   */\n      dup3\n        /* \"#utility.yul\":24765:24766   */\n      dup2\n        /* \"#utility.yul\":24762:24776   */\n      lt\n        /* \"#utility.yul\":24754:24962   */\n      iszero\n      tag_552\n      jumpi\n        /* \"#utility.yul\":24847:24856   */\n      dup5\n        /* \"#utility.yul\":24842:24845   */\n      dup10\n        /* \"#utility.yul\":24838:24857   */\n      add\n        /* \"#utility.yul\":24832:24858   */\n      mload\n        /* \"#utility.yul\":24824:24830   */\n      dup3\n        /* \"#utility.yul\":24817:24859   */\n      sstore\n        /* \"#utility.yul\":24898:24899   */\n      0x01\n        /* \"#utility.yul\":24890:24896   */\n      dup3\n        /* \"#utility.yul\":24886:24900   */\n      add\n        /* \"#utility.yul\":24876:24900   */\n      swap2\n      pop\n        /* \"#utility.yul\":24945:24947   */\n      0x20\n        /* \"#utility.yul\":24934:24943   */\n      dup6\n        /* \"#utility.yul\":24930:24948   */\n      add\n        /* \"#utility.yul\":24917:24948   */\n      swap5\n      pop\n        /* \"#utility.yul\":24791:24795   */\n      0x20\n        /* \"#utility.yul\":24788:24789   */\n      dup2\n        /* \"#utility.yul\":24784:24796   */\n      add\n        /* \"#utility.yul\":24779:24796   */\n      swap1\n      pop\n        /* \"#utility.yul\":24754:24962   */\n      jump(tag_550)\n    tag_552:\n        /* \"#utility.yul\":24990:24996   */\n      dup7\n        /* \"#utility.yul\":24981:24988   */\n      dup4\n        /* \"#utility.yul\":24978:24997   */\n      lt\n        /* \"#utility.yul\":24975:25154   */\n      iszero\n      tag_553\n      jumpi\n        /* \"#utility.yul\":25048:25057   */\n      dup5\n        /* \"#utility.yul\":25043:25046   */\n      dup10\n        /* \"#utility.yul\":25039:25058   */\n      add\n        /* \"#utility.yul\":25033:25059   */\n      mload\n        /* \"#utility.yul\":25091:25139   */\n      tag_554\n        /* \"#utility.yul\":25133:25137   */\n      0x1f\n        /* \"#utility.yul\":25125:25131   */\n      dup10\n        /* \"#utility.yul\":25121:25138   */\n      and\n        /* \"#utility.yul\":25110:25119   */\n      dup3\n        /* \"#utility.yul\":25091:25139   */\n      tag_299\n      jump\t// in\n    tag_554:\n        /* \"#utility.yul\":25083:25089   */\n      dup4\n        /* \"#utility.yul\":25076:25140   */\n      sstore\n        /* \"#utility.yul\":24998:25154   */\n      pop\n        /* \"#utility.yul\":24975:25154   */\n    tag_553:\n        /* \"#utility.yul\":25200:25201   */\n      0x01\n        /* \"#utility.yul\":25196:25197   */\n      0x02\n        /* \"#utility.yul\":25188:25194   */\n      dup9\n        /* \"#utility.yul\":25184:25198   */\n      mul\n        /* \"#utility.yul\":25180:25202   */\n      add\n        /* \"#utility.yul\":25174:25178   */\n      dup9\n        /* \"#utility.yul\":25167:25203   */\n      sstore\n        /* \"#utility.yul\":24602:25213   */\n      pop\n      pop\n      pop\n        /* \"#utility.yul\":24565:25452   */\n    tag_545:\n      pop\n        /* \"#utility.yul\":24155:25458   */\n      pop\n      pop\n      pop\n        /* \"#utility.yul\":24063:25458   */\n      pop\n      pop\n      jump\t// out\n        /* \"#utility.yul\":25464:25796   */\n    tag_223:\n        /* \"#utility.yul\":25585:25589   */\n      0x00\n        /* \"#utility.yul\":25623:25625   */\n      0x40\n        /* \"#utility.yul\":25612:25621   */\n      dup3\n        /* \"#utility.yul\":25608:25626   */\n      add\n        /* \"#utility.yul\":25600:25626   */\n      swap1\n      pop\n        /* \"#utility.yul\":25636:25707   */\n      tag_556\n        /* \"#utility.yul\":25704:25705   */\n      0x00\n        /* \"#utility.yul\":25693:25702   */\n      dup4\n        /* \"#utility.yul\":25689:25706   */\n      add\n        /* \"#utility.yul\":25680:25686   */\n      dup6\n        /* \"#utility.yul\":25636:25707   */\n      tag_255\n      jump\t// in\n    tag_556:\n        /* \"#utility.yul\":25717:25789   */\n      tag_557\n        /* \"#utility.yul\":25785:25787   */\n      0x20\n        /* \"#utility.yul\":25774:25783   */\n      dup4\n        /* \"#utility.yul\":25770:25788   */\n      add\n        /* \"#utility.yul\":25761:25767   */\n      dup5\n        /* \"#utility.yul\":25717:25789   */\n      tag_241\n      jump\t// in\n    tag_557:\n        /* \"#utility.yul\":25464:25796   */\n      swap4\n      swap3\n      pop\n      pop\n      pop\n      jump\t// out\n\n    auxdata: 0xa26469706673582212205b79b912cd3e3529d0341017526c721fb4d64157f383eb8a2c9738b07a8275c164736f6c63430008160033\n}\n",
				"bytecode": {
					"linkReferences": {},
					"object": "608060405234801562000010575f80fd5b506040516200266838038062002668833981810160405281019062000036919062000496565b805f73ffffffffffffffffffffffffffffffffffffffff168173ffffffffffffffffffffffffffffffffffffffff1603620000aa575f6040517f1e4fbdf7000000000000000000000000000000000000000000000000000000008152600401620000a19190620004d7565b60405180910390fd5b620000bb81620000d460201b60201c565b50620000cd816200019760201b60201c565b5062000537565b5f60015f9054906101000a900473ffffffffffffffffffffffffffffffffffffffff1690508160015f6101000a81548173ffffffffffffffffffffffffffffffffffffffff021916908373ffffffffffffffffffffffffffffffffffffffff1602179055508173ffffffffffffffffffffffffffffffffffffffff168173ffffffffffffffffffffffffffffffffffffffff167f8be0079c531659141344cd1fd0a4f28419497f9722a3daafe3b4186f6b6457e060405160405180910390a35050565b620001ab5f801b82620001e060201b60201c565b620001dd7f8825c62207077c41710fe5144a6467477a643e911c9ab3785826111f7c94ed8b82620001e060201b60201c565b50565b620001f28282620001f660201b60201c565b5050565b62000207826200023060201b60201c565b62000218816200024c60201b60201c565b6200022a83836200027060201b60201c565b50505050565b5f805f8381526020019081526020015f20600101549050919050565b6200026d81620002616200036b60201b60201c565b6200037260201b60201c565b50565b5f620002838383620003ce60201b60201c565b620003615760015f808581526020019081526020015f205f015f8473ffffffffffffffffffffffffffffffffffffffff1673ffffffffffffffffffffffffffffffffffffffff1681526020019081526020015f205f6101000a81548160ff021916908315150217905550620002fd6200036b60201b60201c565b73ffffffffffffffffffffffffffffffffffffffff168273ffffffffffffffffffffffffffffffffffffffff16847f2f8788117e7eff1d82e926ec794901d17c78024a50270940304540a733656f0d60405160405180910390a46001905062000365565b5f90505b92915050565b5f33905090565b620003848282620003ce60201b60201c565b620003ca5780826040517fe2517d3f000000000000000000000000000000000000000000000000000000008152600401620003c19291906200050c565b60405180910390fd5b5050565b5f805f8481526020019081526020015f205f015f8373ffffffffffffffffffffffffffffffffffffffff1673ffffffffffffffffffffffffffffffffffffffff1681526020019081526020015f205f9054906101000a900460ff16905092915050565b5f80fd5b5f73ffffffffffffffffffffffffffffffffffffffff82169050919050565b5f620004608262000435565b9050919050565b620004728162000454565b81146200047d575f80fd5b50565b5f81519050620004908162000467565b92915050565b5f60208284031215620004ae57620004ad62000431565b5b5f620004bd8482850162000480565b91505092915050565b620004d18162000454565b82525050565b5f602082019050620004ec5f830184620004c6565b92915050565b5f819050919050565b6200050681620004f2565b82525050565b5f604082019050620005215f830185620004c6565b620005306020830184620004fb565b9392505050565b61212380620005455f395ff3fe608060405234801561000f575f80fd5b506004361061011f575f3560e01c806365dd152c116100ab578063d547741f1161006f578063d547741f14610303578063d9a5ec1b1461031f578063db70504b1461033b578063db979bf814610357578063f2fde38b146103755761011f565b806365dd152c14610271578063715018a61461028d5780638da5cb5b1461029757806391d14854146102b5578063a217fddf146102e55761011f565b8063248a9ca3116100f2578063248a9ca3146101bd5780632f2ff15d146101ed57806336568abe1461020957806345bf10e914610225578063552d7105146102415761011f565b806301ffc9a71461012357806303e9e609146101535780630402e735146101835780630e59b28c146101a1575b5f80fd5b61013d600480360381019061013891906114af565b610391565b60405161014a91906114f4565b60405180910390f35b61016d60048036038101906101689190611540565b61040a565b60405161017a91906115f5565b60405180910390f35b61018b6107a2565b604051610198919061162d565b60405180910390f35b6101bb60048036038101906101b691906116a0565b6107c6565b005b6101d760048036038101906101d291906116f5565b6107fb565b6040516101e4919061162d565b60405180910390f35b61020760048036038101906102029190611720565b610817565b005b610223600480360381019061021e9190611720565b610839565b005b61023f600480360381019061023a91906116a0565b6108b4565b005b61025b600480360381019061025691906116a0565b6108e9565b6040516102689190611815565b60405180910390f35b61028b60048036038101906102869190611835565b61097c565b005b610295610b1f565b005b61029f610b32565b6040516102ac9190611882565b60405180910390f35b6102cf60048036038101906102ca9190611720565b610b5a565b6040516102dc91906114f4565b60405180910390f35b6102ed610bbd565b6040516102fa919061162d565b60405180910390f35b61031d60048036038101906103189190611720565b610bc3565b005b61033960048036038101906103349190611835565b610be5565b005b610355600480360381019061035091906119c7565b610d87565b005b61035f610f10565b60405161036c9190611b05565b60405180910390f35b61038f600480360381019061038a91906116a0565b610fd4565b005b5f7f7965db0b000000000000000000000000000000000000000000000000000000007bffffffffffffffffffffffffffffffffffffffffffffffffffffffff1916827bffffffffffffffffffffffffffffffffffffffffffffffffffffffff19161480610403575061040282611058565b5b9050919050565b60606104367f8825c62207077c41710fe5144a6467477a643e911c9ab3785826111f7c94ed8b33610b5a565b8061047357503373ffffffffffffffffffffffffffffffffffffffff1661045b610b32565b73ffffffffffffffffffffffffffffffffffffffff16145b6104b2576040517f08c379a00000000000000000000000000000000000000000000000000000000081526004016104a990611b95565b60405180910390fd5b60025f8381526020019081526020015f2060020160149054906101000a900460ff16610513576040517f08c379a000000000000000000000000000000000000000000000000000000000815260040161050a90611bfd565b60405180910390fd5b60045f3373ffffffffffffffffffffffffffffffffffffffff1673ffffffffffffffffffffffffffffffffffffffff1681526020019081526020015f205f8381526020019081526020015f205f9054906101000a900460ff16806105d557503373ffffffffffffffffffffffffffffffffffffffff1660025f8481526020019081526020015f206002015f9054906101000a900473ffffffffffffffffffffffffffffffffffffffff1673ffffffffffffffffffffffffffffffffffffffff16145b610614576040517f08c379a000000000000000000000000000000000000000000000000000000000815260040161060b90611c65565b60405180910390fd5b600560405180606001604052808481526020013373ffffffffffffffffffffffffffffffffffffffff16815260200142815250908060018154018082558091505060019003905f5260205f2090600302015f909190919091505f820151815f01556020820151816001015f6101000a81548173ffffffffffffffffffffffffffffffffffffffff021916908373ffffffffffffffffffffffffffffffffffffffff1602179055506040820151816002015550507f980d15b088d1127894ac6300da68467873935cb71f64d1ff99f85614bf474c6c82336040516106f8929190611c92565b60405180910390a160025f8381526020019081526020015f20600101805461071f90611ce6565b80601f016020809104026020016040519081016040528092919081815260200182805461074b90611ce6565b80156107965780601f1061076d57610100808354040283529160200191610796565b820191905f5260205f20905b81548152906001019060200180831161077957829003601f168201915b50505050509050919050565b7f8825c62207077c41710fe5144a6467477a643e911c9ab3785826111f7c94ed8b81565b6107ce6110c1565b6107f87f8825c62207077c41710fe5144a6467477a643e911c9ab3785826111f7c94ed8b82610bc3565b50565b5f805f8381526020019081526020015f20600101549050919050565b610820826107fb565b61082981611148565b610833838361115c565b50505050565b610841611245565b73ffffffffffffffffffffffffffffffffffffffff168173ffffffffffffffffffffffffffffffffffffffff16146108a5576040517f6697b23200000000000000000000000000000000000000000000000000000000815260040160405180910390fd5b6108af828261124c565b505050565b6108bc6110c1565b6108e67f8825c62207077c41710fe5144a6467477a643e911c9ab3785826111f7c94ed8b82610817565b50565b606060035f8373ffffffffffffffffffffffffffffffffffffffff1673ffffffffffffffffffffffffffffffffffffffff1681526020019081526020015f2080548060200260200160405190810160405280929190818152602001828054801561097057602002820191905f5260205f20905b81548152602001906001019080831161095c575b50505050509050919050565b60025f8381526020019081526020015f2060020160149054906101000a900460ff166109dd576040517f08c379a00000000000000000000000000000000000000000000000000000000081526004016109d490611bfd565b60405180910390fd5b3373ffffffffffffffffffffffffffffffffffffffff1660025f8481526020019081526020015f206002015f9054906101000a900473ffffffffffffffffffffffffffffffffffffffff1673ffffffffffffffffffffffffffffffffffffffff1614610a7e576040517f08c379a0000000000000000000000000000000000000000000000000000000008152600401610a7590611d60565b60405180910390fd5b600160045f8373ffffffffffffffffffffffffffffffffffffffff1673ffffffffffffffffffffffffffffffffffffffff1681526020019081526020015f205f8481526020019081526020015f205f6101000a81548160ff0219169083151502179055507f3c3a9147a1fc73dd51a32f4d10c43d457e8cb826eb6f35cac6349eb965ba82b48282604051610b13929190611c92565b60405180910390a15050565b610b276110c1565b610b305f611335565b565b5f60015f9054906101000a900473ffffffffffffffffffffffffffffffffffffffff16905090565b5f805f8481526020019081526020015f205f015f8373ffffffffffffffffffffffffffffffffffffffff1673ffffffffffffffffffffffffffffffffffffffff1681526020019081526020015f205f9054906101000a900460ff16905092915050565b5f801b81565b610bcc826107fb565b610bd581611148565b610bdf838361124c565b50505050565b60025f8381526020019081526020015f2060020160149054906101000a900460ff16610c46576040517f08c379a0000000000000000000000000000000000000000000000000000000008152600401610c3d90611bfd565b60405180910390fd5b3373ffffffffffffffffffffffffffffffffffffffff1660025f8481526020019081526020015f206002015f9054906101000a900473ffffffffffffffffffffffffffffffffffffffff1673ffffffffffffffffffffffffffffffffffffffff1614610ce7576040517f08c379a0000000000000000000000000000000000000000000000000000000008152600401610cde90611dc8565b60405180910390fd5b5f60045f8373ffffffffffffffffffffffffffffffffffffffff1673ffffffffffffffffffffffffffffffffffffffff1681526020019081526020015f205f8481526020019081526020015f205f6101000a81548160ff0219169083151502179055507f125883b94692baebecad9f111ed97ffa626523bbbadc6b0ef85ee1b56b9e52d58282604051610d7b929190611c92565b60405180910390a15050565b5f60065f815480929190610d9a90611e13565b91905055905060405180608001604052808281526020018381526020013373ffffffffffffffffffffffffffffffffffffffff1681526020016001151581525060025f8381526020019081526020015f205f820151815f01556020820151816001019081610e089190611ff7565b506040820151816002015f6101000a81548173ffffffffffffffffffffffffffffffffffffffff021916908373ffffffffffffffffffffffffffffffffffffffff16021790555060608201518160020160146101000a81548160ff02191690831515021790555090505060035f3373ffffffffffffffffffffffffffffffffffffffff1673ffffffffffffffffffffffffffffffffffffffff1681526020019081526020015f2081908060018154018082558091505060019003905f5260205f20015f90919091909150557f9a96995fdafdb50a11bfbcd015e3313b1a7de85a9a5c033e9ceccc3ee1b4c8938133604051610f04929190611c92565b60405180910390a15050565b60606005805480602002602001604051908101604052809291908181526020015f905b82821015610fcb578382905f5260205f2090600302016040518060600160405290815f8201548152602001600182015f9054906101000a900473ffffffffffffffffffffffffffffffffffffffff1673ffffffffffffffffffffffffffffffffffffffff1673ffffffffffffffffffffffffffffffffffffffff16815260200160028201548152505081526020019060010190610f33565b50505050905090565b610fdc6110c1565b5f73ffffffffffffffffffffffffffffffffffffffff168173ffffffffffffffffffffffffffffffffffffffff160361104c575f6040517f1e4fbdf70000000000000000000000000000000000000000000000000000000081526004016110439190611882565b60405180910390fd5b61105581611335565b50565b5f7f01ffc9a7000000000000000000000000000000000000000000000000000000007bffffffffffffffffffffffffffffffffffffffffffffffffffffffff1916827bffffffffffffffffffffffffffffffffffffffffffffffffffffffff1916149050919050565b6110c9611245565b73ffffffffffffffffffffffffffffffffffffffff166110e7610b32565b73ffffffffffffffffffffffffffffffffffffffff16146111465761110a611245565b6040517f118cdaa700000000000000000000000000000000000000000000000000000000815260040161113d9190611882565b60405180910390fd5b565b61115981611154611245565b6113f8565b50565b5f6111678383610b5a565b61123b5760015f808581526020019081526020015f205f015f8473ffffffffffffffffffffffffffffffffffffffff1673ffffffffffffffffffffffffffffffffffffffff1681526020019081526020015f205f6101000a81548160ff0219169083151502179055506111d8611245565b73ffffffffffffffffffffffffffffffffffffffff168273ffffffffffffffffffffffffffffffffffffffff16847f2f8788117e7eff1d82e926ec794901d17c78024a50270940304540a733656f0d60405160405180910390a46001905061123f565b5f90505b92915050565b5f33905090565b5f6112578383610b5a565b1561132b575f805f8581526020019081526020015f205f015f8473ffffffffffffffffffffffffffffffffffffffff1673ffffffffffffffffffffffffffffffffffffffff1681526020019081526020015f205f6101000a81548160ff0219169083151502179055506112c8611245565b73ffffffffffffffffffffffffffffffffffffffff168273ffffffffffffffffffffffffffffffffffffffff16847ff6391f5c32d9c69d2a47ea670b442974b53935d1edc7fd64eb21e047a839171b60405160405180910390a46001905061132f565b5f90505b92915050565b5f60015f9054906101000a900473ffffffffffffffffffffffffffffffffffffffff1690508160015f6101000a81548173ffffffffffffffffffffffffffffffffffffffff021916908373ffffffffffffffffffffffffffffffffffffffff1602179055508173ffffffffffffffffffffffffffffffffffffffff168173ffffffffffffffffffffffffffffffffffffffff167f8be0079c531659141344cd1fd0a4f28419497f9722a3daafe3b4186f6b6457e060405160405180910390a35050565b6114028282610b5a565b6114455780826040517fe2517d3f00000000000000000000000000000000000000000000000000000000815260040161143c9291906120c6565b60405180910390fd5b5050565b5f604051905090565b5f80fd5b5f80fd5b5f7fffffffff0000000000000000000000000000000000000000000000000000000082169050919050565b61148e8161145a565b8114611498575f80fd5b50565b5f813590506114a981611485565b92915050565b5f602082840312156114c4576114c3611452565b5b5f6114d18482850161149b565b91505092915050565b5f8115159050919050565b6114ee816114da565b82525050565b5f6020820190506115075f8301846114e5565b92915050565b5f819050919050565b61151f8161150d565b8114611529575f80fd5b50565b5f8135905061153a81611516565b92915050565b5f6020828403121561155557611554611452565b5b5f6115628482850161152c565b91505092915050565b5f81519050919050565b5f82825260208201905092915050565b5f5b838110156115a2578082015181840152602081019050611587565b5f8484015250505050565b5f601f19601f8301169050919050565b5f6115c78261156b565b6115d18185611575565b93506115e1818560208601611585565b6115ea816115ad565b840191505092915050565b5f6020820190508181035f83015261160d81846115bd565b905092915050565b5f819050919050565b61162781611615565b82525050565b5f6020820190506116405f83018461161e565b92915050565b5f73ffffffffffffffffffffffffffffffffffffffff82169050919050565b5f61166f82611646565b9050919050565b61167f81611665565b8114611689575f80fd5b50565b5f8135905061169a81611676565b92915050565b5f602082840312156116b5576116b4611452565b5b5f6116c28482850161168c565b91505092915050565b6116d481611615565b81146116de575f80fd5b50565b5f813590506116ef816116cb565b92915050565b5f6020828403121561170a57611709611452565b5b5f611717848285016116e1565b91505092915050565b5f806040838503121561173657611735611452565b5b5f611743858286016116e1565b92505060206117548582860161168c565b9150509250929050565b5f81519050919050565b5f82825260208201905092915050565b5f819050602082019050919050565b6117908161150d565b82525050565b5f6117a18383611787565b60208301905092915050565b5f602082019050919050565b5f6117c38261175e565b6117cd8185611768565b93506117d883611778565b805f5b838110156118085781516117ef8882611796565b97506117fa836117ad565b9250506001810190506117db565b5085935050505092915050565b5f6020820190508181035f83015261182d81846117b9565b905092915050565b5f806040838503121561184b5761184a611452565b5b5f6118588582860161152c565b92505060206118698582860161168c565b9150509250929050565b61187c81611665565b82525050565b5f6020820190506118955f830184611873565b92915050565b5f80fd5b5f80fd5b7f4e487b71000000000000000000000000000000000000000000000000000000005f52604160045260245ffd5b6118d9826115ad565b810181811067ffffffffffffffff821117156118f8576118f76118a3565b5b80604052505050565b5f61190a611449565b905061191682826118d0565b919050565b5f67ffffffffffffffff821115611935576119346118a3565b5b61193e826115ad565b9050602081019050919050565b828183375f83830152505050565b5f61196b6119668461191b565b611901565b9050828152602081018484840111156119875761198661189f565b5b61199284828561194b565b509392505050565b5f82601f8301126119ae576119ad61189b565b5b81356119be848260208601611959565b91505092915050565b5f602082840312156119dc576119db611452565b5b5f82013567ffffffffffffffff8111156119f9576119f8611456565b5b611a058482850161199a565b91505092915050565b5f81519050919050565b5f82825260208201905092915050565b5f819050602082019050919050565b611a4081611665565b82525050565b606082015f820151611a5a5f850182611787565b506020820151611a6d6020850182611a37565b506040820151611a806040850182611787565b50505050565b5f611a918383611a46565b60608301905092915050565b5f602082019050919050565b5f611ab382611a0e565b611abd8185611a18565b9350611ac883611a28565b805f5b83811015611af8578151611adf8882611a86565b9750611aea83611a9d565b925050600181019050611acb565b5085935050505092915050565b5f6020820190508181035f830152611b1d8184611aa9565b905092915050565b7f4f6e6c79206f776e6572206f72206865616c7468636172652070726f766964655f8201527f722063616e20706572666f726d207468697320616374696f6e00000000000000602082015250565b5f611b7f603983611575565b9150611b8a82611b25565b604082019050919050565b5f6020820190508181035f830152611bac81611b73565b9050919050565b7f5265636f726420646f6573206e6f7420657869737400000000000000000000005f82015250565b5f611be7601583611575565b9150611bf282611bb3565b602082019050919050565b5f6020820190508181035f830152611c1481611bdb565b9050919050565b7f4163636573732064656e696564000000000000000000000000000000000000005f82015250565b5f611c4f600d83611575565b9150611c5a82611c1b565b602082019050919050565b5f6020820190508181035f830152611c7c81611c43565b9050919050565b611c8c8161150d565b82525050565b5f604082019050611ca55f830185611c83565b611cb26020830184611873565b9392505050565b7f4e487b71000000000000000000000000000000000000000000000000000000005f52602260045260245ffd5b5f6002820490506001821680611cfd57607f821691505b602082108103611d1057611d0f611cb9565b5b50919050565b7f4f6e6c79206f776e65722063616e206772616e742061636365737300000000005f82015250565b5f611d4a601b83611575565b9150611d5582611d16565b602082019050919050565b5f6020820190508181035f830152611d7781611d3e565b9050919050565b7f4f6e6c79206f776e65722063616e207265766f6b6520616363657373000000005f82015250565b5f611db2601c83611575565b9150611dbd82611d7e565b602082019050919050565b5f6020820190508181035f830152611ddf81611da6565b9050919050565b7f4e487b71000000000000000000000000000000000000000000000000000000005f52601160045260245ffd5b5f611e1d8261150d565b91507fffffffffffffffffffffffffffffffffffffffffffffffffffffffffffffffff8203611e4f57611e4e611de6565b5b600182019050919050565b5f819050815f5260205f209050919050565b5f6020601f8301049050919050565b5f82821b905092915050565b5f60088302611eb67fffffffffffffffffffffffffffffffffffffffffffffffffffffffffffffffff82611e7b565b611ec08683611e7b565b95508019841693508086168417925050509392505050565b5f819050919050565b5f611efb611ef6611ef18461150d565b611ed8565b61150d565b9050919050565b5f819050919050565b611f1483611ee1565b611f28611f2082611f02565b848454611e87565b825550505050565b5f90565b611f3c611f30565b611f47818484611f0b565b505050565b5b81811015611f6a57611f5f5f82611f34565b600181019050611f4d565b5050565b601f821115611faf57611f8081611e5a565b611f8984611e6c565b81016020851015611f98578190505b611fac611fa485611e6c565b830182611f4c565b50505b505050565b5f82821c905092915050565b5f611fcf5f1984600802611fb4565b1980831691505092915050565b5f611fe78383611fc0565b9150826002028217905092915050565b6120008261156b565b67ffffffffffffffff811115612019576120186118a3565b5b6120238254611ce6565b61202e828285611f6e565b5f60209050601f83116001811461205f575f841561204d578287015190505b6120578582611fdc565b8655506120be565b601f19841661206d86611e5a565b5f5b828110156120945784890151825560018201915060208501945060208101905061206f565b868310156120b157848901516120ad601f891682611fc0565b8355505b6001600288020188555050505b505050505050565b5f6040820190506120d95f830185611873565b6120e6602083018461161e565b939250505056fea26469706673582212205b79b912cd3e3529d0341017526c721fb4d64157f383eb8a2c9738b07a8275c164736f6c63430008160033",
					"opcodes": "PUSH1 0x80 PUSH1 0x40 MSTORE CALLVALUE DUP1 ISZERO PUSH3 0x10 JUMPI PUSH0 DUP1 REVERT JUMPDEST POP PUSH1 0x40 MLOAD PUSH3 0x2668 CODESIZE SUB DUP1 PUSH3 0x2668 DUP4 CODECOPY DUP2 DUP2 ADD PUSH1 0x40 MSTORE DUP2 ADD SWAP1 PUSH3 0x36 SWAP2 SWAP1 PUSH3 0x496 JUMP JUMPDEST DUP1 PUSH0 PUSH20 0xFFFFFFFFFFFFFFFFFFFFFFFFFFFFFFFFFFFFFFFF AND DUP2 PUSH20 0xFFFFFFFFFFFFFFFFFFFFFFFFFFFFFFFFFFFFFFFF AND SUB PUSH3 0xAA JUMPI PUSH0 PUSH1 0x40 MLOAD PUSH32 0x1E4FBDF700000000000000000000000000000000000000000000000000000000 DUP2 MSTORE PUSH1 0x4 ADD PUSH3 0xA1 SWAP2 SWAP1 PUSH3 0x4D7 JUMP JUMPDEST PUSH1 0x40 MLOAD DUP1 SWAP2 SUB SWAP1 REVERT JUMPDEST PUSH3 0xBB DUP2 PUSH3 0xD4 PUSH1 0x20 SHL PUSH1 0x20 SHR JUMP JUMPDEST POP PUSH3 0xCD DUP2 PUSH3 0x197 PUSH1 0x20 SHL PUSH1 0x20 SHR JUMP JUMPDEST POP PUSH3 0x537 JUMP JUMPDEST PUSH0 PUSH1 0x1 PUSH0 SWAP1 SLOAD SWAP1 PUSH2 0x100 EXP SWAP1 DIV PUSH20 0xFFFFFFFFFFFFFFFFFFFFFFFFFFFFFFFFFFFFFFFF AND SWAP1 POP DUP2 PUSH1 0x1 PUSH0 PUSH2 0x100 EXP DUP2 SLOAD DUP2 PUSH20 0xFFFFFFFFFFFFFFFFFFFFFFFFFFFFFFFFFFFFFFFF MUL NOT AND SWAP1 DUP4 PUSH20 0xFFFFFFFFFFFFFFFFFFFFFFFFFFFFFFFFFFFFFFFF AND MUL OR SWAP1 SSTORE POP DUP2 PUSH20 0xFFFFFFFFFFFFFFFFFFFFFFFFFFFFFFFFFFFFFFFF AND DUP2 PUSH20 0xFFFFFFFFFFFFFFFFFFFFFFFFFFFFFFFFFFFFFFFF AND PUSH32 0x8BE0079C531659141344CD1FD0A4F28419497F9722A3DAAFE3B4186F6B6457E0 PUSH1 0x40 MLOAD PUSH1 0x40 MLOAD DUP1 SWAP2 SUB SWAP1 LOG3 POP POP JUMP JUMPDEST PUSH3 0x1AB PUSH0 DUP1 SHL DUP3 PUSH3 0x1E0 PUSH1 0x20 SHL PUSH1 0x20 SHR JUMP JUMPDEST PUSH3 0x1DD PUSH32 0x8825C62207077C41710FE5144A6467477A643E911C9AB3785826111F7C94ED8B DUP3 PUSH3 0x1E0 PUSH1 0x20 SHL PUSH1 0x20 SHR JUMP JUMPDEST POP JUMP JUMPDEST PUSH3 0x1F2 DUP3 DUP3 PUSH3 0x1F6 PUSH1 0x20 SHL PUSH1 0x20 SHR JUMP JUMPDEST POP POP JUMP JUMPDEST PUSH3 0x207 DUP3 PUSH3 0x230 PUSH1 0x20 SHL PUSH1 0x20 SHR JUMP JUMPDEST PUSH3 0x218 DUP2 PUSH3 0x24C PUSH1 0x20 SHL PUSH1 0x20 SHR JUMP JUMPDEST PUSH3 0x22A DUP4 DUP4 PUSH3 0x270 PUSH1 0x20 SHL PUSH1 0x20 SHR JUMP JUMPDEST POP POP POP POP JUMP JUMPDEST PUSH0 DUP1 PUSH0 DUP4 DUP2 MSTORE PUSH1 0x20 ADD SWAP1 DUP2 MSTORE PUSH1 0x20 ADD PUSH0 KECCAK256 PUSH1 0x1 ADD SLOAD SWAP1 POP SWAP2 SWAP1 POP JUMP JUMPDEST PUSH3 0x26D DUP2 PUSH3 0x261 PUSH3 0x36B PUSH1 0x20 SHL PUSH1 0x20 SHR JUMP JUMPDEST PUSH3 0x372 PUSH1 0x20 SHL PUSH1 0x20 SHR JUMP JUMPDEST POP JUMP JUMPDEST PUSH0 PUSH3 0x283 DUP4 DUP4 PUSH3 0x3CE PUSH1 0x20 SHL PUSH1 0x20 SHR JUMP JUMPDEST PUSH3 0x361 JUMPI PUSH1 0x1 PUSH0 DUP1 DUP6 DUP2 MSTORE PUSH1 0x20 ADD SWAP1 DUP2 MSTORE PUSH1 0x20 ADD PUSH0 KECCAK256 PUSH0 ADD PUSH0 DUP5 PUSH20 0xFFFFFFFFFFFFFFFFFFFFFFFFFFFFFFFFFFFFFFFF AND PUSH20 0xFFFFFFFFFFFFFFFFFFFFFFFFFFFFFFFFFFFFFFFF AND DUP2 MSTORE PUSH1 0x20 ADD SWAP1 DUP2 MSTORE PUSH1 0x20 ADD PUSH0 KECCAK256 PUSH0 PUSH2 0x100 EXP DUP2 SLOAD DUP2 PUSH1 0xFF MUL NOT AND SWAP1 DUP4 ISZERO ISZERO MUL OR SWAP1 SSTORE POP PUSH3 0x2FD PUSH3 0x36B PUSH1 0x20 SHL PUSH1 0x20 SHR JUMP JUMPDEST PUSH20 0xFFFFFFFFFFFFFFFFFFFFFFFFFFFFFFFFFFFFFFFF AND DUP3 PUSH20 0xFFFFFFFFFFFFFFFFFFFFFFFFFFFFFFFFFFFFFFFF AND DUP5 PUSH32 0x2F8788117E7EFF1D82E926EC794901D17C78024A50270940304540A733656F0D PUSH1 0x40 MLOAD PUSH1 0x40 MLOAD DUP1 SWAP2 SUB SWAP1 LOG4 PUSH1 0x1 SWAP1 POP PUSH3 0x365 JUMP JUMPDEST PUSH0 SWAP1 POP JUMPDEST SWAP3 SWAP2 POP POP JUMP JUMPDEST PUSH0 CALLER SWAP1 POP SWAP1 JUMP JUMPDEST PUSH3 0x384 DUP3 DUP3 PUSH3 0x3CE PUSH1 0x20 SHL PUSH1 0x20 SHR JUMP JUMPDEST PUSH3 0x3CA JUMPI DUP1 DUP3 PUSH1 0x40 MLOAD PUSH32 0xE2517D3F00000000000000000000000000000000000000000000000000000000 DUP2 MSTORE PUSH1 0x4 ADD PUSH3 0x3C1 SWAP3 SWAP2 SWAP1 PUSH3 0x50C JUMP JUMPDEST PUSH1 0x40 MLOAD DUP1 SWAP2 SUB SWAP1 REVERT JUMPDEST POP POP JUMP JUMPDEST PUSH0 DUP1 PUSH0 DUP5 DUP2 MSTORE PUSH1 0x20 ADD SWAP1 DUP2 MSTORE PUSH1 0x20 ADD PUSH0 KECCAK256 PUSH0 ADD PUSH0 DUP4 PUSH20 0xFFFFFFFFFFFFFFFFFFFFFFFFFFFFFFFFFFFFFFFF AND PUSH20 0xFFFFFFFFFFFFFFFFFFFFFFFFFFFFFFFFFFFFFFFF AND DUP2 MSTORE PUSH1 0x20 ADD SWAP1 DUP2 MSTORE PUSH1 0x20 ADD PUSH0 KECCAK256 PUSH0 SWAP1 SLOAD SWAP1 PUSH2 0x100 EXP SWAP1 DIV PUSH1 0xFF AND SWAP1 POP SWAP3 SWAP2 POP POP JUMP JUMPDEST PUSH0 DUP1 REVERT JUMPDEST PUSH0 PUSH20 0xFFFFFFFFFFFFFFFFFFFFFFFFFFFFFFFFFFFFFFFF DUP3 AND SWAP1 POP SWAP2 SWAP1 POP JUMP JUMPDEST PUSH0 PUSH3 0x460 DUP3 PUSH3 0x435 JUMP JUMPDEST SWAP1 POP SWAP2 SWAP1 POP JUMP JUMPDEST PUSH3 0x472 DUP2 PUSH3 0x454 JUMP JUMPDEST DUP2 EQ PUSH3 0x47D JUMPI PUSH0 DUP1 REVERT JUMPDEST POP JUMP JUMPDEST PUSH0 DUP2 MLOAD SWAP1 POP PUSH3 0x490 DUP2 PUSH3 0x467 JUMP JUMPDEST SWAP3 SWAP2 POP POP JUMP JUMPDEST PUSH0 PUSH1 0x20 DUP3 DUP5 SUB SLT ISZERO PUSH3 0x4AE JUMPI PUSH3 0x4AD PUSH3 0x431 JUMP JUMPDEST JUMPDEST PUSH0 PUSH3 0x4BD DUP5 DUP3 DUP6 ADD PUSH3 0x480 JUMP JUMPDEST SWAP2 POP POP SWAP3 SWAP2 POP POP JUMP JUMPDEST PUSH3 0x4D1 DUP2 PUSH3 0x454 JUMP JUMPDEST DUP3 MSTORE POP POP JUMP JUMPDEST PUSH0 PUSH1 0x20 DUP3 ADD SWAP1 POP PUSH3 0x4EC PUSH0 DUP4 ADD DUP5 PUSH3 0x4C6 JUMP JUMPDEST SWAP3 SWAP2 POP POP JUMP JUMPDEST PUSH0 DUP2 SWAP1 POP SWAP2 SWAP1 POP JUMP JUMPDEST PUSH3 0x506 DUP2 PUSH3 0x4F2 JUMP JUMPDEST DUP3 MSTORE POP POP JUMP JUMPDEST PUSH0 PUSH1 0x40 DUP3 ADD SWAP1 POP PUSH3 0x521 PUSH0 DUP4 ADD DUP6 PUSH3 0x4C6 JUMP JUMPDEST PUSH3 0x530 PUSH1 0x20 DUP4 ADD DUP5 PUSH3 0x4FB JUMP JUMPDEST SWAP4 SWAP3 POP POP POP JUMP JUMPDEST PUSH2 0x2123 DUP1 PUSH3 0x545 PUSH0 CODECOPY PUSH0 RETURN INVALID PUSH1 0x80 PUSH1 0x40 MSTORE CALLVALUE DUP1 ISZERO PUSH2 0xF JUMPI PUSH0 DUP1 REVERT JUMPDEST POP PUSH1 0x4 CALLDATASIZE LT PUSH2 0x11F JUMPI PUSH0 CALLDATALOAD PUSH1 0xE0 SHR DUP1 PUSH4 0x65DD152C GT PUSH2 0xAB JUMPI DUP1 PUSH4 0xD547741F GT PUSH2 0x6F JUMPI DUP1 PUSH4 0xD547741F EQ PUSH2 0x303 JUMPI DUP1 PUSH4 0xD9A5EC1B EQ PUSH2 0x31F JUMPI DUP1 PUSH4 0xDB70504B EQ PUSH2 0x33B JUMPI DUP1 PUSH4 0xDB979BF8 EQ PUSH2 0x357 JUMPI DUP1 PUSH4 0xF2FDE38B EQ PUSH2 0x375 JUMPI PUSH2 0x11F JUMP JUMPDEST DUP1 PUSH4 0x65DD152C EQ PUSH2 0x271 JUMPI DUP1 PUSH4 0x715018A6 EQ PUSH2 0x28D JUMPI DUP1 PUSH4 0x8DA5CB5B EQ PUSH2 0x297 JUMPI DUP1 PUSH4 0x91D14854 EQ PUSH2 0x2B5 JUMPI DUP1 PUSH4 0xA217FDDF EQ PUSH2 0x2E5 JUMPI PUSH2 0x11F JUMP JUMPDEST DUP1 PUSH4 0x248A9CA3 GT PUSH2 0xF2 JUMPI DUP1 PUSH4 0x248A9CA3 EQ PUSH2 0x1BD JUMPI DUP1 PUSH4 0x2F2FF15D EQ PUSH2 0x1ED JUMPI DUP1 PUSH4 0x36568ABE EQ PUSH2 0x209 JUMPI DUP1 PUSH4 0x45BF10E9 EQ PUSH2 0x225 JUMPI DUP1 PUSH4 0x552D7105 EQ PUSH2 0x241 JUMPI PUSH2 0x11F JUMP JUMPDEST DUP1 PUSH4 0x1FFC9A7 EQ PUSH2 0x123 JUMPI DUP1 PUSH4 0x3E9E609 EQ PUSH2 0x153 JUMPI DUP1 PUSH4 0x402E735 EQ PUSH2 0x183 JUMPI DUP1 PUSH4 0xE59B28C EQ PUSH2 0x1A1 JUMPI JUMPDEST PUSH0 DUP1 REVERT JUMPDEST PUSH2 0x13D PUSH1 0x4 DUP1 CALLDATASIZE SUB DUP2 ADD SWAP1 PUSH2 0x138 SWAP2 SWAP1 PUSH2 0x14AF JUMP JUMPDEST PUSH2 0x391 JUMP JUMPDEST PUSH1 0x40 MLOAD PUSH2 0x14A SWAP2 SWAP1 PUSH2 0x14F4 JUMP JUMPDEST PUSH1 0x40 MLOAD DUP1 SWAP2 SUB SWAP1 RETURN JUMPDEST PUSH2 0x16D PUSH1 0x4 DUP1 CALLDATASIZE SUB DUP2 ADD SWAP1 PUSH2 0x168 SWAP2 SWAP1 PUSH2 0x1540 JUMP JUMPDEST PUSH2 0x40A JUMP JUMPDEST PUSH1 0x40 MLOAD PUSH2 0x17A SWAP2 SWAP1 PUSH2 0x15F5 JUMP JUMPDEST PUSH1 0x40 MLOAD DUP1 SWAP2 SUB SWAP1 RETURN JUMPDEST PUSH2 0x18B PUSH2 0x7A2 JUMP JUMPDEST PUSH1 0x40 MLOAD PUSH2 0x198 SWAP2 SWAP1 PUSH2 0x162D JUMP JUMPDEST PUSH1 0x40 MLOAD DUP1 SWAP2 SUB SWAP1 RETURN JUMPDEST PUSH2 0x1BB PUSH1 0x4 DUP1 CALLDATASIZE SUB DUP2 ADD SWAP1 PUSH2 0x1B6 SWAP2 SWAP1 PUSH2 0x16A0 JUMP JUMPDEST PUSH2 0x7C6 JUMP JUMPDEST STOP JUMPDEST PUSH2 0x1D7 PUSH1 0x4 DUP1 CALLDATASIZE SUB DUP2 ADD SWAP1 PUSH2 0x1D2 SWAP2 SWAP1 PUSH2 0x16F5 JUMP JUMPDEST PUSH2 0x7FB JUMP JUMPDEST PUSH1 0x40 MLOAD PUSH2 0x1E4 SWAP2 SWAP1 PUSH2 0x162D JUMP JUMPDEST PUSH1 0x40 MLOAD DUP1 SWAP2 SUB SWAP1 RETURN JUMPDEST PUSH2 0x207 PUSH1 0x4 DUP1 CALLDATASIZE SUB DUP2 ADD SWAP1 PUSH2 0x202 SWAP2 SWAP1 PUSH2 0x1720 JUMP JUMPDEST PUSH2 0x817 JUMP JUMPDEST STOP JUMPDEST PUSH2 0x223 PUSH1 0x4 DUP1 CALLDATASIZE SUB DUP2 ADD SWAP1 PUSH2 0x21E SWAP2 SWAP1 PUSH2 0x1720 JUMP JUMPDEST PUSH2 0x839 JUMP JUMPDEST STOP JUMPDEST PUSH2 0x23F PUSH1 0x4 DUP1 CALLDATASIZE SUB DUP2 ADD SWAP1 PUSH2 0x23A SWAP2 SWAP1 PUSH2 0x16A0 JUMP JUMPDEST PUSH2 0x8B4 JUMP JUMPDEST STOP JUMPDEST PUSH2 0x25B PUSH1 0x4 DUP1 CALLDATASIZE SUB DUP2 ADD SWAP1 PUSH2 0x256 SWAP2 SWAP1 PUSH2 0x16A0 JUMP JUMPDEST PUSH2 0x8E9 JUMP JUMPDEST PUSH1 0x40 MLOAD PUSH2 0x268 SWAP2 SWAP1 PUSH2 0x1815 JUMP JUMPDEST PUSH1 0x40 MLOAD DUP1 SWAP2 SUB SWAP1 RETURN JUMPDEST PUSH2 0x28B PUSH1 0x4 DUP1 CALLDATASIZE SUB DUP2 ADD SWAP1 PUSH2 0x286 SWAP2 SWAP1 PUSH2 0x1835 JUMP JUMPDEST PUSH2 0x97C JUMP JUMPDEST STOP JUMPDEST PUSH2 0x295 PUSH2 0xB1F JUMP JUMPDEST STOP JUMPDEST PUSH2 0x29F PUSH2 0xB32 JUMP JUMPDEST PUSH1 0x40 MLOAD PUSH2 0x2AC SWAP2 SWAP1 PUSH2 0x1882 JUMP JUMPDEST PUSH1 0x40 MLOAD DUP1 SWAP2 SUB SWAP1 RETURN JUMPDEST PUSH2 0x2CF PUSH1 0x4 DUP1 CALLDATASIZE SUB DUP2 ADD SWAP1 PUSH2 0x2CA SWAP2 SWAP1 PUSH2 0x1720 JUMP JUMPDEST PUSH2 0xB5A JUMP JUMPDEST PUSH1 0x40 MLOAD PUSH2 0x2DC SWAP2 SWAP1 PUSH2 0x14F4 JUMP JUMPDEST PUSH1 0x40 MLOAD DUP1 SWAP2 SUB SWAP1 RETURN JUMPDEST PUSH2 0x2ED PUSH2 0xBBD JUMP JUMPDEST PUSH1 0x40 MLOAD PUSH2 0x2FA SWAP2 SWAP1 PUSH2 0x162D JUMP JUMPDEST PUSH1 0x40 MLOAD DUP1 SWAP2 SUB SWAP1 RETURN JUMPDEST PUSH2 0x31D PUSH1 0x4 DUP1 CALLDATASIZE SUB DUP2 ADD SWAP1 PUSH2 0x318 SWAP2 SWAP1 PUSH2 0x1720 JUMP JUMPDEST PUSH2 0xBC3 JUMP JUMPDEST STOP JUMPDEST PUSH2 0x339 PUSH1 0x4 DUP1 CALLDATASIZE SUB DUP2 ADD SWAP1 PUSH2 0x334 SWAP2 SWAP1 PUSH2 0x1835 JUMP JUMPDEST PUSH2 0xBE5 JUMP JUMPDEST STOP JUMPDEST PUSH2 0x355 PUSH1 0x4 DUP1 CALLDATASIZE SUB DUP2 ADD SWAP1 PUSH2 0x350 SWAP2 SWAP1 PUSH2 0x19C7 JUMP JUMPDEST PUSH2 0xD87 JUMP JUMPDEST STOP JUMPDEST PUSH2 0x35F PUSH2 0xF10 JUMP JUMPDEST PUSH1 0x40 MLOAD PUSH2 0x36C SWAP2 SWAP1 PUSH2 0x1B05 JUMP JUMPDEST PUSH1 0x40 MLOAD DUP1 SWAP2 SUB SWAP1 RETURN JUMPDEST PUSH2 0x38F PUSH1 0x4 DUP1 CALLDATASIZE SUB DUP2 ADD SWAP1 PUSH2 0x38A SWAP2 SWAP1 PUSH2 0x16A0 JUMP JUMPDEST PUSH2 0xFD4 JUMP JUMPDEST STOP JUMPDEST PUSH0 PUSH32 0x7965DB0B00000000000000000000000000000000000000000000000000000000 PUSH28 0xFFFFFFFFFFFFFFFFFFFFFFFFFFFFFFFFFFFFFFFFFFFFFFFFFFFFFFFF NOT AND DUP3 PUSH28 0xFFFFFFFFFFFFFFFFFFFFFFFFFFFFFFFFFFFFFFFFFFFFFFFFFFFFFFFF NOT AND EQ DUP1 PUSH2 0x403 JUMPI POP PUSH2 0x402 DUP3 PUSH2 0x1058 JUMP JUMPDEST JUMPDEST SWAP1 POP SWAP2 SWAP1 POP JUMP JUMPDEST PUSH1 0x60 PUSH2 0x436 PUSH32 0x8825C62207077C41710FE5144A6467477A643E911C9AB3785826111F7C94ED8B CALLER PUSH2 0xB5A JUMP JUMPDEST DUP1 PUSH2 0x473 JUMPI POP CALLER PUSH20 0xFFFFFFFFFFFFFFFFFFFFFFFFFFFFFFFFFFFFFFFF AND PUSH2 0x45B PUSH2 0xB32 JUMP JUMPDEST PUSH20 0xFFFFFFFFFFFFFFFFFFFFFFFFFFFFFFFFFFFFFFFF AND EQ JUMPDEST PUSH2 0x4B2 JUMPI PUSH1 0x40 MLOAD PUSH32 0x8C379A000000000000000000000000000000000000000000000000000000000 DUP2 MSTORE PUSH1 0x4 ADD PUSH2 0x4A9 SWAP1 PUSH2 0x1B95 JUMP JUMPDEST PUSH1 0x40 MLOAD DUP1 SWAP2 SUB SWAP1 REVERT JUMPDEST PUSH1 0x2 PUSH0 DUP4 DUP2 MSTORE PUSH1 0x20 ADD SWAP1 DUP2 MSTORE PUSH1 0x20 ADD PUSH0 KECCAK256 PUSH1 0x2 ADD PUSH1 0x14 SWAP1 SLOAD SWAP1 PUSH2 0x100 EXP SWAP1 DIV PUSH1 0xFF AND PUSH2 0x513 JUMPI PUSH1 0x40 MLOAD PUSH32 0x8C379A000000000000000000000000000000000000000000000000000000000 DUP2 MSTORE PUSH1 0x4 ADD PUSH2 0x50A SWAP1 PUSH2 0x1BFD JUMP JUMPDEST PUSH1 0x40 MLOAD DUP1 SWAP2 SUB SWAP1 REVERT JUMPDEST PUSH1 0x4 PUSH0 CALLER PUSH20 0xFFFFFFFFFFFFFFFFFFFFFFFFFFFFFFFFFFFFFFFF AND PUSH20 0xFFFFFFFFFFFFFFFFFFFFFFFFFFFFFFFFFFFFFFFF AND DUP2 MSTORE PUSH1 0x20 ADD SWAP1 DUP2 MSTORE PUSH1 0x20 ADD PUSH0 KECCAK256 PUSH0 DUP4 DUP2 MSTORE PUSH1 0x20 ADD SWAP1 DUP2 MSTORE PUSH1 0x20 ADD PUSH0 KECCAK256 PUSH0 SWAP1 SLOAD SWAP1 PUSH2 0x100 EXP SWAP1 DIV PUSH1 0xFF AND DUP1 PUSH2 0x5D5 JUMPI POP CALLER PUSH20 0xFFFFFFFFFFFFFFFFFFFFFFFFFFFFFFFFFFFFFFFF AND PUSH1 0x2 PUSH0 DUP5 DUP2 MSTORE PUSH1 0x20 ADD SWAP1 DUP2 MSTORE PUSH1 0x20 ADD PUSH0 KECCAK256 PUSH1 0x2 ADD PUSH0 SWAP1 SLOAD SWAP1 PUSH2 0x100 EXP SWAP1 DIV PUSH20 0xFFFFFFFFFFFFFFFFFFFFFFFFFFFFFFFFFFFFFFFF AND PUSH20 0xFFFFFFFFFFFFFFFFFFFFFFFFFFFFFFFFFFFFFFFF AND EQ JUMPDEST PUSH2 0x614 JUMPI PUSH1 0x40 MLOAD PUSH32 0x8C379A000000000000000000000000000000000000000000000000000000000 DUP2 MSTORE PUSH1 0x4 ADD PUSH2 0x60B SWAP1 PUSH2 0x1C65 JUMP JUMPDEST PUSH1 0x40 MLOAD DUP1 SWAP2 SUB SWAP1 REVERT JUMPDEST PUSH1 0x5 PUSH1 0x40 MLOAD DUP1 PUSH1 0x60 ADD PUSH1 0x40 MSTORE DUP1 DUP5 DUP2 MSTORE PUSH1 0x20 ADD CALLER PUSH20 0xFFFFFFFFFFFFFFFFFFFFFFFFFFFFFFFFFFFFFFFF AND DUP2 MSTORE PUSH1 0x20 ADD TIMESTAMP DUP2 MSTORE POP SWAP1 DUP1 PUSH1 0x1 DUP2 SLOAD ADD DUP1 DUP3 SSTORE DUP1 SWAP2 POP POP PUSH1 0x1 SWAP1 SUB SWAP1 PUSH0 MSTORE PUSH1 0x20 PUSH0 KECCAK256 SWAP1 PUSH1 0x3 MUL ADD PUSH0 SWAP1 SWAP2 SWAP1 SWAP2 SWAP1 SWAP2 POP PUSH0 DUP3 ADD MLOAD DUP2 PUSH0 ADD SSTORE PUSH1 0x20 DUP3 ADD MLOAD DUP2 PUSH1 0x1 ADD PUSH0 PUSH2 0x100 EXP DUP2 SLOAD DUP2 PUSH20 0xFFFFFFFFFFFFFFFFFFFFFFFFFFFFFFFFFFFFFFFF MUL NOT AND SWAP1 DUP4 PUSH20 0xFFFFFFFFFFFFFFFFFFFFFFFFFFFFFFFFFFFFFFFF AND MUL OR SWAP1 SSTORE POP PUSH1 0x40 DUP3 ADD MLOAD DUP2 PUSH1 0x2 ADD SSTORE POP POP PUSH32 0x980D15B088D1127894AC6300DA68467873935CB71F64D1FF99F85614BF474C6C DUP3 CALLER PUSH1 0x40 MLOAD PUSH2 0x6F8 SWAP3 SWAP2 SWAP1 PUSH2 0x1C92 JUMP JUMPDEST PUSH1 0x40 MLOAD DUP1 SWAP2 SUB SWAP1 LOG1 PUSH1 0x2 PUSH0 DUP4 DUP2 MSTORE PUSH1 0x20 ADD SWAP1 DUP2 MSTORE PUSH1 0x20 ADD PUSH0 KECCAK256 PUSH1 0x1 ADD DUP1 SLOAD PUSH2 0x71F SWAP1 PUSH2 0x1CE6 JUMP JUMPDEST DUP1 PUSH1 0x1F ADD PUSH1 0x20 DUP1 SWAP2 DIV MUL PUSH1 0x20 ADD PUSH1 0x40 MLOAD SWAP1 DUP2 ADD PUSH1 0x40 MSTORE DUP1 SWAP3 SWAP2 SWAP1 DUP2 DUP2 MSTORE PUSH1 0x20 ADD DUP3 DUP1 SLOAD PUSH2 0x74B SWAP1 PUSH2 0x1CE6 JUMP JUMPDEST DUP1 ISZERO PUSH2 0x796 JUMPI DUP1 PUSH1 0x1F LT PUSH2 0x76D JUMPI PUSH2 0x100 DUP1 DUP4 SLOAD DIV MUL DUP4 MSTORE SWAP2 PUSH1 0x20 ADD SWAP2 PUSH2 0x796 JUMP JUMPDEST DUP3 ADD SWAP2 SWAP1 PUSH0 MSTORE PUSH1 0x20 PUSH0 KECCAK256 SWAP1 JUMPDEST DUP2 SLOAD DUP2 MSTORE SWAP1 PUSH1 0x1 ADD SWAP1 PUSH1 0x20 ADD DUP1 DUP4 GT PUSH2 0x779 JUMPI DUP3 SWAP1 SUB PUSH1 0x1F AND DUP3 ADD SWAP2 JUMPDEST POP POP POP POP POP SWAP1 POP SWAP2 SWAP1 POP JUMP JUMPDEST PUSH32 0x8825C62207077C41710FE5144A6467477A643E911C9AB3785826111F7C94ED8B DUP2 JUMP JUMPDEST PUSH2 0x7CE PUSH2 0x10C1 JUMP JUMPDEST PUSH2 0x7F8 PUSH32 0x8825C62207077C41710FE5144A6467477A643E911C9AB3785826111F7C94ED8B DUP3 PUSH2 0xBC3 JUMP JUMPDEST POP JUMP JUMPDEST PUSH0 DUP1 PUSH0 DUP4 DUP2 MSTORE PUSH1 0x20 ADD SWAP1 DUP2 MSTORE PUSH1 0x20 ADD PUSH0 KECCAK256 PUSH1 0x1 ADD SLOAD SWAP1 POP SWAP2 SWAP1 POP JUMP JUMPDEST PUSH2 0x820 DUP3 PUSH2 0x7FB JUMP JUMPDEST PUSH2 0x829 DUP2 PUSH2 0x1148 JUMP JUMPDEST PUSH2 0x833 DUP4 DUP4 PUSH2 0x115C JUMP JUMPDEST POP POP POP POP JUMP JUMPDEST PUSH2 0x841 PUSH2 0x1245 JUMP JUMPDEST PUSH20 0xFFFFFFFFFFFFFFFFFFFFFFFFFFFFFFFFFFFFFFFF AND DUP2 PUSH20 0xFFFFFFFFFFFFFFFFFFFFFFFFFFFFFFFFFFFFFFFF AND EQ PUSH2 0x8A5 JUMPI PUSH1 0x40 MLOAD PUSH32 0x6697B23200000000000000000000000000000000000000000000000000000000 DUP2 MSTORE PUSH1 0x4 ADD PUSH1 0x40 MLOAD DUP1 SWAP2 SUB SWAP1 REVERT JUMPDEST PUSH2 0x8AF DUP3 DUP3 PUSH2 0x124C JUMP JUMPDEST POP POP POP JUMP JUMPDEST PUSH2 0x8BC PUSH2 0x10C1 JUMP JUMPDEST PUSH2 0x8E6 PUSH32 0x8825C62207077C41710FE5144A6467477A643E911C9AB3785826111F7C94ED8B DUP3 PUSH2 0x817 JUMP JUMPDEST POP JUMP JUMPDEST PUSH1 0x60 PUSH1 0x3 PUSH0 DUP4 PUSH20 0xFFFFFFFFFFFFFFFFFFFFFFFFFFFFFFFFFFFFFFFF AND PUSH20 0xFFFFFFFFFFFFFFFFFFFFFFFFFFFFFFFFFFFFFFFF AND DUP2 MSTORE PUSH1 0x20 ADD SWAP1 DUP2 MSTORE PUSH1 0x20 ADD PUSH0 KECCAK256 DUP1 SLOAD DUP1 PUSH1 0x20 MUL PUSH1 0x20 ADD PUSH1 0x40 MLOAD SWAP1 DUP2 ADD PUSH1 0x40 MSTORE DUP1 SWAP3 SWAP2 SWAP1 DUP2 DUP2 MSTORE PUSH1 0x20 ADD DUP3 DUP1 SLOAD DUP1 ISZERO PUSH2 0x970 JUMPI PUSH1 0x20 MUL DUP3 ADD SWAP2 SWAP1 PUSH0 MSTORE PUSH1 0x20 PUSH0 KECCAK256 SWAP1 JUMPDEST DUP2 SLOAD DUP2 MSTORE PUSH1 0x20 ADD SWAP1 PUSH1 0x1 ADD SWAP1 DUP1 DUP4 GT PUSH2 0x95C JUMPI JUMPDEST POP POP POP POP POP SWAP1 POP SWAP2 SWAP1 POP JUMP JUMPDEST PUSH1 0x2 PUSH0 DUP4 DUP2 MSTORE PUSH1 0x20 ADD SWAP1 DUP2 MSTORE PUSH1 0x20 ADD PUSH0 KECCAK256 PUSH1 0x2 ADD PUSH1 0x14 SWAP1 SLOAD SWAP1 PUSH2 0x100 EXP SWAP1 DIV PUSH1 0xFF AND PUSH2 0x9DD JUMPI PUSH1 0x40 MLOAD PUSH32 0x8C379A000000000000000000000000000000000000000000000000000000000 DUP2 MSTORE PUSH1 0x4 ADD PUSH2 0x9D4 SWAP1 PUSH2 0x1BFD JUMP JUMPDEST PUSH1 0x40 MLOAD DUP1 SWAP2 SUB SWAP1 REVERT JUMPDEST CALLER PUSH20 0xFFFFFFFFFFFFFFFFFFFFFFFFFFFFFFFFFFFFFFFF AND PUSH1 0x2 PUSH0 DUP5 DUP2 MSTORE PUSH1 0x20 ADD SWAP1 DUP2 MSTORE PUSH1 0x20 ADD PUSH0 KECCAK256 PUSH1 0x2 ADD PUSH0 SWAP1 SLOAD SWAP1 PUSH2 0x100 EXP SWAP1 DIV PUSH20 0xFFFFFFFFFFFFFFFFFFFFFFFFFFFFFFFFFFFFFFFF AND PUSH20 0xFFFFFFFFFFFFFFFFFFFFFFFFFFFFFFFFFFFFFFFF AND EQ PUSH2 0xA7E JUMPI PUSH1 0x40 MLOAD PUSH32 0x8C379A000000000000000000000000000000000000000000000000000000000 DUP2 MSTORE PUSH1 0x4 ADD PUSH2 0xA75 SWAP1 PUSH2 0x1D60 JUMP JUMPDEST PUSH1 0x40 MLOAD DUP1 SWAP2 SUB SWAP1 REVERT JUMPDEST PUSH1 0x1 PUSH1 0x4 PUSH0 DUP4 PUSH20 0xFFFFFFFFFFFFFFFFFFFFFFFFFFFFFFFFFFFFFFFF AND PUSH20 0xFFFFFFFFFFFFFFFFFFFFFFFFFFFFFFFFFFFFFFFF AND DUP2 MSTORE PUSH1 0x20 ADD SWAP1 DUP2 MSTORE PUSH1 0x20 ADD PUSH0 KECCAK256 PUSH0 DUP5 DUP2 MSTORE PUSH1 0x20 ADD SWAP1 DUP2 MSTORE PUSH1 0x20 ADD PUSH0 KECCAK256 PUSH0 PUSH2 0x100 EXP DUP2 SLOAD DUP2 PUSH1 0xFF MUL NOT AND SWAP1 DUP4 ISZERO ISZERO MUL OR SWAP1 SSTORE POP PUSH32 0x3C3A9147A1FC73DD51A32F4D10C43D457E8CB826EB6F35CAC6349EB965BA82B4 DUP3 DUP3 PUSH1 0x40 MLOAD PUSH2 0xB13 SWAP3 SWAP2 SWAP1 PUSH2 0x1C92 JUMP JUMPDEST PUSH1 0x40 MLOAD DUP1 SWAP2 SUB SWAP1 LOG1 POP POP JUMP JUMPDEST PUSH2 0xB27 PUSH2 0x10C1 JUMP JUMPDEST PUSH2 0xB30 PUSH0 PUSH2 0x1335 JUMP JUMPDEST JUMP JUMPDEST PUSH0 PUSH1 0x1 PUSH0 SWAP1 SLOAD SWAP1 PUSH2 0x100 EXP SWAP1 DIV PUSH20 0xFFFFFFFFFFFFFFFFFFFFFFFFFFFFFFFFFFFFFFFF AND SWAP1 POP SWAP1 JUMP JUMPDEST PUSH0 DUP1 PUSH0 DUP5 DUP2 MSTORE PUSH1 0x20 ADD SWAP1 DUP2 MSTORE PUSH1 0x20 ADD PUSH0 KECCAK256 PUSH0 ADD PUSH0 DUP4 PUSH20 0xFFFFFFFFFFFFFFFFFFFFFFFFFFFFFFFFFFFFFFFF AND PUSH20 0xFFFFFFFFFFFFFFFFFFFFFFFFFFFFFFFFFFFFFFFF AND DUP2 MSTORE PUSH1 0x20 ADD SWAP1 DUP2 MSTORE PUSH1 0x20 ADD PUSH0 KECCAK256 PUSH0 SWAP1 SLOAD SWAP1 PUSH2 0x100 EXP SWAP1 DIV PUSH1 0xFF AND SWAP1 POP SWAP3 SWAP2 POP POP JUMP JUMPDEST PUSH0 DUP1 SHL DUP2 JUMP JUMPDEST PUSH2 0xBCC DUP3 PUSH2 0x7FB JUMP JUMPDEST PUSH2 0xBD5 DUP2 PUSH2 0x1148 JUMP JUMPDEST PUSH2 0xBDF DUP4 DUP4 PUSH2 0x124C JUMP JUMPDEST POP POP POP POP JUMP JUMPDEST PUSH1 0x2 PUSH0 DUP4 DUP2 MSTORE PUSH1 0x20 ADD SWAP1 DUP2 MSTORE PUSH1 0x20 ADD PUSH0 KECCAK256 PUSH1 0x2 ADD PUSH1 0x14 SWAP1 SLOAD SWAP1 PUSH2 0x100 EXP SWAP1 DIV PUSH1 0xFF AND PUSH2 0xC46 JUMPI PUSH1 0x40 MLOAD PUSH32 0x8C379A000000000000000000000000000000000000000000000000000000000 DUP2 MSTORE PUSH1 0x4 ADD PUSH2 0xC3D SWAP1 PUSH2 0x1BFD JUMP JUMPDEST PUSH1 0x40 MLOAD DUP1 SWAP2 SUB SWAP1 REVERT JUMPDEST CALLER PUSH20 0xFFFFFFFFFFFFFFFFFFFFFFFFFFFFFFFFFFFFFFFF AND PUSH1 0x2 PUSH0 DUP5 DUP2 MSTORE PUSH1 0x20 ADD SWAP1 DUP2 MSTORE PUSH1 0x20 ADD PUSH0 KECCAK256 PUSH1 0x2 ADD PUSH0 SWAP1 SLOAD SWAP1 PUSH2 0x100 EXP SWAP1 DIV PUSH20 0xFFFFFFFFFFFFFFFFFFFFFFFFFFFFFFFFFFFFFFFF AND PUSH20 0xFFFFFFFFFFFFFFFFFFFFFFFFFFFFFFFFFFFFFFFF AND EQ PUSH2 0xCE7 JUMPI PUSH1 0x40 MLOAD PUSH32 0x8C379A000000000000000000000000000000000000000000000000000000000 DUP2 MSTORE PUSH1 0x4 ADD PUSH2 0xCDE SWAP1 PUSH2 0x1DC8 JUMP JUMPDEST PUSH1 0x40 MLOAD DUP1 SWAP2 SUB SWAP1 REVERT JUMPDEST PUSH0 PUSH1 0x4 PUSH0 DUP4 PUSH20 0xFFFFFFFFFFFFFFFFFFFFFFFFFFFFFFFFFFFFFFFF AND PUSH20 0xFFFFFFFFFFFFFFFFFFFFFFFFFFFFFFFFFFFFFFFF AND DUP2 MSTORE PUSH1 0x20 ADD SWAP1 DUP2 MSTORE PUSH1 0x20 ADD PUSH0 KECCAK256 PUSH0 DUP5 DUP2 MSTORE PUSH1 0x20 ADD SWAP1 DUP2 MSTORE PUSH1 0x20 ADD PUSH0 KECCAK256 PUSH0 PUSH2 0x100 EXP DUP2 SLOAD DUP2 PUSH1 0xFF MUL NOT AND SWAP1 DUP4 ISZERO ISZERO MUL OR SWAP1 SSTORE POP PUSH32 0x125883B94692BAEBECAD9F111ED97FFA626523BBBADC6B0EF85EE1B56B9E52D5 DUP3 DUP3 PUSH1 0x40 MLOAD PUSH2 0xD7B SWAP3 SWAP2 SWAP1 PUSH2 0x1C92 JUMP JUMPDEST PUSH1 0x40 MLOAD DUP1 SWAP2 SUB SWAP1 LOG1 POP POP JUMP JUMPDEST PUSH0 PUSH1 0x6 PUSH0 DUP2 SLOAD DUP1 SWAP3 SWAP2 SWAP1 PUSH2 0xD9A SWAP1 PUSH2 0x1E13 JUMP JUMPDEST SWAP2 SWAP1 POP SSTORE SWAP1 POP PUSH1 0x40 MLOAD DUP1 PUSH1 0x80 ADD PUSH1 0x40 MSTORE DUP1 DUP3 DUP2 MSTORE PUSH1 0x20 ADD DUP4 DUP2 MSTORE PUSH1 0x20 ADD CALLER PUSH20 0xFFFFFFFFFFFFFFFFFFFFFFFFFFFFFFFFFFFFFFFF AND DUP2 MSTORE PUSH1 0x20 ADD PUSH1 0x1 ISZERO ISZERO DUP2 MSTORE POP PUSH1 0x2 PUSH0 DUP4 DUP2 MSTORE PUSH1 0x20 ADD SWAP1 DUP2 MSTORE PUSH1 0x20 ADD PUSH0 KECCAK256 PUSH0 DUP3 ADD MLOAD DUP2 PUSH0 ADD SSTORE PUSH1 0x20 DUP3 ADD MLOAD DUP2 PUSH1 0x1 ADD SWAP1 DUP2 PUSH2 0xE08 SWAP2 SWAP1 PUSH2 0x1FF7 JUMP JUMPDEST POP PUSH1 0x40 DUP3 ADD MLOAD DUP2 PUSH1 0x2 ADD PUSH0 PUSH2 0x100 EXP DUP2 SLOAD DUP2 PUSH20 0xFFFFFFFFFFFFFFFFFFFFFFFFFFFFFFFFFFFFFFFF MUL NOT AND SWAP1 DUP4 PUSH20 0xFFFFFFFFFFFFFFFFFFFFFFFFFFFFFFFFFFFFFFFF AND MUL OR SWAP1 SSTORE POP PUSH1 0x60 DUP3 ADD MLOAD DUP2 PUSH1 0x2 ADD PUSH1 0x14 PUSH2 0x100 EXP DUP2 SLOAD DUP2 PUSH1 0xFF MUL NOT AND SWAP1 DUP4 ISZERO ISZERO MUL OR SWAP1 SSTORE POP SWAP1 POP POP PUSH1 0x3 PUSH0 CALLER PUSH20 0xFFFFFFFFFFFFFFFFFFFFFFFFFFFFFFFFFFFFFFFF AND PUSH20 0xFFFFFFFFFFFFFFFFFFFFFFFFFFFFFFFFFFFFFFFF AND DUP2 MSTORE PUSH1 0x20 ADD SWAP1 DUP2 MSTORE PUSH1 0x20 ADD PUSH0 KECCAK256 DUP2 SWAP1 DUP1 PUSH1 0x1 DUP2 SLOAD ADD DUP1 DUP3 SSTORE DUP1 SWAP2 POP POP PUSH1 0x1 SWAP1 SUB SWAP1 PUSH0 MSTORE PUSH1 0x20 PUSH0 KECCAK256 ADD PUSH0 SWAP1 SWAP2 SWAP1 SWAP2 SWAP1 SWAP2 POP SSTORE PUSH32 0x9A96995FDAFDB50A11BFBCD015E3313B1A7DE85A9A5C033E9CECCC3EE1B4C893 DUP2 CALLER PUSH1 0x40 MLOAD PUSH2 0xF04 SWAP3 SWAP2 SWAP1 PUSH2 0x1C92 JUMP JUMPDEST PUSH1 0x40 MLOAD DUP1 SWAP2 SUB SWAP1 LOG1 POP POP JUMP JUMPDEST PUSH1 0x60 PUSH1 0x5 DUP1 SLOAD DUP1 PUSH1 0x20 MUL PUSH1 0x20 ADD PUSH1 0x40 MLOAD SWAP1 DUP2 ADD PUSH1 0x40 MSTORE DUP1 SWAP3 SWAP2 SWAP1 DUP2 DUP2 MSTORE PUSH1 0x20 ADD PUSH0 SWAP1 JUMPDEST DUP3 DUP3 LT ISZERO PUSH2 0xFCB JUMPI DUP4 DUP3 SWAP1 PUSH0 MSTORE PUSH1 0x20 PUSH0 KECCAK256 SWAP1 PUSH1 0x3 MUL ADD PUSH1 0x40 MLOAD DUP1 PUSH1 0x60 ADD PUSH1 0x40 MSTORE SWAP1 DUP2 PUSH0 DUP3 ADD SLOAD DUP2 MSTORE PUSH1 0x20 ADD PUSH1 0x1 DUP3 ADD PUSH0 SWAP1 SLOAD SWAP1 PUSH2 0x100 EXP SWAP1 DIV PUSH20 0xFFFFFFFFFFFFFFFFFFFFFFFFFFFFFFFFFFFFFFFF AND PUSH20 0xFFFFFFFFFFFFFFFFFFFFFFFFFFFFFFFFFFFFFFFF AND PUSH20 0xFFFFFFFFFFFFFFFFFFFFFFFFFFFFFFFFFFFFFFFF AND DUP2 MSTORE PUSH1 0x20 ADD PUSH1 0x2 DUP3 ADD SLOAD DUP2 MSTORE POP POP DUP2 MSTORE PUSH1 0x20 ADD SWAP1 PUSH1 0x1 ADD SWAP1 PUSH2 0xF33 JUMP JUMPDEST POP POP POP POP SWAP1 POP SWAP1 JUMP JUMPDEST PUSH2 0xFDC PUSH2 0x10C1 JUMP JUMPDEST PUSH0 PUSH20 0xFFFFFFFFFFFFFFFFFFFFFFFFFFFFFFFFFFFFFFFF AND DUP2 PUSH20 0xFFFFFFFFFFFFFFFFFFFFFFFFFFFFFFFFFFFFFFFF AND SUB PUSH2 0x104C JUMPI PUSH0 PUSH1 0x40 MLOAD PUSH32 0x1E4FBDF700000000000000000000000000000000000000000000000000000000 DUP2 MSTORE PUSH1 0x4 ADD PUSH2 0x1043 SWAP2 SWAP1 PUSH2 0x1882 JUMP JUMPDEST PUSH1 0x40 MLOAD DUP1 SWAP2 SUB SWAP1 REVERT JUMPDEST PUSH2 0x1055 DUP2 PUSH2 0x1335 JUMP JUMPDEST POP JUMP JUMPDEST PUSH0 PUSH32 0x1FFC9A700000000000000000000000000000000000000000000000000000000 PUSH28 0xFFFFFFFFFFFFFFFFFFFFFFFFFFFFFFFFFFFFFFFFFFFFFFFFFFFFFFFF NOT AND DUP3 PUSH28 0xFFFFFFFFFFFFFFFFFFFFFFFFFFFFFFFFFFFFFFFFFFFFFFFFFFFFFFFF NOT AND EQ SWAP1 POP SWAP2 SWAP1 POP JUMP JUMPDEST PUSH2 0x10C9 PUSH2 0x1245 JUMP JUMPDEST PUSH20 0xFFFFFFFFFFFFFFFFFFFFFFFFFFFFFFFFFFFFFFFF AND PUSH2 0x10E7 PUSH2 0xB32 JUMP JUMPDEST PUSH20 0xFFFFFFFFFFFFFFFFFFFFFFFFFFFFFFFFFFFFFFFF AND EQ PUSH2 0x1146 JUMPI PUSH2 0x110A PUSH2 0x1245 JUMP JUMPDEST PUSH1 0x40 MLOAD PUSH32 0x118CDAA700000000000000000000000000000000000000000000000000000000 DUP2 MSTORE PUSH1 0x4 ADD PUSH2 0x113D SWAP2 SWAP1 PUSH2 0x1882 JUMP JUMPDEST PUSH1 0x40 MLOAD DUP1 SWAP2 SUB SWAP1 REVERT JUMPDEST JUMP JUMPDEST PUSH2 0x1159 DUP2 PUSH2 0x1154 PUSH2 0x1245 JUMP JUMPDEST PUSH2 0x13F8 JUMP JUMPDEST POP JUMP JUMPDEST PUSH0 PUSH2 0x1167 DUP4 DUP4 PUSH2 0xB5A JUMP JUMPDEST PUSH2 0x123B JUMPI PUSH1 0x1 PUSH0 DUP1 DUP6 DUP2 MSTORE PUSH1 0x20 ADD SWAP1 DUP2 MSTORE PUSH1 0x20 ADD PUSH0 KECCAK256 PUSH0 ADD PUSH0 DUP5 PUSH20 0xFFFFFFFFFFFFFFFFFFFFFFFFFFFFFFFFFFFFFFFF AND PUSH20 0xFFFFFFFFFFFFFFFFFFFFFFFFFFFFFFFFFFFFFFFF AND DUP2 MSTORE PUSH1 0x20 ADD SWAP1 DUP2 MSTORE PUSH1 0x20 ADD PUSH0 KECCAK256 PUSH0 PUSH2 0x100 EXP DUP2 SLOAD DUP2 PUSH1 0xFF MUL NOT AND SWAP1 DUP4 ISZERO ISZERO MUL OR SWAP1 SSTORE POP PUSH2 0x11D8 PUSH2 0x1245 JUMP JUMPDEST PUSH20 0xFFFFFFFFFFFFFFFFFFFFFFFFFFFFFFFFFFFFFFFF AND DUP3 PUSH20 0xFFFFFFFFFFFFFFFFFFFFFFFFFFFFFFFFFFFFFFFF AND DUP5 PUSH32 0x2F8788117E7EFF1D82E926EC794901D17C78024A50270940304540A733656F0D PUSH1 0x40 MLOAD PUSH1 0x40 MLOAD DUP1 SWAP2 SUB SWAP1 LOG4 PUSH1 0x1 SWAP1 POP PUSH2 0x123F JUMP JUMPDEST PUSH0 SWAP1 POP JUMPDEST SWAP3 SWAP2 POP POP JUMP JUMPDEST PUSH0 CALLER SWAP1 POP SWAP1 JUMP JUMPDEST PUSH0 PUSH2 0x1257 DUP4 DUP4 PUSH2 0xB5A JUMP JUMPDEST ISZERO PUSH2 0x132B JUMPI PUSH0 DUP1 PUSH0 DUP6 DUP2 MSTORE PUSH1 0x20 ADD SWAP1 DUP2 MSTORE PUSH1 0x20 ADD PUSH0 KECCAK256 PUSH0 ADD PUSH0 DUP5 PUSH20 0xFFFFFFFFFFFFFFFFFFFFFFFFFFFFFFFFFFFFFFFF AND PUSH20 0xFFFFFFFFFFFFFFFFFFFFFFFFFFFFFFFFFFFFFFFF AND DUP2 MSTORE PUSH1 0x20 ADD SWAP1 DUP2 MSTORE PUSH1 0x20 ADD PUSH0 KECCAK256 PUSH0 PUSH2 0x100 EXP DUP2 SLOAD DUP2 PUSH1 0xFF MUL NOT AND SWAP1 DUP4 ISZERO ISZERO MUL OR SWAP1 SSTORE POP PUSH2 0x12C8 PUSH2 0x1245 JUMP JUMPDEST PUSH20 0xFFFFFFFFFFFFFFFFFFFFFFFFFFFFFFFFFFFFFFFF AND DUP3 PUSH20 0xFFFFFFFFFFFFFFFFFFFFFFFFFFFFFFFFFFFFFFFF AND DUP5 PUSH32 0xF6391F5C32D9C69D2A47EA670B442974B53935D1EDC7FD64EB21E047A839171B PUSH1 0x40 MLOAD PUSH1 0x40 MLOAD DUP1 SWAP2 SUB SWAP1 LOG4 PUSH1 0x1 SWAP1 POP PUSH2 0x132F JUMP JUMPDEST PUSH0 SWAP1 POP JUMPDEST SWAP3 SWAP2 POP POP JUMP JUMPDEST PUSH0 PUSH1 0x1 PUSH0 SWAP1 SLOAD SWAP1 PUSH2 0x100 EXP SWAP1 DIV PUSH20 0xFFFFFFFFFFFFFFFFFFFFFFFFFFFFFFFFFFFFFFFF AND SWAP1 POP DUP2 PUSH1 0x1 PUSH0 PUSH2 0x100 EXP DUP2 SLOAD DUP2 PUSH20 0xFFFFFFFFFFFFFFFFFFFFFFFFFFFFFFFFFFFFFFFF MUL NOT AND SWAP1 DUP4 PUSH20 0xFFFFFFFFFFFFFFFFFFFFFFFFFFFFFFFFFFFFFFFF AND MUL OR SWAP1 SSTORE POP DUP2 PUSH20 0xFFFFFFFFFFFFFFFFFFFFFFFFFFFFFFFFFFFFFFFF AND DUP2 PUSH20 0xFFFFFFFFFFFFFFFFFFFFFFFFFFFFFFFFFFFFFFFF AND PUSH32 0x8BE0079C531659141344CD1FD0A4F28419497F9722A3DAAFE3B4186F6B6457E0 PUSH1 0x40 MLOAD PUSH1 0x40 MLOAD DUP1 SWAP2 SUB SWAP1 LOG3 POP POP JUMP JUMPDEST PUSH2 0x1402 DUP3 DUP3 PUSH2 0xB5A JUMP JUMPDEST PUSH2 0x1445 JUMPI DUP1 DUP3 PUSH1 0x40 MLOAD PUSH32 0xE2517D3F00000000000000000000000000000000000000000000000000000000 DUP2 MSTORE PUSH1 0x4 ADD PUSH2 0x143C SWAP3 SWAP2 SWAP1 PUSH2 0x20C6 JUMP JUMPDEST PUSH1 0x40 MLOAD DUP1 SWAP2 SUB SWAP1 REVERT JUMPDEST POP POP JUMP JUMPDEST PUSH0 PUSH1 0x40 MLOAD SWAP1 POP SWAP1 JUMP JUMPDEST PUSH0 DUP1 REVERT JUMPDEST PUSH0 DUP1 REVERT JUMPDEST PUSH0 PUSH32 0xFFFFFFFF00000000000000000000000000000000000000000000000000000000 DUP3 AND SWAP1 POP SWAP2 SWAP1 POP JUMP JUMPDEST PUSH2 0x148E DUP2 PUSH2 0x145A JUMP JUMPDEST DUP2 EQ PUSH2 0x1498 JUMPI PUSH0 DUP1 REVERT JUMPDEST POP JUMP JUMPDEST PUSH0 DUP2 CALLDATALOAD SWAP1 POP PUSH2 0x14A9 DUP2 PUSH2 0x1485 JUMP JUMPDEST SWAP3 SWAP2 POP POP JUMP JUMPDEST PUSH0 PUSH1 0x20 DUP3 DUP5 SUB SLT ISZERO PUSH2 0x14C4 JUMPI PUSH2 0x14C3 PUSH2 0x1452 JUMP JUMPDEST JUMPDEST PUSH0 PUSH2 0x14D1 DUP5 DUP3 DUP6 ADD PUSH2 0x149B JUMP JUMPDEST SWAP2 POP POP SWAP3 SWAP2 POP POP JUMP JUMPDEST PUSH0 DUP2 ISZERO ISZERO SWAP1 POP SWAP2 SWAP1 POP JUMP JUMPDEST PUSH2 0x14EE DUP2 PUSH2 0x14DA JUMP JUMPDEST DUP3 MSTORE POP POP JUMP JUMPDEST PUSH0 PUSH1 0x20 DUP3 ADD SWAP1 POP PUSH2 0x1507 PUSH0 DUP4 ADD DUP5 PUSH2 0x14E5 JUMP JUMPDEST SWAP3 SWAP2 POP POP JUMP JUMPDEST PUSH0 DUP2 SWAP1 POP SWAP2 SWAP1 POP JUMP JUMPDEST PUSH2 0x151F DUP2 PUSH2 0x150D JUMP JUMPDEST DUP2 EQ PUSH2 0x1529 JUMPI PUSH0 DUP1 REVERT JUMPDEST POP JUMP JUMPDEST PUSH0 DUP2 CALLDATALOAD SWAP1 POP PUSH2 0x153A DUP2 PUSH2 0x1516 JUMP JUMPDEST SWAP3 SWAP2 POP POP JUMP JUMPDEST PUSH0 PUSH1 0x20 DUP3 DUP5 SUB SLT ISZERO PUSH2 0x1555 JUMPI PUSH2 0x1554 PUSH2 0x1452 JUMP JUMPDEST JUMPDEST PUSH0 PUSH2 0x1562 DUP5 DUP3 DUP6 ADD PUSH2 0x152C JUMP JUMPDEST SWAP2 POP POP SWAP3 SWAP2 POP POP JUMP JUMPDEST PUSH0 DUP2 MLOAD SWAP1 POP SWAP2 SWAP1 POP JUMP JUMPDEST PUSH0 DUP3 DUP3 MSTORE PUSH1 0x20 DUP3 ADD SWAP1 POP SWAP3 SWAP2 POP POP JUMP JUMPDEST PUSH0 JUMPDEST DUP4 DUP2 LT ISZERO PUSH2 0x15A2 JUMPI DUP1 DUP3 ADD MLOAD DUP2 DUP5 ADD MSTORE PUSH1 0x20 DUP2 ADD SWAP1 POP PUSH2 0x1587 JUMP JUMPDEST PUSH0 DUP5 DUP5 ADD MSTORE POP POP POP POP JUMP JUMPDEST PUSH0 PUSH1 0x1F NOT PUSH1 0x1F DUP4 ADD AND SWAP1 POP SWAP2 SWAP1 POP JUMP JUMPDEST PUSH0 PUSH2 0x15C7 DUP3 PUSH2 0x156B JUMP JUMPDEST PUSH2 0x15D1 DUP2 DUP6 PUSH2 0x1575 JUMP JUMPDEST SWAP4 POP PUSH2 0x15E1 DUP2 DUP6 PUSH1 0x20 DUP7 ADD PUSH2 0x1585 JUMP JUMPDEST PUSH2 0x15EA DUP2 PUSH2 0x15AD JUMP JUMPDEST DUP5 ADD SWAP2 POP POP SWAP3 SWAP2 POP POP JUMP JUMPDEST PUSH0 PUSH1 0x20 DUP3 ADD SWAP1 POP DUP2 DUP2 SUB PUSH0 DUP4 ADD MSTORE PUSH2 0x160D DUP2 DUP5 PUSH2 0x15BD JUMP JUMPDEST SWAP1 POP SWAP3 SWAP2 POP POP JUMP JUMPDEST PUSH0 DUP2 SWAP1 POP SWAP2 SWAP1 POP JUMP JUMPDEST PUSH2 0x1627 DUP2 PUSH2 0x1615 JUMP JUMPDEST DUP3 MSTORE POP POP JUMP JUMPDEST PUSH0 PUSH1 0x20 DUP3 ADD SWAP1 POP PUSH2 0x1640 PUSH0 DUP4 ADD DUP5 PUSH2 0x161E JUMP JUMPDEST SWAP3 SWAP2 POP POP JUMP JUMPDEST PUSH0 PUSH20 0xFFFFFFFFFFFFFFFFFFFFFFFFFFFFFFFFFFFFFFFF DUP3 AND SWAP1 POP SWAP2 SWAP1 POP JUMP JUMPDEST PUSH0 PUSH2 0x166F DUP3 PUSH2 0x1646 JUMP JUMPDEST SWAP1 POP SWAP2 SWAP1 POP JUMP JUMPDEST PUSH2 0x167F DUP2 PUSH2 0x1665 JUMP JUMPDEST DUP2 EQ PUSH2 0x1689 JUMPI PUSH0 DUP1 REVERT JUMPDEST POP JUMP JUMPDEST PUSH0 DUP2 CALLDATALOAD SWAP1 POP PUSH2 0x169A DUP2 PUSH2 0x1676 JUMP JUMPDEST SWAP3 SWAP2 POP POP JUMP JUMPDEST PUSH0 PUSH1 0x20 DUP3 DUP5 SUB SLT ISZERO PUSH2 0x16B5 JUMPI PUSH2 0x16B4 PUSH2 0x1452 JUMP JUMPDEST JUMPDEST PUSH0 PUSH2 0x16C2 DUP5 DUP3 DUP6 ADD PUSH2 0x168C JUMP JUMPDEST SWAP2 POP POP SWAP3 SWAP2 POP POP JUMP JUMPDEST PUSH2 0x16D4 DUP2 PUSH2 0x1615 JUMP JUMPDEST DUP2 EQ PUSH2 0x16DE JUMPI PUSH0 DUP1 REVERT JUMPDEST POP JUMP JUMPDEST PUSH0 DUP2 CALLDATALOAD SWAP1 POP PUSH2 0x16EF DUP2 PUSH2 0x16CB JUMP JUMPDEST SWAP3 SWAP2 POP POP JUMP JUMPDEST PUSH0 PUSH1 0x20 DUP3 DUP5 SUB SLT ISZERO PUSH2 0x170A JUMPI PUSH2 0x1709 PUSH2 0x1452 JUMP JUMPDEST JUMPDEST PUSH0 PUSH2 0x1717 DUP5 DUP3 DUP6 ADD PUSH2 0x16E1 JUMP JUMPDEST SWAP2 POP POP SWAP3 SWAP2 POP POP JUMP JUMPDEST PUSH0 DUP1 PUSH1 0x40 DUP4 DUP6 SUB SLT ISZERO PUSH2 0x1736 JUMPI PUSH2 0x1735 PUSH2 0x1452 JUMP JUMPDEST JUMPDEST PUSH0 PUSH2 0x1743 DUP6 DUP3 DUP7 ADD PUSH2 0x16E1 JUMP JUMPDEST SWAP3 POP POP PUSH1 0x20 PUSH2 0x1754 DUP6 DUP3 DUP7 ADD PUSH2 0x168C JUMP JUMPDEST SWAP2 POP POP SWAP3 POP SWAP3 SWAP1 POP JUMP JUMPDEST PUSH0 DUP2 MLOAD SWAP1 POP SWAP2 SWAP1 POP JUMP JUMPDEST PUSH0 DUP3 DUP3 MSTORE PUSH1 0x20 DUP3 ADD SWAP1 POP SWAP3 SWAP2 POP POP JUMP JUMPDEST PUSH0 DUP2 SWAP1 POP PUSH1 0x20 DUP3 ADD SWAP1 POP SWAP2 SWAP1 POP JUMP JUMPDEST PUSH2 0x1790 DUP2 PUSH2 0x150D JUMP JUMPDEST DUP3 MSTORE POP POP JUMP JUMPDEST PUSH0 PUSH2 0x17A1 DUP4 DUP4 PUSH2 0x1787 JUMP JUMPDEST PUSH1 0x20 DUP4 ADD SWAP1 POP SWAP3 SWAP2 POP POP JUMP JUMPDEST PUSH0 PUSH1 0x20 DUP3 ADD SWAP1 POP SWAP2 SWAP1 POP JUMP JUMPDEST PUSH0 PUSH2 0x17C3 DUP3 PUSH2 0x175E JUMP JUMPDEST PUSH2 0x17CD DUP2 DUP6 PUSH2 0x1768 JUMP JUMPDEST SWAP4 POP PUSH2 0x17D8 DUP4 PUSH2 0x1778 JUMP JUMPDEST DUP1 PUSH0 JUMPDEST DUP4 DUP2 LT ISZERO PUSH2 0x1808 JUMPI DUP2 MLOAD PUSH2 0x17EF DUP9 DUP3 PUSH2 0x1796 JUMP JUMPDEST SWAP8 POP PUSH2 0x17FA DUP4 PUSH2 0x17AD JUMP JUMPDEST SWAP3 POP POP PUSH1 0x1 DUP2 ADD SWAP1 POP PUSH2 0x17DB JUMP JUMPDEST POP DUP6 SWAP4 POP POP POP POP SWAP3 SWAP2 POP POP JUMP JUMPDEST PUSH0 PUSH1 0x20 DUP3 ADD SWAP1 POP DUP2 DUP2 SUB PUSH0 DUP4 ADD MSTORE PUSH2 0x182D DUP2 DUP5 PUSH2 0x17B9 JUMP JUMPDEST SWAP1 POP SWAP3 SWAP2 POP POP JUMP JUMPDEST PUSH0 DUP1 PUSH1 0x40 DUP4 DUP6 SUB SLT ISZERO PUSH2 0x184B JUMPI PUSH2 0x184A PUSH2 0x1452 JUMP JUMPDEST JUMPDEST PUSH0 PUSH2 0x1858 DUP6 DUP3 DUP7 ADD PUSH2 0x152C JUMP JUMPDEST SWAP3 POP POP PUSH1 0x20 PUSH2 0x1869 DUP6 DUP3 DUP7 ADD PUSH2 0x168C JUMP JUMPDEST SWAP2 POP POP SWAP3 POP SWAP3 SWAP1 POP JUMP JUMPDEST PUSH2 0x187C DUP2 PUSH2 0x1665 JUMP JUMPDEST DUP3 MSTORE POP POP JUMP JUMPDEST PUSH0 PUSH1 0x20 DUP3 ADD SWAP1 POP PUSH2 0x1895 PUSH0 DUP4 ADD DUP5 PUSH2 0x1873 JUMP JUMPDEST SWAP3 SWAP2 POP POP JUMP JUMPDEST PUSH0 DUP1 REVERT JUMPDEST PUSH0 DUP1 REVERT JUMPDEST PUSH32 0x4E487B7100000000000000000000000000000000000000000000000000000000 PUSH0 MSTORE PUSH1 0x41 PUSH1 0x4 MSTORE PUSH1 0x24 PUSH0 REVERT JUMPDEST PUSH2 0x18D9 DUP3 PUSH2 0x15AD JUMP JUMPDEST DUP2 ADD DUP2 DUP2 LT PUSH8 0xFFFFFFFFFFFFFFFF DUP3 GT OR ISZERO PUSH2 0x18F8 JUMPI PUSH2 0x18F7 PUSH2 0x18A3 JUMP JUMPDEST JUMPDEST DUP1 PUSH1 0x40 MSTORE POP POP POP JUMP JUMPDEST PUSH0 PUSH2 0x190A PUSH2 0x1449 JUMP JUMPDEST SWAP1 POP PUSH2 0x1916 DUP3 DUP3 PUSH2 0x18D0 JUMP JUMPDEST SWAP2 SWAP1 POP JUMP JUMPDEST PUSH0 PUSH8 0xFFFFFFFFFFFFFFFF DUP3 GT ISZERO PUSH2 0x1935 JUMPI PUSH2 0x1934 PUSH2 0x18A3 JUMP JUMPDEST JUMPDEST PUSH2 0x193E DUP3 PUSH2 0x15AD JUMP JUMPDEST SWAP1 POP PUSH1 0x20 DUP2 ADD SWAP1 POP SWAP2 SWAP1 POP JUMP JUMPDEST DUP3 DUP2 DUP4 CALLDATACOPY PUSH0 DUP4 DUP4 ADD MSTORE POP POP POP JUMP JUMPDEST PUSH0 PUSH2 0x196B PUSH2 0x1966 DUP5 PUSH2 0x191B JUMP JUMPDEST PUSH2 0x1901 JUMP JUMPDEST SWAP1 POP DUP3 DUP2 MSTORE PUSH1 0x20 DUP2 ADD DUP5 DUP5 DUP5 ADD GT ISZERO PUSH2 0x1987 JUMPI PUSH2 0x1986 PUSH2 0x189F JUMP JUMPDEST JUMPDEST PUSH2 0x1992 DUP5 DUP3 DUP6 PUSH2 0x194B JUMP JUMPDEST POP SWAP4 SWAP3 POP POP POP JUMP JUMPDEST PUSH0 DUP3 PUSH1 0x1F DUP4 ADD SLT PUSH2 0x19AE JUMPI PUSH2 0x19AD PUSH2 0x189B JUMP JUMPDEST JUMPDEST DUP2 CALLDATALOAD PUSH2 0x19BE DUP5 DUP3 PUSH1 0x20 DUP7 ADD PUSH2 0x1959 JUMP JUMPDEST SWAP2 POP POP SWAP3 SWAP2 POP POP JUMP JUMPDEST PUSH0 PUSH1 0x20 DUP3 DUP5 SUB SLT ISZERO PUSH2 0x19DC JUMPI PUSH2 0x19DB PUSH2 0x1452 JUMP JUMPDEST JUMPDEST PUSH0 DUP3 ADD CALLDATALOAD PUSH8 0xFFFFFFFFFFFFFFFF DUP2 GT ISZERO PUSH2 0x19F9 JUMPI PUSH2 0x19F8 PUSH2 0x1456 JUMP JUMPDEST JUMPDEST PUSH2 0x1A05 DUP5 DUP3 DUP6 ADD PUSH2 0x199A JUMP JUMPDEST SWAP2 POP POP SWAP3 SWAP2 POP POP JUMP JUMPDEST PUSH0 DUP2 MLOAD SWAP1 POP SWAP2 SWAP1 POP JUMP JUMPDEST PUSH0 DUP3 DUP3 MSTORE PUSH1 0x20 DUP3 ADD SWAP1 POP SWAP3 SWAP2 POP POP JUMP JUMPDEST PUSH0 DUP2 SWAP1 POP PUSH1 0x20 DUP3 ADD SWAP1 POP SWAP2 SWAP1 POP JUMP JUMPDEST PUSH2 0x1A40 DUP2 PUSH2 0x1665 JUMP JUMPDEST DUP3 MSTORE POP POP JUMP JUMPDEST PUSH1 0x60 DUP3 ADD PUSH0 DUP3 ADD MLOAD PUSH2 0x1A5A PUSH0 DUP6 ADD DUP3 PUSH2 0x1787 JUMP JUMPDEST POP PUSH1 0x20 DUP3 ADD MLOAD PUSH2 0x1A6D PUSH1 0x20 DUP6 ADD DUP3 PUSH2 0x1A37 JUMP JUMPDEST POP PUSH1 0x40 DUP3 ADD MLOAD PUSH2 0x1A80 PUSH1 0x40 DUP6 ADD DUP3 PUSH2 0x1787 JUMP JUMPDEST POP POP POP POP JUMP JUMPDEST PUSH0 PUSH2 0x1A91 DUP4 DUP4 PUSH2 0x1A46 JUMP JUMPDEST PUSH1 0x60 DUP4 ADD SWAP1 POP SWAP3 SWAP2 POP POP JUMP JUMPDEST PUSH0 PUSH1 0x20 DUP3 ADD SWAP1 POP SWAP2 SWAP1 POP JUMP JUMPDEST PUSH0 PUSH2 0x1AB3 DUP3 PUSH2 0x1A0E JUMP JUMPDEST PUSH2 0x1ABD DUP2 DUP6 PUSH2 0x1A18 JUMP JUMPDEST SWAP4 POP PUSH2 0x1AC8 DUP4 PUSH2 0x1A28 JUMP JUMPDEST DUP1 PUSH0 JUMPDEST DUP4 DUP2 LT ISZERO PUSH2 0x1AF8 JUMPI DUP2 MLOAD PUSH2 0x1ADF DUP9 DUP3 PUSH2 0x1A86 JUMP JUMPDEST SWAP8 POP PUSH2 0x1AEA DUP4 PUSH2 0x1A9D JUMP JUMPDEST SWAP3 POP POP PUSH1 0x1 DUP2 ADD SWAP1 POP PUSH2 0x1ACB JUMP JUMPDEST POP DUP6 SWAP4 POP POP POP POP SWAP3 SWAP2 POP POP JUMP JUMPDEST PUSH0 PUSH1 0x20 DUP3 ADD SWAP1 POP DUP2 DUP2 SUB PUSH0 DUP4 ADD MSTORE PUSH2 0x1B1D DUP2 DUP5 PUSH2 0x1AA9 JUMP JUMPDEST SWAP1 POP SWAP3 SWAP2 POP POP JUMP JUMPDEST PUSH32 0x4F6E6C79206F776E6572206F72206865616C7468636172652070726F76696465 PUSH0 DUP3 ADD MSTORE PUSH32 0x722063616E20706572666F726D207468697320616374696F6E00000000000000 PUSH1 0x20 DUP3 ADD MSTORE POP JUMP JUMPDEST PUSH0 PUSH2 0x1B7F PUSH1 0x39 DUP4 PUSH2 0x1575 JUMP JUMPDEST SWAP2 POP PUSH2 0x1B8A DUP3 PUSH2 0x1B25 JUMP JUMPDEST PUSH1 0x40 DUP3 ADD SWAP1 POP SWAP2 SWAP1 POP JUMP JUMPDEST PUSH0 PUSH1 0x20 DUP3 ADD SWAP1 POP DUP2 DUP2 SUB PUSH0 DUP4 ADD MSTORE PUSH2 0x1BAC DUP2 PUSH2 0x1B73 JUMP JUMPDEST SWAP1 POP SWAP2 SWAP1 POP JUMP JUMPDEST PUSH32 0x5265636F726420646F6573206E6F742065786973740000000000000000000000 PUSH0 DUP3 ADD MSTORE POP JUMP JUMPDEST PUSH0 PUSH2 0x1BE7 PUSH1 0x15 DUP4 PUSH2 0x1575 JUMP JUMPDEST SWAP2 POP PUSH2 0x1BF2 DUP3 PUSH2 0x1BB3 JUMP JUMPDEST PUSH1 0x20 DUP3 ADD SWAP1 POP SWAP2 SWAP1 POP JUMP JUMPDEST PUSH0 PUSH1 0x20 DUP3 ADD SWAP1 POP DUP2 DUP2 SUB PUSH0 DUP4 ADD MSTORE PUSH2 0x1C14 DUP2 PUSH2 0x1BDB JUMP JUMPDEST SWAP1 POP SWAP2 SWAP1 POP JUMP JUMPDEST PUSH32 0x4163636573732064656E69656400000000000000000000000000000000000000 PUSH0 DUP3 ADD MSTORE POP JUMP JUMPDEST PUSH0 PUSH2 0x1C4F PUSH1 0xD DUP4 PUSH2 0x1575 JUMP JUMPDEST SWAP2 POP PUSH2 0x1C5A DUP3 PUSH2 0x1C1B JUMP JUMPDEST PUSH1 0x20 DUP3 ADD SWAP1 POP SWAP2 SWAP1 POP JUMP JUMPDEST PUSH0 PUSH1 0x20 DUP3 ADD SWAP1 POP DUP2 DUP2 SUB PUSH0 DUP4 ADD MSTORE PUSH2 0x1C7C DUP2 PUSH2 0x1C43 JUMP JUMPDEST SWAP1 POP SWAP2 SWAP1 POP JUMP JUMPDEST PUSH2 0x1C8C DUP2 PUSH2 0x150D JUMP JUMPDEST DUP3 MSTORE POP POP JUMP JUMPDEST PUSH0 PUSH1 0x40 DUP3 ADD SWAP1 POP PUSH2 0x1CA5 PUSH0 DUP4 ADD DUP6 PUSH2 0x1C83 JUMP JUMPDEST PUSH2 0x1CB2 PUSH1 0x20 DUP4 ADD DUP5 PUSH2 0x1873 JUMP JUMPDEST SWAP4 SWAP3 POP POP POP JUMP JUMPDEST PUSH32 0x4E487B7100000000000000000000000000000000000000000000000000000000 PUSH0 MSTORE PUSH1 0x22 PUSH1 0x4 MSTORE PUSH1 0x24 PUSH0 REVERT JUMPDEST PUSH0 PUSH1 0x2 DUP3 DIV SWAP1 POP PUSH1 0x1 DUP3 AND DUP1 PUSH2 0x1CFD JUMPI PUSH1 0x7F DUP3 AND SWAP2 POP JUMPDEST PUSH1 0x20 DUP3 LT DUP2 SUB PUSH2 0x1D10 JUMPI PUSH2 0x1D0F PUSH2 0x1CB9 JUMP JUMPDEST JUMPDEST POP SWAP2 SWAP1 POP JUMP JUMPDEST PUSH32 0x4F6E6C79206F776E65722063616E206772616E74206163636573730000000000 PUSH0 DUP3 ADD MSTORE POP JUMP JUMPDEST PUSH0 PUSH2 0x1D4A PUSH1 0x1B DUP4 PUSH2 0x1575 JUMP JUMPDEST SWAP2 POP PUSH2 0x1D55 DUP3 PUSH2 0x1D16 JUMP JUMPDEST PUSH1 0x20 DUP3 ADD SWAP1 POP SWAP2 SWAP1 POP JUMP JUMPDEST PUSH0 PUSH1 0x20 DUP3 ADD SWAP1 POP DUP2 DUP2 SUB PUSH0 DUP4 ADD MSTORE PUSH2 0x1D77 DUP2 PUSH2 0x1D3E JUMP JUMPDEST SWAP1 POP SWAP2 SWAP1 POP JUMP JUMPDEST PUSH32 0x4F6E6C79206F776E65722063616E207265766F6B652061636365737300000000 PUSH0 DUP3 ADD MSTORE POP JUMP JUMPDEST PUSH0 PUSH2 0x1DB2 PUSH1 0x1C DUP4 PUSH2 0x1575 JUMP JUMPDEST SWAP2 POP PUSH2 0x1DBD DUP3 PUSH2 0x1D7E JUMP JUMPDEST PUSH1 0x20 DUP3 ADD SWAP1 POP SWAP2 SWAP1 POP JUMP JUMPDEST PUSH0 PUSH1 0x20 DUP3 ADD SWAP1 POP DUP2 DUP2 SUB PUSH0 DUP4 ADD MSTORE PUSH2 0x1DDF DUP2 PUSH2 0x1DA6 JUMP JUMPDEST SWAP1 POP SWAP2 SWAP1 POP JUMP JUMPDEST PUSH32 0x4E487B7100000000000000000000000000000000000000000000000000000000 PUSH0 MSTORE PUSH1 0x11 PUSH1 0x4 MSTORE PUSH1 0x24 PUSH0 REVERT JUMPDEST PUSH0 PUSH2 0x1E1D DUP3 PUSH2 0x150D JUMP JUMPDEST SWAP2 POP PUSH32 0xFFFFFFFFFFFFFFFFFFFFFFFFFFFFFFFFFFFFFFFFFFFFFFFFFFFFFFFFFFFFFFFF DUP3 SUB PUSH2 0x1E4F JUMPI PUSH2 0x1E4E PUSH2 0x1DE6 JUMP JUMPDEST JUMPDEST PUSH1 0x1 DUP3 ADD SWAP1 POP SWAP2 SWAP1 POP JUMP JUMPDEST PUSH0 DUP2 SWAP1 POP DUP2 PUSH0 MSTORE PUSH1 0x20 PUSH0 KECCAK256 SWAP1 POP SWAP2 SWAP1 POP JUMP JUMPDEST PUSH0 PUSH1 0x20 PUSH1 0x1F DUP4 ADD DIV SWAP1 POP SWAP2 SWAP1 POP JUMP JUMPDEST PUSH0 DUP3 DUP3 SHL SWAP1 POP SWAP3 SWAP2 POP POP JUMP JUMPDEST PUSH0 PUSH1 0x8 DUP4 MUL PUSH2 0x1EB6 PUSH32 0xFFFFFFFFFFFFFFFFFFFFFFFFFFFFFFFFFFFFFFFFFFFFFFFFFFFFFFFFFFFFFFFF DUP3 PUSH2 0x1E7B JUMP JUMPDEST PUSH2 0x1EC0 DUP7 DUP4 PUSH2 0x1E7B JUMP JUMPDEST SWAP6 POP DUP1 NOT DUP5 AND SWAP4 POP DUP1 DUP7 AND DUP5 OR SWAP3 POP POP POP SWAP4 SWAP3 POP POP POP JUMP JUMPDEST PUSH0 DUP2 SWAP1 POP SWAP2 SWAP1 POP JUMP JUMPDEST PUSH0 PUSH2 0x1EFB PUSH2 0x1EF6 PUSH2 0x1EF1 DUP5 PUSH2 0x150D JUMP JUMPDEST PUSH2 0x1ED8 JUMP JUMPDEST PUSH2 0x150D JUMP JUMPDEST SWAP1 POP SWAP2 SWAP1 POP JUMP JUMPDEST PUSH0 DUP2 SWAP1 POP SWAP2 SWAP1 POP JUMP JUMPDEST PUSH2 0x1F14 DUP4 PUSH2 0x1EE1 JUMP JUMPDEST PUSH2 0x1F28 PUSH2 0x1F20 DUP3 PUSH2 0x1F02 JUMP JUMPDEST DUP5 DUP5 SLOAD PUSH2 0x1E87 JUMP JUMPDEST DUP3 SSTORE POP POP POP POP JUMP JUMPDEST PUSH0 SWAP1 JUMP JUMPDEST PUSH2 0x1F3C PUSH2 0x1F30 JUMP JUMPDEST PUSH2 0x1F47 DUP2 DUP5 DUP5 PUSH2 0x1F0B JUMP JUMPDEST POP POP POP JUMP JUMPDEST JUMPDEST DUP2 DUP2 LT ISZERO PUSH2 0x1F6A JUMPI PUSH2 0x1F5F PUSH0 DUP3 PUSH2 0x1F34 JUMP JUMPDEST PUSH1 0x1 DUP2 ADD SWAP1 POP PUSH2 0x1F4D JUMP JUMPDEST POP POP JUMP JUMPDEST PUSH1 0x1F DUP3 GT ISZERO PUSH2 0x1FAF JUMPI PUSH2 0x1F80 DUP2 PUSH2 0x1E5A JUMP JUMPDEST PUSH2 0x1F89 DUP5 PUSH2 0x1E6C JUMP JUMPDEST DUP2 ADD PUSH1 0x20 DUP6 LT ISZERO PUSH2 0x1F98 JUMPI DUP2 SWAP1 POP JUMPDEST PUSH2 0x1FAC PUSH2 0x1FA4 DUP6 PUSH2 0x1E6C JUMP JUMPDEST DUP4 ADD DUP3 PUSH2 0x1F4C JUMP JUMPDEST POP POP JUMPDEST POP POP POP JUMP JUMPDEST PUSH0 DUP3 DUP3 SHR SWAP1 POP SWAP3 SWAP2 POP POP JUMP JUMPDEST PUSH0 PUSH2 0x1FCF PUSH0 NOT DUP5 PUSH1 0x8 MUL PUSH2 0x1FB4 JUMP JUMPDEST NOT DUP1 DUP4 AND SWAP2 POP POP SWAP3 SWAP2 POP POP JUMP JUMPDEST PUSH0 PUSH2 0x1FE7 DUP4 DUP4 PUSH2 0x1FC0 JUMP JUMPDEST SWAP2 POP DUP3 PUSH1 0x2 MUL DUP3 OR SWAP1 POP SWAP3 SWAP2 POP POP JUMP JUMPDEST PUSH2 0x2000 DUP3 PUSH2 0x156B JUMP JUMPDEST PUSH8 0xFFFFFFFFFFFFFFFF DUP2 GT ISZERO PUSH2 0x2019 JUMPI PUSH2 0x2018 PUSH2 0x18A3 JUMP JUMPDEST JUMPDEST PUSH2 0x2023 DUP3 SLOAD PUSH2 0x1CE6 JUMP JUMPDEST PUSH2 0x202E DUP3 DUP3 DUP6 PUSH2 0x1F6E JUMP JUMPDEST PUSH0 PUSH1 0x20 SWAP1 POP PUSH1 0x1F DUP4 GT PUSH1 0x1 DUP2 EQ PUSH2 0x205F JUMPI PUSH0 DUP5 ISZERO PUSH2 0x204D JUMPI DUP3 DUP8 ADD MLOAD SWAP1 POP JUMPDEST PUSH2 0x2057 DUP6 DUP3 PUSH2 0x1FDC JUMP JUMPDEST DUP7 SSTORE POP PUSH2 0x20BE JUMP JUMPDEST PUSH1 0x1F NOT DUP5 AND PUSH2 0x206D DUP7 PUSH2 0x1E5A JUMP JUMPDEST PUSH0 JUMPDEST DUP3 DUP2 LT ISZERO PUSH2 0x2094 JUMPI DUP5 DUP10 ADD MLOAD DUP3 SSTORE PUSH1 0x1 DUP3 ADD SWAP2 POP PUSH1 0x20 DUP6 ADD SWAP5 POP PUSH1 0x20 DUP2 ADD SWAP1 POP PUSH2 0x206F JUMP JUMPDEST DUP7 DUP4 LT ISZERO PUSH2 0x20B1 JUMPI DUP5 DUP10 ADD MLOAD PUSH2 0x20AD PUSH1 0x1F DUP10 AND DUP3 PUSH2 0x1FC0 JUMP JUMPDEST DUP4 SSTORE POP JUMPDEST PUSH1 0x1 PUSH1 0x2 DUP9 MUL ADD DUP9 SSTORE POP POP POP JUMPDEST POP POP POP POP POP POP JUMP JUMPDEST PUSH0 PUSH1 0x40 DUP3 ADD SWAP1 POP PUSH2 0x20D9 PUSH0 DUP4 ADD DUP6 PUSH2 0x1873 JUMP JUMPDEST PUSH2 0x20E6 PUSH1 0x20 DUP4 ADD DUP5 PUSH2 0x161E JUMP JUMPDEST SWAP4 SWAP3 POP POP POP JUMP INVALID LOG2 PUSH5 0x6970667358 0x22 SLT KECCAK256 JUMPDEST PUSH26 0xB912CD3E3529D0341017526C721FB4D64157F383EB8A2C9738B0 PUSH27 0x8275C164736F6C6343000816003300000000000000000000000000 "
				},
				"gasEstimates": {
					"creation": {
						"codeDepositCost": "1696600",
						"executionCost": "infinite",
						"totalCost": "infinite"
					},
					"external": {
						"DEFAULT_ADMIN_ROLE()": "441",
						"HEALTHCARE_PROVIDER_ROLE()": "393",
						"addHealthcareProvider(address)": "infinite",
						"createRecord(string)": "infinite",
						"getAccessLogs()": "infinite",
						"getRecord(uint256)": "infinite",
						"getRecordsByOwner(address)": "infinite",
						"getRoleAdmin(bytes32)": "infinite",
						"grantAccess(uint256,address)": "infinite",
						"grantRole(bytes32,address)": "infinite",
						"hasRole(bytes32,address)": "3211",
						"owner()": "2582",
						"removeHealthcareProvider(address)": "infinite",
						"renounceOwnership()": "infinite",
						"renounceRole(bytes32,address)": "infinite",
						"revokeAccess(uint256,address)": "infinite",
						"revokeRole(bytes32,address)": "infinite",
						"supportsInterface(bytes4)": "741",
						"transferOwnership(address)": "infinite"
					},
					"internal": {
						"_setupDefaultRoles(address)": "infinite",
						"_setupRole(bytes32,address)": "infinite"
					}
				},
				"methodIdentifiers": {
					"DEFAULT_ADMIN_ROLE()": "a217fddf",
					"HEALTHCARE_PROVIDER_ROLE()": "0402e735",
					"addHealthcareProvider(address)": "45bf10e9",
					"createRecord(string)": "db70504b",
					"getAccessLogs()": "db979bf8",
					"getRecord(uint256)": "03e9e609",
					"getRecordsByOwner(address)": "552d7105",
					"getRoleAdmin(bytes32)": "248a9ca3",
					"grantAccess(uint256,address)": "65dd152c",
					"grantRole(bytes32,address)": "2f2ff15d",
					"hasRole(bytes32,address)": "91d14854",
					"owner()": "8da5cb5b",
					"removeHealthcareProvider(address)": "0e59b28c",
					"renounceOwnership()": "715018a6",
					"renounceRole(bytes32,address)": "36568abe",
					"revokeAccess(uint256,address)": "d9a5ec1b",
					"revokeRole(bytes32,address)": "d547741f",
					"supportsInterface(bytes4)": "01ffc9a7",
					"transferOwnership(address)": "f2fde38b"
				}
			},
			"storageLayout": {
				"storage": [
					{
						"astId": 26,
						"contract": "HealthcareDataManagement.sol:HealthcareDataManagement",
						"label": "_roles",
						"offset": 0,
						"slot": "0",
						"type": "t_mapping(t_bytes32,t_struct(RoleData)21_storage)"
					},
					{
						"astId": 387,
						"contract": "HealthcareDataManagement.sol:HealthcareDataManagement",
						"label": "_owner",
						"offset": 0,
						"slot": "1",
						"type": "t_address"
					},
					{
						"astId": 626,
						"contract": "HealthcareDataManagement.sol:HealthcareDataManagement",
						"label": "records",
						"offset": 0,
						"slot": "2",
						"type": "t_mapping(t_uint256,t_struct(Record)614_storage)"
					},
					{
						"astId": 631,
						"contract": "HealthcareDataManagement.sol:HealthcareDataManagement",
						"label": "ownerRecords",
						"offset": 0,
						"slot": "3",
						"type": "t_mapping(t_address,t_array(t_uint256)dyn_storage)"
					},
					{
						"astId": 637,
						"contract": "HealthcareDataManagement.sol:HealthcareDataManagement",
						"label": "accessControl",
						"offset": 0,
						"slot": "4",
						"type": "t_mapping(t_address,t_mapping(t_uint256,t_bool))"
					},
					{
						"astId": 641,
						"contract": "HealthcareDataManagement.sol:HealthcareDataManagement",
						"label": "accessLogs",
						"offset": 0,
						"slot": "5",
						"type": "t_array(t_struct(AccessLog)621_storage)dyn_storage"
					},
					{
						"astId": 643,
						"contract": "HealthcareDataManagement.sol:HealthcareDataManagement",
						"label": "nextRecordId",
						"offset": 0,
						"slot": "6",
						"type": "t_uint256"
					}
				],
				"types": {
					"t_address": {
						"encoding": "inplace",
						"label": "address",
						"numberOfBytes": "20"
					},
					"t_array(t_struct(AccessLog)621_storage)dyn_storage": {
						"base": "t_struct(AccessLog)621_storage",
						"encoding": "dynamic_array",
						"label": "struct HealthcareDataManagement.AccessLog[]",
						"numberOfBytes": "32"
					},
					"t_array(t_uint256)dyn_storage": {
						"base": "t_uint256",
						"encoding": "dynamic_array",
						"label": "uint256[]",
						"numberOfBytes": "32"
					},
					"t_bool": {
						"encoding": "inplace",
						"label": "bool",
						"numberOfBytes": "1"
					},
					"t_bytes32": {
						"encoding": "inplace",
						"label": "bytes32",
						"numberOfBytes": "32"
					},
					"t_mapping(t_address,t_array(t_uint256)dyn_storage)": {
						"encoding": "mapping",
						"key": "t_address",
						"label": "mapping(address => uint256[])",
						"numberOfBytes": "32",
						"value": "t_array(t_uint256)dyn_storage"
					},
					"t_mapping(t_address,t_bool)": {
						"encoding": "mapping",
						"key": "t_address",
						"label": "mapping(address => bool)",
						"numberOfBytes": "32",
						"value": "t_bool"
					},
					"t_mapping(t_address,t_mapping(t_uint256,t_bool))": {
						"encoding": "mapping",
						"key": "t_address",
						"label": "mapping(address => mapping(uint256 => bool))",
						"numberOfBytes": "32",
						"value": "t_mapping(t_uint256,t_bool)"
					},
					"t_mapping(t_bytes32,t_struct(RoleData)21_storage)": {
						"encoding": "mapping",
						"key": "t_bytes32",
						"label": "mapping(bytes32 => struct AccessControl.RoleData)",
						"numberOfBytes": "32",
						"value": "t_struct(RoleData)21_storage"
					},
					"t_mapping(t_uint256,t_bool)": {
						"encoding": "mapping",
						"key": "t_uint256",
						"label": "mapping(uint256 => bool)",
						"numberOfBytes": "32",
						"value": "t_bool"
					},
					"t_mapping(t_uint256,t_struct(Record)614_storage)": {
						"encoding": "mapping",
						"key": "t_uint256",
						"label": "mapping(uint256 => struct HealthcareDataManagement.Record)",
						"numberOfBytes": "32",
						"value": "t_struct(Record)614_storage"
					},
					"t_string_storage": {
						"encoding": "bytes",
						"label": "string",
						"numberOfBytes": "32"
					},
					"t_struct(AccessLog)621_storage": {
						"encoding": "inplace",
						"label": "struct HealthcareDataManagement.AccessLog",
						"members": [
							{
								"astId": 616,
								"contract": "HealthcareDataManagement.sol:HealthcareDataManagement",
								"label": "recordId",
								"offset": 0,
								"slot": "0",
								"type": "t_uint256"
							},
							{
								"astId": 618,
								"contract": "HealthcareDataManagement.sol:HealthcareDataManagement",
								"label": "accessedBy",
								"offset": 0,
								"slot": "1",
								"type": "t_address"
							},
							{
								"astId": 620,
								"contract": "HealthcareDataManagement.sol:HealthcareDataManagement",
								"label": "timestamp",
								"offset": 0,
								"slot": "2",
								"type": "t_uint256"
							}
						],
						"numberOfBytes": "96"
					},
					"t_struct(Record)614_storage": {
						"encoding": "inplace",
						"label": "struct HealthcareDataManagement.Record",
						"members": [
							{
								"astId": 607,
								"contract": "HealthcareDataManagement.sol:HealthcareDataManagement",
								"label": "id",
								"offset": 0,
								"slot": "0",
								"type": "t_uint256"
							},
							{
								"astId": 609,
								"contract": "HealthcareDataManagement.sol:HealthcareDataManagement",
								"label": "dataHash",
								"offset": 0,
								"slot": "1",
								"type": "t_string_storage"
							},
							{
								"astId": 611,
								"contract": "HealthcareDataManagement.sol:HealthcareDataManagement",
								"label": "owner",
								"offset": 0,
								"slot": "2",
								"type": "t_address"
							},
							{
								"astId": 613,
								"contract": "HealthcareDataManagement.sol:HealthcareDataManagement",
								"label": "exists",
								"offset": 20,
								"slot": "2",
								"type": "t_bool"
							}
						],
						"numberOfBytes": "96"
					},
					"t_struct(RoleData)21_storage": {
						"encoding": "inplace",
						"label": "struct AccessControl.RoleData",
						"members": [
							{
								"astId": 18,
								"contract": "HealthcareDataManagement.sol:HealthcareDataManagement",
								"label": "hasRole",
								"offset": 0,
								"slot": "0",
								"type": "t_mapping(t_address,t_bool)"
							},
							{
								"astId": 20,
								"contract": "HealthcareDataManagement.sol:HealthcareDataManagement",
								"label": "adminRole",
								"offset": 0,
								"slot": "1",
								"type": "t_bytes32"
							}
						],
						"numberOfBytes": "64"
					},
					"t_uint256": {
						"encoding": "inplace",
						"label": "uint256",
						"numberOfBytes": "32"
					}
				}
			},
			"userdoc": {
				"kind": "user",
				"methods": {},
				"version": 1
			}
		}
	}
}